:020000040800F2
:10000000000001209D400008613B0008633B0008A0
:10001000653B0008673B0008693B000800000000E2
:100020000000000000000000000000006B3B000822
:100030006D3B0008000000006F3B0008713B0008AA
:10004000E5400008E5400008E5400008E5400008FC
:10005000E5400008E5400008E5400008E5400008EC
:10006000E5400008E5400008E5400008E5400008DC
:10007000E5400008E5400008E5400008E5400008CC
:10008000E5400008E5400008E5400008E5400008BC
:10009000E5400008E5400008E5400008E5400008AC
:1000A000E5400008E5400008E5400008E54000089C
:1000B000853B0008B93B0008E5400008E540000822
:1000C000E5400008E5400008E5400008E54000087C
:1000D000E5400008E5400008E5400008E54000086C
:1000E000E5400008E5400008E5400008E54000085C
:1000F000E5400008E5400008E5400008E54000084C
:10010000E5400008E5400008E5400008E54000083B
:10011000E5400008E5400008E5400008E54000082B
:10012000E5400008E5400008E5400008E54000081B
:1001300000000000000000000000000000000000BF
:1001400000000000000000000000000000000000AF
:10015000000000000000000000000000000000009F
:10016000000000000000000000000000000000008F
:10017000000000000000000000000000000000007F
:10018000000000000000000000000000000000006F
:10019000000000000000000000000000000000005F
:1001A000000000000000000000000000000000004F
:1001B000000000000000000000000000000000003F
:1001C000000000000000000000000000000000002F
:1001D000000000000000000000000000000000001F
:0401E0005FF8E0F1F3
:1001E80010B5054C237833B9044B13B10448AFF369
:1001F80000800123237010BDF001002000000000E2
:100208004869000808B5034B1BB103490348AFF31D
:10021800008008BD00000000F401002048690008C3
:10022800034613F8012B002AFBD1181A013870472E
:1002380081F0004102E000BF83F0004330B54FEA8F
:1002480041044FEA430594EA050F08BF90EA020FFC
:100258001FBF54EA000C55EA020C7FEA645C7FEA8F
:10026800655C00F0E2804FEA5454D4EB5555B8BFB2
:100278006D420CDD2C4480EA020281EA030382EA23
:10028800000083EA010180EA020281EA0303362DB5
:1002980088BF30BD11F0004F4FEA01314FF4801C88
:1002A8004CEA113102D0404261EB410113F0004F9A
:1002B8004FEA03334CEA133302D0524263EB430351
:1002C80094EA050F00F0A780A4F10104D5F1200EEF
:1002D8000DDB02FA0EFC22FA05F2801841F100014A
:1002E80003FA0EF2801843FA05F359410EE0A5F11E
:1002F80020050EF1200E012A03FA0EFC28BF4CF04F
:10030800020C43FA05F3C01851EBE37101F0004504
:1003180007D54FF0000EDCF1000C7EEB00006EEB11
:100328000101B1F5801F1BD3B1F5001F0CD349089B
:100338005FEA30004FEA3C0C04F101044FEA4452F2
:1003480012F5800F80F09A80BCF1004F08BF5FEA79
:10035800500C50F1000041EB045141EA050130BD59
:100368005FEA4C0C404141EB010111F4801FA4F1FC
:100378000104E9D191F0000F04BF01460020B1FA51
:1003880081F308BF2033A3F10B03B3F120020CDA89
:100398000C3208DD02F1140CC2F10C0201FA0CF067
:1003A80021FA02F10CE002F11402D8BFC2F1200CCC
:1003B80001FA02F120FA0CFCDCBF41EA0C01904082
:1003C800E41AA2BF01EB0451294330BD6FEA0404CB
:1003D8001F3C1CDA0C340EDC04F11404C4F12002B6
:1003E80020FA04F001FA02F340EA030021FA04F3C8
:1003F80045EA030130BDC4F10C04C4F1200220FA1F
:1004080002F001FA04F340EA0300294630BD21FA5C
:1004180004F0294630BD94F0000F83F4801306BF22
:1004280081F480110134013D4EE77FEA645C18BF16
:100438007FEA655C29D094EA050F08BF90EA020FAD
:1004480005D054EA000C04BF1946104630BD91EAA5
:10045800030F1EBF0021002030BD5FEA545C05D1A8
:100468004000494128BF41F0004130BD14F58004E7
:100478003CBF01F5801130BD01F0004545F0FE415B
:1004880041F470014FF0000030BD7FEA645C1ABF90
:10049800194610467FEA655C1CBF0B46024650EAC7
:1004A800013406BF52EA033591EA030F41F40021F3
:1004B80030BD00BF90F0000F04BF0021704730B579
:1004C8004FF4806404F132044FF000054FF000014E
:1004D80050E700BF90F0000F04BF0021704730B50F
:1004E8004FF4806404F1320410F0004548BF4042E4
:1004F8004FF000013EE700BF42004FEAE2014FEA39
:1005080031014FEA02701FBF12F07F4393F07F4F13
:1005180081F06051704792F0000F14BF93F07F4F45
:10052800704730B54FF4607401F0004521F0004188
:1005380020E700BF50EA010208BF704730B54FF00E
:1005480000050AE050EA010208BF704730B511F013
:10055800004502D5404261EB41014FF4806404F14B
:1005680032045FEA915C3FF4DCAE4FF003025FEACD
:10057800DC0C18BF03325FEADC0C18BF033202EB55
:10058800DC02C2F1200300FA03FC20FA02F001FAAF
:1005980003FE40EA0E0021FA02F11444C1E600BF4E
:1005A80070B54FF0FF0C4CF4E06C1CEA11541DBF01
:1005B8001CEA135594EA0C0F95EA0C0F00F0DEF8CC
:1005C8002C4481EA030621EA4C5123EA4C5350EAB1
:1005D800013518BF52EA033541F4801143F4801302
:1005E80038D0A0FB02CE4FF00005E1FB02E506F093
:1005F8000042E0FB03E54FF00006E1FB03569CF0E8
:10060800000F18BF4EF0010EA4F1FF04B6F5007FED
:1006180064F5407404D25FEA4E0E6D4146EB06065F
:1006280042EAC62141EA55514FEAC52040EA5E50E8
:100638004FEACE2EB4F1FD0C88BFBCF5E06F1ED892
:10064800BEF1004F08BF5FEA500E50F1000041EBC9
:10065800045170BD06F0004646EA010140EA020076
:1006680081EA0301B4EB5C04C2BFD4EB0C0541EA98
:10067800045170BD41F480114FF0000E013C00F3AD
:10068800AB8014F1360FDEBF002001F0004170BDD1
:10069800C4F10004203C35DA0C341BDC04F11404EA
:1006A800C4F1200500FA05F320FA04F001FA05F276
:1006B80040EA020001F0004221F0004110EBD37043
:1006C80021FA04F642EB06015EEA430E08BF20EA6F
:1006D800D37070BDC4F10C04C4F1200500FA04F312
:1006E80020FA05F001FA04F240EA020001F00041A4
:1006F80010EBD37041F100015EEA430E08BF20EA17
:10070800D37070BDC4F1200500FA05F24EEA020E5E
:1007180020FA04F301FA05F243EA020321FA04F08D
:1007280001F0004121FA04F220EA020000EBD37044
:100738005EEA430E08BF20EAD37070BD94F0000F44
:100748000FD101F00046400041EB010111F4801F78
:1007580008BF013CF7D041EA060195F0000F18BF29
:10076800704703F00046520043EB030313F4801F65
:1007780008BF013DF7D043EA0603704794EA0C0F1F
:100788000CEA135518BF95EA0C0F0CD050EA410635
:1007980018BF52EA4306D1D181EA030101F00041B2
:1007A8004FF0000070BD50EA410606BF10461946DA
:1007B80052EA430619D094EA0C0F02D150EA0136E6
:1007C80013D195EA0C0F05D152EA03361CBF104627
:1007D80019460AD181EA030101F0004141F0FE41C6
:1007E80041F470014FF0000070BD41F0FE4141F44A
:1007F800780170BD70B54FF0FF0C4CF4E06C1CEA4A
:1008080011541DBF1CEA135594EA0C0F95EA0C0FFE
:1008180000F0A7F8A4EB050481EA030E52EA0335B9
:100828004FEA013100F088804FEA03334FF08055DA
:1008380045EA131343EA12634FEA022245EA111507
:1008480045EA10654FEA00260EF000419D4208BFB8
:10085800964244F1FD0404F5407402D25B084FEA65
:100868003202B61A65EB03055B084FEA32024FF411
:1008780080104FF4002CB6EB020E75EB030E22BF6E
:10088800B61A754640EA0C005B084FEA3202B6EB2E
:10089800020E75EB030E22BFB61A754640EA5C00DD
:1008A8005B084FEA3202B6EB020E75EB030E22BF6D
:1008B800B61A754640EA9C005B084FEA3202B6EB6E
:1008C800020E75EB030E22BFB61A754640EADC002D
:1008D80055EA060E18D04FEA051545EA16754FEA8F
:1008E80006164FEAC30343EA52734FEAC2025FEAAD
:1008F8001C1CC0D111F4801F0BD141EA00014FF03C
:1009080000004FF0004CB6E711F4801F04BF01430C
:100918000020B4F1FD0C88BFBCF5E06F3FF6AFAE28
:10092800B5EB030C04BFB6EB020C5FEA500C50F1B8
:10093800000041EB045170BD0EF0004E4EEA11313B
:1009480014EB5C04C2BFD4EB0C0541EA045170BD42
:1009580041F480114FF0000E013C90E645EA060E86
:100968008DE60CEA135594EA0C0F08BF95EA0C0FB4
:100978003FF43BAF94EA0C0F0AD150EA01347FF4FC
:1009880034AF95EA0C0F7FF425AF104619462CE7D3
:1009980095EA0C0F06D152EA03353FF4FDAE104636
:1009A800194622E750EA410618BF52EA43067FF487
:1009B800C5AE50EA41047FF40DAF52EA43057FF417
:1009C800EBAE12E74FF0FF3C06E000BF4FF0010C22
:1009D80002E000BF4FF0010C4DF804CD4FEA410C86
:1009E8007FEA6C5C4FEA430C18BF7FEA6C5C1BD053
:1009F80001B050EA410C0CBF52EA430C91EA030FD4
:100A080002BF90EA020F0020704710F1000F91EA30
:100A1800030F58BF994208BF90422CBFD8176FEAFE
:100A2800E37040F0010070474FEA410C7FEA6C5CCC
:100A380002D150EA013C07D14FEA430C7FEA6C5CD3
:100A4800D6D152EA033CD3D05DF8040B704700BFFF
:100A58008446104662468C461946634600E000BF4D
:100A680001B5FFF7B7FF002848BF10F1000F01BD1F
:100A78004DF808EDFFF7F4FF0CBF012000205DF8EA
:100A880008FB00BF4DF808EDFFF7EAFF34BF01206F
:100A980000205DF808FB00BF4DF808EDFFF7E0FF08
:100AA80094BF012000205DF808FB00BF4DF808ED59
:100AB800FFF7CEFF94BF012000205DF808FB00BFC0
:100AC8004DF808EDFFF7C4FF34BF012000205DF8A2
:100AD80008FB00BF4FEA410C7FEA6C5C02D150EA88
:100AE800013C0AD14FEA430C7FEA6C5C02D152EA1E
:100AF800033C02D14FF0000070474FF001007047EF
:100B08004FEA410212F5001215D211D56FF478732D
:100B1800B3EB625212D94FEAC12343F0004343EAD0
:100B2800505311F0004F23FA02F018BF40427047AB
:100B38004FF00000704750EA013005D111F0004035
:100B480008BF6FF0004070474FF00000704700BFCB
:100B580080F0004002E000BF81F0004142001FBF6A
:100B68005FEA410392EA030F7FEA226C7FEA236C73
:100B78006AD04FEA1262D2EB1363C1BFD218414068
:100B880048404140B8BF5B42192B88BF704710F0FE
:100B9800004F40F4000020F07F4018BF404211F0A1
:100BA800004F41F4000121F07F4118BF494292EA09
:100BB800030F3FD0A2F1010241FA03FC10EB0C0035
:100BC800C3F1200301FA03F100F0004302D54942C2
:100BD80060EB4000B0F5000F13D3B0F1807F06D36F
:100BE80040084FEA310102F10102FE2A51D2B1F167
:100BF800004F40EBC25008BF20F0010040EA03005C
:100C08007047490040EB000010F4000FA2F1010208
:100C1800EDD1B0FA80FCACF1080CB2EB0C0200FA92
:100C28000CF0AABF00EBC25052421843BCBFD040E0
:100C38001843704792F0000F81F4000106BF80F45A
:100C480000000132013BB5E74FEA41037FEA226C1D
:100C580018BF7FEA236C21D092EA030F04D092F0E8
:100C6800000F08BF0846704790EA010F1CBF00201C
:100C7800704712F07F4F04D1400028BF40F0004079
:100C8800704712F100723CBF00F50000704700F099
:100C9800004343F0FE4040F4000070477FEA2262C0
:100CA80016BF08467FEA23630146420206BF5FEA91
:100CB800412390EA010F40F4800070474FF0000391
:100CC80004E000BF10F0004348BF40425FEA000C58
:100CD80008BF704743F0964301464FF000001CE000
:100CE80050EA010208BF70474FF000030AE000BF56
:100CF80050EA010208BF704711F0004302D5404294
:100D080061EB41015FEA010C02BF84460146002005
:100D180043F0B64308BFA3F18053A3F50003BCFA20
:100D28008CF2083AA3EBC25310DB01FA02FC6344CD
:100D380000FA02FCC2F12002BCF1004F20FA02F2D4
:100D480043EB020008BF20F00100704702F12002C7
:100D580001FA02FCC2F1200250EA4C0021FA02F228
:100D680043EB020008BF20EADC7070474FF0FF0C2D
:100D78001CEAD0521EBF1CEAD15392EA0C0F93EA28
:100D88000C0F6FD01A4480EA010C400218BF5FEACA
:100D980041211ED04FF0006343EA501043EA51113D
:100DA800A0FB01310CF00040B1F5000F3EBF490037
:100DB80041EAD3715B0040EA010062F17F02FD2A3B
:100DC8001DD8B3F1004F40EBC25008BF20F001001E
:100DD800704790F0000F0CF0004C08BF49024CEA35
:100DE800502040EA51207F3AC2BFD2F1FF0340EAC7
:100DF800C250704740F400004FF00003013A5DDC38
:100E080012F1190FDCBF00F000407047C2F1000278
:100E1800410021FA02F1C2F1200200FA02FC5FEA65
:100E2800310040F1000053EA4C0308BF20EADC70AF
:100E3800704792F0000F00F0004C02BF400010F421
:100E4800000F013AF9D040EA0C0093F0000F01F0CE
:100E5800004C02BF490011F4000F013BF9D041EAF0
:100E68000C018FE70CEAD15392EA0C0F18BF93EAF2
:100E78000C0F0AD030F0004C18BF31F0004CD8D11C
:100E880080EA010000F00040704790F0000F17BFA3
:100E980090F0004F084691F0000F91F0004F14D0E9
:100EA80092EA0C0F01D142020FD193EA0C0F03D141
:100EB8004B0218BF084608D180EA010000F0004044
:100EC80040F0FE4040F40000704740F0FE4040F41F
:100ED800400070474FF0FF0C1CEAD0521EBF1CEABE
:100EE800D15392EA0C0F93EA0C0F69D0A2EB0302DC
:100EF80080EA010C49024FEA402037D04FF0805376
:100F080043EA111143EA10130CF000408B4238BF3A
:100F18005B0042F17D024FF4000C8B4224BF5B1A48
:100F280040EA0C00B3EB510F24BFA3EB510340EA96
:100F38005C00B3EB910F24BFA3EB910340EA9C0044
:100F4800B3EBD10F24BFA3EBD10340EADC001B01B4
:100F580018BF5FEA1C1CE0D1FD2A3FF650AF8B4258
:100F680040EBC25008BF20F0010070470CF0004C65
:100F78004CEA50207F32C2BFD2F1FF0340EAC25090
:100F8800704740F400004FF00003013A37E792F051
:100F9800000F00F0004C02BF400010F4000F013AAF
:100FA800F9D040EA0C0093F0000F01F0004C02BFAA
:100FB800490011F4000F013BF9D041EA0C0195E713
:100FC8000CEAD15392EA0C0F08D142027FF47DAFAC
:100FD80093EA0C0F7FF470AF084676E793EA0C0F9C
:100FE80004D14B023FF44CAF08466EE730F0004C9A
:100FF80018BF31F0004CCAD130F000427FF45CAF2A
:1010080031F000437FF43CAF5FE700BF42000ED2EF
:10101800B2F1FE4F0BD34FF09E03B3EB126209D42B
:101028004FEA002343F0004323FA02F070474FF0E1
:101038000000704712F1610F01D1420202D14FF056
:10104800FF3070474FF00000704700BF10B50446EE
:101058000E4B18784FF47A73B3FBF0F30C4A106810
:10106800B0FBF3F000F0FCFB68B90F2C01D90120AC
:1010780010BD002221464FF0FF3000F0B3FB034BB8
:101088005C60002010BD012010BD00BF00000020E2
:101098001C00002008B5074A136843F010031360CA
:1010A800032000F08DFB0020FFF7D0FF02F004FDC5
:1010B800002008BD00200240034A1168034B1B783A
:1010C8000B441360704700BF94020020000000200A
:1010D800014B1868704700BF9402002038B50446D9
:1010E800FFF7F6FF0546B4F1FF3F02D0044B1B782B
:1010F8001C44FFF7EDFF401B8442FAD838BD00BFFF
:1011080000000020F0B583B005460C46002301938B
:10111800FFF7DEFF2B689A6812F4807F23D106461A
:101128005A6812F4807F03D1DB6A13F4700F24D05D
:101138004B4B1F68022001F073F8B7FBF0F72B68E0
:101148001969484A11422FD1D96802F15C4211420B
:101158002AD11969444A114239D1DA68434B1A42F3
:1011680037D029203AE0AB6A43F02003AB62002372
:1011780085F82430012003B0F0BD2B681B6813F0FC
:10118800020F48D1B4F1FF3FF7D024B1FFF7A0FF19
:10119800801B8442F1D2AB6A43F00403AB620023A4
:1011A80085F824300320E6E719692F4A114204D153
:1011B800D96802F16E4211420DD019692C4A0A40D1
:1011C8005AB9DA682A4B13405BB1FC2006E02920A3
:1011D80004E0142002E0542000E0FC2007FB00F7A4
:1011E80004E05420FAE7019B01330193019B9F42DD
:1011F80011D9B4F1FF3FF6D024B1FFF769FF801B86
:101208008442F0D2AB6A43F00403AB62002385F852
:1012180024300320AFE72B686FF012021A60AB6A24
:1012280043F40073AB622B689B6803F46023B3F547
:10123800602F01D000209EE7EB686BB9AB6A23F4FE
:101248008073AB62AB6A13F4805F07D1AB6A43F07B
:101258000103AB6200208EE700208CE700208AE7BC
:101268001C00002024499224922449129224490007
:10127800499224000368D86C7047000030B482B0EB
:101288000023019390F82430012B00F08B80024654
:10129800012380F824304B68062B29D80568686B31
:1012A80003EB8303053B1F249C4020EA04000C68E1
:1012B80004FA03F303436B630B68092B38D91568E9
:1012C800E86803EB43031E3B07249C4020EA040024
:1012D8008C6804FA03F30343EB600B68103B012BA3
:1012E80034D90020002382F8243002B030BC704783
:1012F8000C2B0ED80568286B03EB8303233B1F24B4
:101308009C4020EA04000C6804FA03F303432B63AF
:10131800D2E70568E86A03EB8303413B1F249C403E
:1013280020EA04000C6804FA03F30343EB62C3E702
:101338001568286903EB430307249C4020EA04004E
:101348008C6804FA03F303432B61C6E71368164855
:10135800834205D0936A43F0200393620120C1E7DA
:10136800986810F4000F1BD1986840F4000098604A
:101378000B68102B01D00020B4E70C4B1B680C49FC
:10138800A1FB03139B0C03EB83035900019102E0BB
:10139800019B013B0193019B002BF9D10020A1E7A0
:1013A80000209FE70220A0E7002401401C00002045
:1013B80083DE1B4330B583B00023019303689A682A
:1013C80012F0010F2ED19A6842F001029A60174B71
:1013D8001B68174AA2FB03239B0C019302E0019BA5
:1013E800013B0193019B002BF9D10446FFF770FEE6
:1013F800054623689B6813F0010F11D1FFF768FEBB
:10140800401B0228F5D9A36A43F01003A362E36ADC
:1014180043F00103E362002384F82430012002E052
:10142800002000E0002003B030BD00BF1C000020F9
:1014380083DE1B4390F82430012B02D10223184687
:10144800704710B50446012380F82430FFF7B2FF37
:10145800034600285BD1A26A22F4407222F00102FE
:1014680042F48072A26222682B498A4227D0A16A7C
:1014780021F48011A162516811F4806F05D0A16A2E
:1014880021F4405141F48051A162A16A11F4805FB6
:101498002BD0E16A21F00601E162002184F82410D2
:1014A8006FF0020111602268916801F46021B1F5C2
:1014B800602F1DD0916841F4801191602AE0A1F558
:1014C8008061496811F4702FD1D0A16A41F480116C
:1014D800A1621249496811F4806FD6D0A16A21F43B
:1014E800405141F48051A162CFE70021E162D4E785
:1014F80009498A4204D0916841F4A001916009E049
:10150800A1F58061496811F4702FD3D1F3E7002267
:1015180084F82420184610BD00280140002401400A
:1015280038B503689A6812F0010F01D1002038BD60
:1015380004469A6822F001029A60FFF7C9FD054641
:1015480023689B6813F0010F0ED0FFF7C1FD401B05
:101558000228F5D9A36A43F01003A362E36A43F0B3
:101568000103E362012038BD002038BD002800F0E7
:101578008A8070B50446836A002B4DD02046FFF759
:10158800CFFFA36A13F0100377D1002875D1A26AA0
:1015980022F4885222F0020242F00202A262656836
:1015A80021683A4A91423DD0E2692A43E66842EA14
:1015B8004602A568B5F5807F3ED0012D39D0656912
:1015C800012D3CD04D6825F469452B434B602168BB
:1015D8008D682F4B2B4013438B60A368B3F5807F36
:1015E8003ED0012B3CD000232568E96A21F4700124
:1015F8000B43EB6223689968264B0B409A4233D021
:10160800A36A23F0120343F01003A362E36A43F0D2
:101618000103E362012070BDC36280F8243001F049
:1016280073FCABE7E269B2F5402FBED14FF400225C
:10163800BBE74FF48073C2E74FF48073BFE736B956
:10164800A569013D43EA453343F40063BAE7A56A57
:1016580045F02005A562E56A45F00105E562B1E7B8
:101668002369013B1B05BFE70023E362A36A23F05C
:10167800030343F00103A36270BDA36A43F01003A0
:10168800A362012070BD0120704700BF003C0140EB
:10169800FDF7E1FFFE0E1FFF90F82430012B02D169
:1016A80002231846704710B50446012380F82430F9
:1016B800FFF736FF034638B9A26A22F4885222F0AF
:1016C800010242F00102A262002284F82420184696
:1016D80010BD000070B582B00023019390F824304B
:1016E800012B03D10225284602B070BD0446012310
:1016F80080F82430FFF714FF054618B1002384F85A
:101708002430F0E7A36A23F4885323F0020343F05C
:101718000203A362294B1E68022000F081FDB6FB7C
:10172800F0F04000019002E0019B013B0193019B16
:10173800002BF9D12046FFF73DFE2268936843F05D
:1017480008039360FFF7C4FC064623689A6812F002
:10175800080F0FD0FFF7BCFC801B0A28F5D9A36A35
:1017680023F0120343F01003A362002384F824300B
:101778000125B8E79A6842F004029A60FFF7A8FCCE
:10178800064623689B6813F0040F0FD0FFF7A0FCF0
:10179800801B0A28F5D9A36A23F0120343F010032B
:1017A800A362002384F8243001259CE7A36A23F070
:1017B800030343F00103A362A0E700BF1C0000205D
:1017C800074AD36823F4E0631B041B0C000200F4EF
:1017D800E060184340F0BF6040F40030D0607047CC
:1017E80000ED00E030B4164BDB68C3F30223C3F10D
:1017F8000704042C28BF04241D1D062D17D9033BFC
:10180800012505FA04F4013C2140994005FA03F347
:10181800013B1340194300280BDB0901C9B200F151
:10182800604000F5614080F8001330BC7047002329
:10183800E6E700F00F000901C9B2024B1954F4E7BA
:1018480000ED00E014ED00E0420900F01F00012364
:1018580003FA00F0014B43F82200704700E100E072
:101868000138B0F1807F0AD2064B5860F021064A51
:1018780082F823100020986007221A607047012020
:10188800704700BF10E000E000ED00E0042805D03C
:10189800054A136823F0040313607047024A13686B
:1018A80043F004031360704710E000E0704708B588
:1018B800FFF7FCFF08BD0000F0B583B000263446F2
:1018C80079E0002D00F0A980012D00D1CE68FF2B12
:1018D80000F2B7808646FF2B00F2B680A500DEF83E
:1018E80000200F27AF4022EA070206FA05F52A432F
:1018F800CEF800204A6812F0805F5BD0674A95698D
:1019080045F001059561926902F001020192019A80
:10191800A208971C624D55F8275004F003074FEAB8
:10192800870E0F2707FA0EF725EA07055D4FB8421D
:1019380000F0908007F58067B84200F08D8007F5C9
:101948008067B84200F08A8007F58067B84200F0E7
:10195800878007F58067B84200F0848007F58067C4
:10196800B84275D0062707FA0EF73D4302324C4FAE
:1019780047F822504A6812F4803F75D04A4D2A68C9
:101988001A432A604A6812F4003F73D0464D6A68C9
:101998001A436A604A6812F4801F71D0424DAA68DF
:1019A8001A43AA604A6812F4001F6FD03E4DEA68D5
:1019B8001343EB6001340F2C6ED80122A2400B6850
:1019C80013409A42F6D14D68122D30D00BD8022D13
:1019D8002AD07FF676AF032D2FD0112D7FF477AF65
:1019E800CE68043673E7314FBD4216D00CD9304F5C
:1019F800BD4212D007F58037BD420ED0A7F580173B
:101A0800BD427FF464AF08E0A7F58017BD4204D05B
:101A180007F58037BD427FF45AAF8D687DB1012D3F
:101A280008D04261082652E7CE6808364FE7CE68EC
:101A38000C364CE70261082649E7002647E70426EA
:101A480045E700F1040E46E7A4F10805AD0046E7B6
:101A5800052788E7002786E7012784E7022782E72A
:101A6800032780E704277EE70F4D2A6822EA03024E
:101A78002A6087E70C4D6A6822EA03026A6089E7F0
:101A8800094DAA6822EA0302AA608BE7064DEA68B4
:101A980022EA0303EB608DE703B0F0BD00100240BB
:101AA800000001400008014000040140000021102E
:101AB800000031108368194201D1002070470120CD
:101AC800704712B90904016170470161704700004D
:101AD80082B0084B1B68084AA2FB03235B0A00FB81
:101AE80003F0019000BF019B5A1E0192002BF9D10F
:101AF80002B070471C000020D34D621070B582B050
:101B08000446036813F0010F3DD0AC4B5B6803F04B
:101B18000C03042B2ED0A94B5B6803F00C03082B95
:101B280023D06368B3F5803F51D0002B55D103F122
:101B3800804303F504331A6822F480321A601A6865
:101B480022F480221A606368002B60D0FFF7C0FA85
:101B580005469A4B1B6813F4003F14D1FFF7B8FAF7
:101B6800401B6428F5D90320AFE1944B5B6813F45C
:101B7800803FD6D0914B1B6813F4003F03D06368B5
:101B8800002B00F09F81236813F0020F65D08B4B68
:101B98005B6813F00C0F4ED0884B5B6803F00C03A6
:101BA800082B43D02369002B79D00122844B1A607B
:101BB800FFF78EFA0546814B1B6813F0020F65D1BB
:101BC800FFF786FA401B0228F5D903207DE17B4AFE
:101BD800136843F480331360B5E7B3F5A02F09D039
:101BE800764B1A6822F480321A601A6822F480222E
:101BF8001A60A8E703F18043A3F53C331A6842F45E
:101C080080221A601A6842F480321A609BE7FFF754
:101C18005FFA0546694B1B6813F4003FB3D0FFF722
:101C280057FA401B6428F5D903204EE1634B5B68E3
:101C380013F4803FB6D1614B1B6813F0020F04D038
:101C48002369012B01D001203FE15C4A136823F08E
:101C5800F803616943EAC1031360236813F0080FAE
:101C680032D0A369002B6ED00122564B1A60FFF7C1
:101C78002FFA0546514B5B6A13F0020F21D1FFF78B
:101C880027FA401B0228F5D903201EE14B4A1368A6
:101C980023F0F803616943EAC1031360DDE700221A
:101CA800474B1A60FFF714FA0546444B1B6813F0BC
:101CB800020FD2D0FFF70CFA401B0228F5D90320F7
:101CC80003E10120FFF704FF236813F0040F00F07D
:101CD80099803A4BDB6913F0805F46D1374BDA695C
:101CE80042F08052DA61DB6903F080530193019B73
:101CF8000125354B1B6813F4807F38D0E368012B2E
:101D080049D0002B4DD103F1804303F504331A6AFF
:101D180022F001021A621A6A22F004021A62E368C7
:101D2800002B5DD0FFF7D4F90646244B1B6A13F04D
:101D3800020F66D1FFF7CCF9801B41F28833984235
:101D4800F3D90320C1E000221E4B1A60FFF7C0F947
:101D580005461A4B5B6A13F0020FB5D0FFF7B8F9C6
:101D6800401B0228F5D90320AFE00025C1E7164A39
:101D7800136843F480731360FFF7AAF90646124B01
:101D88001B6813F4807FB9D1FFF7A2F9801B642880
:101D9800F5D9032099E0094A136A43F00103136255
:101DA800BDE7052B12D0054B1A6A22F001021A6210
:101DB8001A6A22F004021A62B1E700BF001002405A
:101DC800000042428004424200700040414B1A6ABF
:101DD80042F004021A621A6A42F001021A629EE78D
:101DE800FFF776F906463B4B1B6A13F0020F08D043
:101DF800FFF76EF9801B41F288339842F3D903202C
:101E080063E0E5B9E369002B5ED0324A526802F01C
:101E18000C02082A5BD0022B17D000222E4B1A6026
:101E2800FFF756F904462B4B1B6813F0007F47D089
:101E3800FFF74EF9001B0228F5D9032045E0254A93
:101E4800D36923F08053D361DCE70022224B1A6068
:101E5800FFF73EF905461F4B1B6813F0007F06D0BD
:101E6800FFF736F9401B0228F5D903202DE0236A35
:101E7800B3F5803F1AD017494B6823F47413226ACC
:101E8800606A024313434B600122134B1A60FFF749
:101E98001FF904460F4B1B6813F0007F0ED1FFF7A4
:101EA80017F9001B0228F5D903200EE0094A5368E8
:101EB80023F40033A1680B435360DCE7002004E0FF
:101EC800002002E0012000E0002002B070BD0120E7
:101ED800FBE700BF001002406000424210B586B028
:101EE800154C94E80F000DF1180E0EE90F00238A27
:101EF800ADF80430114B5B6803F00C02082A18D1C6
:101F0800C3F38342724412F8102C13F4803F03D1B8
:101F18000B4800FB02F00DE0084B5B68C3F340433D
:101F2800734413F8143C074800FB02F0B0FBF3F0CD
:101F380000E0044806B010BD6069000800100240C7
:101F480000093D0000127A00594B1B6803F0070393
:101F58008B420CD2564A136823F007030B431360D5
:101F6800136803F00703994201D00120704770B548
:101F7800036813F0020F06D04E4A536823F0F003AB
:101F88008468234353600D460446036813F0010F29
:101F980052D04368012B23D0022B28D0454A12681F
:101FA80012F0020F00F0828042494A6822F00302D0
:101FB80013434B60FFF78CF806466368012B1DD06E
:101FC800022B2AD03B4B5B6813F00C0F34D0FFF781
:101FD8007FF8801B41F288339842F3D9032070BD03
:101FE800344A126812F4003FDED1012070BD314A34
:101FF800126812F0007FD7D1012070BD2D4B5B68AD
:1020080003F00C03042B17D0FFF762F8801B41F292
:1020180088339842F2D9032070BD264B5B6803F0E1
:102028000C03082B08D0FFF753F8801B41F28833C4
:102038009842F2D9032070BD1D4B1B6803F00703BB
:102048009D420CD21A4A136823F007032B431360EE
:10205800136803F007039D4201D0012070BD236877
:1020680013F0040F06D0134A536823F4E063E168C1
:102078000B435360236813F0080F07D00D4A5368C9
:1020880023F46053216943EAC1035360FFF726FF35
:10209800084B5B68C3F30313074AD35CD840074B6C
:1020A80018600020FEF7D2FF002070BD012070BD2F
:1020B8000020024000100240886900081C0000202F
:1020C800014B1868704700BF1C00002008B5FFF7D7
:1020D800F7FF044B5B68C3F30223034AD35CD84081
:1020E80008BD00BF001002409869000808B5FFF756
:1020F800E7FF044B5B68C3F3C223034AD35CD840B1
:1021080008BD00BF001002409869000870B582B091
:102118000446036813F0010F34D03E4BDB6913F01B
:10212800805F48D13B4BDA6942F08052DA61DB6963
:1021380003F080530193019B0125374B1B6813F46F
:10214800807F3AD0334B1B6A13F4407311D0626816
:1021580002F4407293420CD02E4A136A23F4407062
:102168002E4901260E6000260E60106213F0010F42
:1021780037D1284A136A23F4407361680B4313620A
:10218800002D3FD1236813F0020F06D0214A53686F
:1021980023F44043A1680B435360236813F0100FE6
:1021A80035D01C4A536823F4800361690B4353609C
:1021B800002002B070BD0025BFE7174A136843F43A
:1021C80080731360FEF784FF0646134B1B6813F4F5
:1021D800807FB7D1FEF77CFF801B6428F5D90320E8
:1021E800E7E7FEF775FF06460A4B1B6A13F0020F76
:1021F800BFD1FEF76DFF801B41F288339842F3D9B7
:102208000320D6E7D36923F08053D361BAE70020CF
:10221800CFE700BF00100240007000404004424277
:1022280030B587B005463F4C94E80F000DF1180E05
:102238000EE90F00238AADF80430681E0F2869D80C
:10224800DFE800F0395D6832686868366868686891
:1022580068686808344B5A681B6813F0807F5BD045
:10226800C2F3834306A90B4413F8100C12F4803F01
:1022780016D02D4B5B68C3F340430B4413F8142C62
:102288002A4BB3FBF2F303FB00F0274B5B6813F414
:10229800800F0BD14000264BA3FB0030400805E01F
:1022A800244B03FB00F0F0E7FFF718FE07B030BD42
:1022B800FFF714FEFAE71C4B1B6A40F202321A4081
:1022C800B2F5817F2AD003F44073B3F5007F04D0C0
:1022D800B3F5407F09D00020E8E7134A526A12F0AC
:1022E800020FF5D049F64040E0E70F4B1B6813F4A6
:1022F800003F02D04FF22440D8E70020D6E7FFF78E
:10230800F5FE094B5B68C3F3813301335B00B0FB17
:10231800F3F0CBE70020C9E70020C7E74FF40040FF
:10232800C4E700BF746900080010024000127A0078
:10233800ABAAAAAA00093D0030B4036A23F001033E
:102348000362036A4468826922F073020D682A43B3
:1023580023F002038D682B43114DA84211D005F5D7
:102368000065A8420DD00E4DA84211D005F50065B4
:10237800A8420DD0446082614A684263036230BC5F
:10238800704723F00803CD682B4323F00403EAE7E2
:1023980024F440744D692C438D692C43EAE700BF4F
:1023A800002C014030B4036A23F480730362036A8B
:1023B8004468C26922F073020D682A4323F400734B
:1023C8008D6843EA0523134DA84211D005F5006531
:1023D800A8420DD00F4DA84212D005F50065A842BD
:1023E8000ED04460C2614A68C263036230BC704761
:1023F80023F40063CD6843EA052323F48063E9E707
:1024080024F440544D6944EA05148D6944EA0514DE
:10241800E7E700BF002C014030B4036A23F480537F
:102428000362036A4468C26922F4E6420D6842EA1C
:10243800052223F400538D6843EA0533094DA84269
:102448000AD005F50065A84206D04460C2614A6812
:102458000264036230BC704724F480444D6944EA46
:102468008514F2E7002C014010B4036A046A24F0D2
:1024780001040462846924F0F00444EA021223F09F
:102488000A030B438261036210BC704710B4036AED
:1024980023F0100303628469036A24F4704444EA55
:1024A800023223F0A00343EA01138261036210BCE5
:1024B8007047836823F0700341F007010B43836082
:1024C800704710B4846824F47F4442EA0323194314
:1024D8000C43846010BC70470268D36843F0010362
:1024E800D3600268136843F001031360002070474B
:1024F80090F83C30012B7DD010B50446012380F8BC
:102508003C30022380F83D300268936823F47F430F
:1025180023F0770393600B68402B57D010D9702BAA
:102528003ED01FD8502B47D0602B32D1CA6849689B
:102538000068FFF7ABFF60212068FFF7BAFF28E0CB
:10254800102B4DD008D9202B4FD0302B21D1302142
:102558000068FFF7AEFF1CE0DBB900210068FFF759
:10256800A8FF16E0B3F5805F0ED0B3F5005F10D179
:10257800CB684A6889680068FFF7A3FF22689368F8
:1025880043F48043936004E00268936823F00703F0
:102598009360012384F83D30002084F83C0010BD8E
:1025A800CB684A6889680068FFF78BFF22689368E0
:1025B80043F077039360ECE7CA6849680068FFF75F
:1025C80053FF50212068FFF774FFE2E7CA684968A3
:1025D8000068FFF749FF40212068FFF76AFFD8E746
:1025E80010210068FFF765FFD3E720210068FFF797
:1025F80060FFCEE70220704770477047704770470A
:10260800704710B5044603681A6912F0020F11D01A
:10261800DA6812F0020F0DD06FF002021A6101237E
:10262800037703689B6913F0030F70D0FFF7E6FF89
:102638000023237723681A6912F0040F12D0DA688E
:1026480012F0040F0ED06FF004021A6102232377F0
:1026580023689B6913F4407F5FD02046FFF7CEFFC5
:102668000023237723681A6912F0080F12D0DA685A
:1026780012F0080F0ED06FF008021A6104232377B6
:102688002368DB6913F0030F4ED02046FFF7B6FF2F
:102698000023237723681A6912F0100F12D0DA6822
:1026A80012F0100F0ED06FF010021A610823237772
:1026B8002368DB6913F4407F3DD02046FFF79EFF77
:1026C8000023237723681A6912F0010F03D0DA6810
:1026D80012F0010F36D123681A6912F0800F03D067
:1026E800DA6812F0800F34D123681A6912F0400FAB
:1026F80003D0DA6812F0400F32D123681A6912F059
:10270800200F03D0DA6812F0200F30D110BDFFF788
:1027180074FF2046FFF773FF8AE72046FFF76DFF37
:102728002046FFF76CFF9BE72046FFF766FF204631
:10273800FFF765FFACE72046FFF75FFF2046FFF78E
:102748005EFFBDE76FF001021A612046FFF754FFF4
:10275800C1E76FF080021A61204600F0C9F9C3E7AB
:102768006FF040021A612046FFF74AFFC5E76FF095
:1027780020021A61204600F0BAF9C7E70368254A23
:10278800904212D002F5006290420ED0B0F1804F14
:102798000BD0A2F59832904207D002F580629042A1
:1027A80003D002F58062904203D123F070034A6897
:1027B8001343184A904212D002F5006290420ED09C
:1027C800B0F1804F0BD0A2F59832904207D002F5B5
:1027D8008062904203D002F58062904203D123F4D4
:1027E8004073CA68134323F080034A6913430360A4
:1027F8008B68C3620B688362064B984206D003F568
:102808000063984202D00123436170470B69036358
:10281800F9E700BF002C0140A8B110B5044690F8B4
:102828003D305BB1022384F83D30211D2068FFF75D
:10283800A5FF012384F83D30002010BD80F83C300E
:1028480001F0BCFAEEE701207047A8B110B50446C4
:1028580090F83D305BB1022384F83D30211D20689B
:10286800FFF78CFF012384F83D30002010BD80F86D
:102878003C3001F06DFAEEE70120704730B4036A8E
:1028880023F010030362036A4468826922F4E64273
:102898000D6842EA052223F020038D6843EA0513F8
:1028A800124DA84211D005F50065A8420DD00F4D74
:1028B800A84212D005F50065A8420ED04460826196
:1028C8004A688263036230BC704723F08003CD6896
:1028D80043EA051323F04003E9E724F440644D6913
:1028E80044EA85048D6944EA8504E7E7002C014041
:1028F80038B590F83C30012B66D00D4604460123CC
:1029080080F83C30022380F83D300C2A1AD8DFE8E2
:1029180002F007191919201919193419191947003A
:102928000068FFF709FD2268936943F00803936183
:102938002268936923F004039361226893692969E3
:102948000B439361012384F83D30002084F83C0058
:1029580038BD0068FFF792FF2268936943F400636B
:1029680093612268936923F4806393612268936971
:10297800296943EA01239361E4E70068FFF712FD40
:102988002268D36943F00803D3612268D36923F02E
:102998000403D3612268D36929690B43D361D1E762
:1029A8000068FFF739FD2268D36943F40063D361F7
:1029B8002268D36923F48063D3612268D3692969C3
:1029C80043EA0123D361BDE7022038BD10B40123D7
:1029D80003FA01F4036A23EA04030362036A8A40E0
:1029E8001343036210BC704710B504460122006807
:1029F800FFF7ECFF23680C4A934212D002F50062FD
:102A080093420CD000221AB15A6C42F400425A6424
:102A18002268136843F001031360002010BD0122EF
:102A2800F1E70122EFE700BF002C014010B5044692
:102A380000220068FFF7CAFF2368174A934229D08B
:102A480002F50062934223D000226AB1196A41F26A
:102A58001112114208D1196A40F24442114203D1BD
:102A68005A6C22F400425A642368196A41F211121E
:102A7800114208D1196A40F24442114203D11A683E
:102A880022F001021A60012384F83D30002010BDB5
:102A98000122DAE70122D8E7002C014090F83C3007
:102AA800012B22D030B4012280F83C20022380F888
:102AB8003D300468636823F07003636004686368EA
:102AC8000D682B4363600468A36823F08003A36048
:102AD8000468A36849680B43A36080F83D2000237D
:102AE80080F83C30184630BC704702207047704769
:102AF800704700002DE9F04705460268136923F482
:102B08004053C1680B4313618368026913434269E8
:102B180013430168CA6822F4B05222F00C0213432E
:102B2800CB600268536923F4407381690B43536196
:102B3800D0F80080594B984557D0FFF7C7FA00EBFB
:102B4800800000EB80006C68A400B0FBF4F4544FE4
:102B5800A7FB043464092601FFF7B8FA00EB8000EC
:102B680000EB80006C68A400B0FBF4FAFFF7AEFA43
:102B780000EB800000EB80006C68A400B0FBF4F46C
:102B8800A7FB043464094FF0640909FB14A4240169
:102B98003234A7FB0434640904F0F0043444FFF72A
:102BA80095FA00EB800000EB80006E68B600B0FB81
:102BB800F6F6FFF78BFA00EB800000EB80006B68FD
:102BC8009B00B0FBF3F0A7FB0030400909FB10693C
:102BD8004FEA091909F13209A7FB0937C7F3431767
:102BE8002744C8F80870BDE8F087FFF77FFA00EBC4
:102BF800800000EB80006C68A400B0FBF4F4284F60
:102C0800A7FB043464092601FFF770FA00EB800083
:102C180000EB80006C68A400B0FBF4FAFFF766FADA
:102C280000EB800000EB80006C68A400B0FBF4F4BB
:102C3800A7FB043464094FF0640909FB14A42401B8
:102C48003234A7FB0434640904F0F0043444FFF779
:102C58004DFA00EB800000EB80006E68B600B0FB18
:102C6800F6F6FFF743FA00EB800000EB80006B6894
:102C78009B00B0FBF3F3A7FB03235B0909FB136974
:102C88004FEA091909F13209A7FB0937C7F34317B6
:102C98002744C8F80870BDE8F08700BF0038014035
:102CA8001F85EB512DE9F04105460F46164698461B
:102CB800069C2B681B6837EA03030CBF012300231B
:102CC800B3421ED1B4F1FF3FF3D02CB1FEF700FAA6
:102CD800A0EB08008442ECD22A68D36823F4D073AE
:102CE800D3602A68536923F001035361202385F8D0
:102CF800393085F83A30002385F838300320BDE8AC
:102D0800F0810020BDE8F08158B310B5044690F872
:102D180039300BB3242384F839302268D36823F47C
:102D28000053D3602046FFF7E5FE2268136923F4B9
:102D3800904313612268536923F02A035361226880
:102D4800D36843F40053D3600020E063202384F861
:102D5800393084F83A3010BD80F8383001F06CF919
:102D6800D8E7012070472DE9F04182B01E4690F85F
:102D78003930DBB2202B04D00223184602B0BDE85C
:102D8800F08104460D469046002955D0002A55D0BA
:102D980090F83830012B01D10223EEE7012380F8A7
:102DA80038300023C363212380F83930FEF790F9C7
:102DB8000746A4F82480A4F8268010E000963B4635
:102DC800002280212046FFF76DFF002838D12268B5
:102DD8002B88C3F3080353602369CBB90235E38C0E
:102DE8009BB2BBB1E38C9BB2013B9BB2E384A3686B
:102DF800B3F5805FE2D000963B4600228021204652
:102E0800FFF750FFF0B923682A785A600135E6E7E2
:102E18000135E4E700963B46002240212046FFF7B3
:102E280041FF034608B10323A7E7202284F839208D
:102E3800002284F83820A0E701239EE701239CE7BD
:102E480003239AE7032398E700B585B01348144B8A
:102E5800036000238360C36043614FF46022C26152
:102E6800436001230361FEF781FB68B90A230193DC
:102E7800012302930623039301A90848FEF7FEF9EC
:102E880038B905B05DF804FB4D21064800F046FB53
:102E9800ECE75721034800F041FBF2E7C8020020A5
:102EA80000240140A069000800B585B01348144B00
:102EB800036000238360C36043614FF46022C261F2
:102EC800436001230361FEF751FB68B904230193B2
:102ED800012302930023039301A90848FEF7CEF9C2
:102EE80038B905B05DF804FB6B21064800F016FB05
:102EF800ECE77521034800F011FBF2E79802002087
:102F080000280140A069000800B587B00368174A87
:102F1800934205D0164A934215D007B05DF804FBDA
:102F2800144B9A6942F400729A619B6903F4007326
:102F38000093009B0F2302930323039302A90E48D7
:102F4800FEF7BAFCE9E70B4B9A6942F480629A6192
:102F58009B6903F480630193019B1023029303236D
:102F6800039302A90548FEF7A7FCD6E70024014011
:102F780000280140001002400010014000080140F4
:102F880030B585B001224FF400711748FEF799FD5E
:102F9800012302930623039304A90D2341F80C3D52
:102FA800124C2046FEF76AF92046FEF793FB2046AE
:102FB800FEF740FA4FF47A710C48FEF7A3F80028A0
:102FC800F8D10A4D2846FEF755F9094C20802846C5
:102FD800FEF762FB00224FF400710348FEF771FD13
:102FE800208805B030BD00BF000C0140C802002099
:102FF8000C02002030B585B001224FF480711748CB
:10300800FEF75FFD012302930623039304A90C2313
:1030180041F80C3D124C2046FEF730F92046FEF7E9
:1030280059FB2046FEF706FA4FF47A710C48FEF772
:1030380069F80028F8D10A4D2846FEF71BF9094C13
:1030480060802846FEF728FB00224FF48071034871
:10305800FEF737FD608805B030BD00BF000C0140A9
:10306800C80200200C02002030B585B00122802162
:103078001648FEF726FD012302930623039304A9AD
:103088000B2341F80C3D124C2046FEF7F7F820467A
:10309800FEF720FB2046FEF7CDF94FF47A710C4875
:1030A800FEF730F80028F8D1094D2846FEF7E2F877
:1030B800084CA0802846FEF7EFFA0022802103483A
:1030C800FEF7FFFCA08805B030BD00BF000C014032
:1030D800C80200200C02002030B585B00122402132
:1030E8001648FEF7EEFC012302930623039304A976
:1030F8000A2341F80C3D124C2046FEF7BFF8204643
:10310800FEF7E8FA2046FEF795F94FF47A710C4875
:10311800FDF7F8FF0028F8D1094D2846FEF7AAF870
:10312800084CE0802846FEF7B7FA00224021034801
:10313800FEF7C7FCE08805B030BD00BF000C0140B9
:10314800C80200200C02002038B52D4C238863806B
:10315800FFF716FF20806388C01A0028B8BF4042D6
:10316800A080284D2B886B80FFF7B6FF28806B88DE
:10317800C31A002BB8BF5B42AB8023881844224A8D
:103188001388D288134498422ADB01221F4B1A73F2
:103198001D4B1B89B0EB430F26DB01221B4B5A73D7
:1031A8001B4C23886380FFF725FF20806388C31AA0
:1031B800A380154B5B8898421AD301222273154CC1
:1031C80023886380FFF750FF20806388C31AA38099
:1031D8000D4B9B8898420FD200220E4B1A7338BDB4
:1031E80000220A4B1A73D3E70022054B5A73D7E71C
:1031F8000022074B1A73E2E70122227338BD00BF91
:10320800640200203402002008000020240200206C
:10321800540200204402002038B5424B1B7A012B8F
:1032280000D038BD404B9888404B9A8990421DDBAE
:103238001946DB890A334B803D4B9B889A4219DC3F
:103248003A490A8A0A328A80374A1188374A5288A4
:10325800914213D3364C2588344CA488A5420DD30B
:10326800C01AFDF72FFD2F4B586020E02F4BD9894E
:103278005980E1E72D4A118A9180E5E7914209D802
:103288002B4A1188294A9288914203D80022254B5B
:103298005A600CE0264A1188244A9288914235D314
:1032A800C3EBC3735800FDF70DFD1E4B58601D4D51
:1032B80020496868FDF75AFD044628601E4BB3F99B
:1032C8000000FDF7FFFC2146FDF746FC1B4CFDF70F
:1032D8009DFE60602046FFF7B8FAE8B9114B1C68FC
:1032E800154BB3F90200FDF7EDFC2146FDF736FC5E
:1032F800134CFDF78BFE60602046FFF7A6FA002806
:103308008FD046210F4800F009F98AE74000FDF701
:10331800D9FC044B5860CAE741210A4800F0FEF87E
:10332800DCE700BF1802002054020020080000203B
:10333800440200200AD7A33B14020020D403002033
:1033480094030020B06900082DE9F04389B0334B9D
:103358009A6942F010029A619A6902F01002019289
:10336800019A9A6942F004029A619A6902F0040289
:103378000292029A9A6942F008029A619B6903F0E4
:1033880008030393039BDFF89C80002246F2C011D8
:103398004046FEF796FBDFF890900022032148464E
:1033A800FEF78FFB1E4D00224FF470712846FEF782
:1033B80088FB46F2C013049301270597002406945E
:1033C8000226079604A94046FEF776FA03230493DB
:1033D80005970694079604A94846FEF76DFA4FF438
:1033E800406304930594069404A94046FEF764FAE2
:1033F800202304930594069404A92846FEF75CFA52
:103408004FF47073049305970694079604A9284609
:10341800FEF752FA09B0BDE8F08300BF0010024081
:10342800000C0140001001400008014010B50D4C8F
:1034380000224FF400512046FEF743FB00224FF4D0
:1034480080412046FEF73DFBA4F5006400220121DF
:103458002046FEF736FB002202212046FEF731FB0C
:1034680010BD00BF0010014010B5044610B314F0A1
:10347800010F22D001224FF400511D48FEF721FB15
:1034880014F0020F20D001224FF480411848FEF7B3
:1034980018FB14F0040F1ED0012211461548FEF740
:1034A80010FB14F0080F1CD1002202211148FEF76E
:1034B80008FB10BDFFF7BAFFD9E700224FF400510F
:1034C8000B48FEF7FEFADBE700224FF4804108487C
:1034D800FEF7F7FADDE7002201210648FEF7F1FAC8
:1034E800DFE7012202210348FEF7EBFA10BD00BF17
:1034F800001001400008014008B5002211461C20B8
:10350800FEF770F91C20FEF79FF9002211461D20D6
:10351800FEF768F91D20FEF797F908BDFEE70000E1
:1035280000B597B002230C93012210921022119239
:103538001393002314934FF4601315930CA8FEF70C
:10354800DDFA50BB0F23079302210891002309934A
:103558004FF480620A920B9307A8FEF7F5FC00BBB4
:10356800022301934FF44043039301A8FEF7CEFDD5
:10357800D8B9FEF7A5FD0F4BA3FB00308009FEF775
:103588006FF90420FEF782F9002211464FF0FF3050
:10359800FEF728F917B05DF804FBAC210648FFF7E1
:1035A800BDFFBA210448FFF7B9FFC1210248FFF760
:1035B800B5FF00BFD34D6210C469000808B5FDF718
:1035C80069FDFFF7ADFFFFF7BFFEFFF73DFC00F019
:1035D80057FC00F085FB00F011FD00F0D1FCFFF76F
:1035E80063FC00F08DFCFFF787FF0848FEF774FFC7
:1035F8000748FEF771FF074B1B680021986801F028
:103608000DFA00F009F800F059F8FAE7D4030020A1
:10361800940300202000002010B50020FFF724FFAD
:103628004FF47A70FDF75AFD002417E02021214855
:10363800FEF740FA01282FD04FF400611E48FEF72C
:1036480039FA01282CD04FF480611B48FEF732FA72
:10365800012829D04FF4FA70FDF740FDE0B2FFF7DA
:1036680003FF20211348FEF725FA0028DED14FF486
:10367800006100F1804000F58830FEF71BFA002851
:10368800D4D14FF4806100F1804000F58830FEF716
:1036980011FA0028E5D0C9E7042CCDDC0134CBE7CA
:1036A800002CD0DB013CCEE74FF4FA70FDF716FD95
:1036B80060B210BD000C01400010014010B582B08E
:1036C800042825D8DFE800F003263A4E62004FF4BC
:1036D8007A70FDF703FD00F07BF80122354B1A7272
:1036E800002405E04FF4C851084600F01FF90134E2
:1036F800042CF7DD00242F4B1C7200F0B3F84FF4B4
:103708007A70FDF7EBFC224640212B48FEF7D9F9E9
:1037180002B010BD4FF47A70FDF7E0FC00F058F8E5
:1037280000F056F900F09EF84FF47A70FDF7D6FCD9
:10373800002240212048FEF7C4F9E9E74FF47A70E7
:10374800FDF7CCFC00F044F800F07CF900F08AF8B2
:103758004FF47A70FDF7C2FC002240211648FEF7AC
:10376800B0F9D5E74FF47A70FDF7B8FC00F030F8FF
:1037780000F068F900F076F84FF47A70FDF7AEFCC7
:10378800002240210C48FEF79CF9C1E74FF4806104
:103798000948FEF78FF90128BAD0084B1988084B59
:1037A8001A88084B1B88084800880090074801F0D1
:1037B8001DF9EBE718020020001001406402002008
:1037C800540200204402002034020020D46900087A
:1037D80008B51F4960230B6001234B6000238B60F1
:1037E8000B6108221B48FFF783F8E0B918496023EA
:1037F8000B6001234B6000238B600B610C22164881
:10380800FFF776F8A0B908211248FFF7EDF8A0B93C
:103818000C211148FFF7E8F8A0B9012240210F4810
:10382800FEF74FF908BD1D210D48FFF777FEDDE7CC
:1038380026210B48FFF772FEE5E72B210848FFF722
:103848006DFEE5E72F210648FFF768FEE5E700BFB4
:10385800F8020020D4030020940300200010014047
:10386800FC69000810B52C4960230B6000234B60ED
:103878008B600B6108222948FFF73AF870BB26498C
:1038880060230B6000234B608B600B610C22244883
:10389800FFF72EF838BB08212048FFF7C7F838BBD8
:1038A8000C211F48FFF7C2F838BB1C4800234360AF
:1038B800FEF7CBFF30BB1A4800234360FEF7C5FF75
:1038C80028BB184C002280212046FEF7FAF8002277
:1038D8004FF480712046FEF7F4F810BD3D211248E0
:1038E800FFF71CFECBE746210F48FFF717FED2E78C
:1038F8004B210D48FFF712FED2E74F210A48FFF788
:103908000DFED2E755210848FFF708FED3E75B21F3
:103918000548FFF703FED4E7F8020020D40300208F
:103928009403002000100140FC69000810B50C4603
:10393800214B18805980002827DD012280211F484B
:10394800FEF7BFF8002C26DD00224FF480711B48DB
:10395800FEF7B7F8184BB3F9003019484360FEF783
:1039680074FFF8B9144BB3F9023016484360FEF7F8
:103978006CFFE0B9144B00225A601A60124A1368AF
:1039880052681344DF2BF9DD10BD002280210B485B
:10399800FEF797F8D6E701224FF480710748FEF743
:1039A80090F8D7E77D210948FFF7B8FDDAE78321CA
:1039B8000648FFF7B3FDDDE71402002000100140C0
:1039C800D40300209403002074020020FC6900083E
:1039D80010B5174C012280212046FEF772F801220B
:1039E8004FF480712046FEF76CF812484FF4FA53F2
:1039F8004360FEF72AFF88B90F484FF4FA53436033
:103A0800FEF723FF78B90D4B00225A601A600B4A63
:103A18001368526813446F2BF9DD10BD92210848D2
:103A2800FFF77CFDE8E798210548FFF777FDEAE70F
:103A380000100140D40300209403002074020020E9
:103A4800FC69000810B5174C002280212046FEF7BB
:103A580038F800224FF480712046FEF732F81248F9
:103A68004FF4FA534360FEF7F0FE88B90F484FF45D
:103A7800FA534360FEF7E9FE78B90D4B00225A600D
:103A88001A600B4A1368526813446F2BF9DD10BD96
:103A9800A7210848FFF742FDE8E7AD210548FFF7F1
:103AA8003DFDEAE700100140D40300209403002004
:103AB80074020020FC69000800B583B0244B9A69A1
:103AC80042F001029A619A6902F001020092009A9A
:103AD800DA6942F08052DA61DB6903F080530193BE
:103AE800019B0320FDF76CFE002211466FF00B00CE
:103AF800FDF778FE002211466FF00A00FDF772FE0E
:103B0800002211466FF00900FDF76CFE00221146F5
:103B18006FF00400FDF766FE002211466FF0030007
:103B2800FDF760FE002211466FF00100FDF75AFE16
:103B3800002211464FF0FF30FDF754FE054A536846
:103B480023F0E06343F08063536003B05DF804FB47
:103B580000100240000001407047FEE7FEE7FEE764
:103B6800FEE770477047704708B5FDF7A5FAFDF7FF
:103B78009EFEFFF7E9FAFFF74FFB08BD08B50948B5
:103B8800FEF73FFD084B1B681BB10022064B1A606D
:103B980008BD0122044B1A60044A136801331360FC
:103BA80008BD00BFD40300207C020020740200205E
:103BB80008B50948FEF725FD084B5B681BB10022D4
:103BC800064B5A6008BD0122044B5A60044A136828
:103BD8000133136008BD00BF940300207C0200205D
:103BE8007402002000B583B002A901F8010D012379
:103BF8001A460348FFF7B7F803B05DF804FB00BFA7
:103C08001404002070B51646002405E04D1C087801
:103C1800FFF7E8FF01342946B442F7DB304670BDB0
:103C28000346064A126822B1044A10680344136026
:103C380070470349014A1160F6E700BF840200207B
:103C4800580400205822024B1A604FF0FF3070478A
:103C5800540400205822024B1A604FF0FF3070477E
:103C6800540400205822024B1A600020704700BFFD
:103C7800540400205822024B1A604FF0FF3070475E
:103C8800540400205822024B1A604FF0FF3070474E
:103C9800540400200F4B1A6842F001021A60596858
:103CA8000D4A0A405A601A6822F0847222F480325F
:103CB8001A601A6822F480221A605A6822F4FE02F6
:103CC8005A604FF41F029A604FF00062034B9A60EB
:103CD800704700BF001002400000FFF800ED00E050
:103CE80000B587B01748184B036000234360836012
:103CF800C36003618361FEF78FFD98B906A94FF48D
:103D0800805341F8103D0F48FEF7F2FB78B90023C5
:103D18000093019369460B48FEF7C0FE60B907B0EF
:103D28005DF804FB8A210948FFF7F8FBE6E79021D4
:103D38000648FFF7F3FBEAE797210448FFF7EEFB95
:103D4800EDE700BF14030020000800400C6A0008DB
:103D580084B00368B3F1804F07D0154A934210D05E
:103D6800144A934218D004B0704703F50433DA6953
:103D780042F00102DA61DB6903F001030193019B60
:103D8800F1E70D4BDA6942F00202DA61DB6903F010
:103D980002030293029BE6E7074BDA6942F0080246
:103DA800DA61DB6903F008030393039BDBE700BFD9
:103DB80000040040000C0040001002400268094B5B
:103DC8009A4200D0704782B003F50233DA6942F0B4
:103DD8000402DA61DB6903F004030193019B02B07A
:103DE800F0E700BF0008004000B585B00368B3F1F4
:103DF800804F08D01C4A934219D01C4A934228D0BD
:103E080005B05DF804FB4FF480630093022301932F
:103E1800039369461648FDF74FFD164A536823F485
:103E2800407343F0E06343F400735360E8E74FF4F2
:103E38000073009302230193039369460E48FDF72C
:103E48003BFD0C4A536843F0E06343F4406353601E
:103E5800D6E7082300930223019303936946074892
:103E6800FDF72AFDCCE700BF00040040000C00402D
:103E7800000C014000000140001001400008014012
:103E880000B58BB01C484FF08043036041F6FF0338
:103E98004360002383600922C26003618361FEF7E7
:103EA800D4FCC8B900230893099308A91248FEF75F
:103EB800F5FDB0B9602301930023029303930593A2
:103EC800082201A90C48FEF713FD78B90A48FFF744
:103ED8008BFF0BB05DF804FB42210848FFF71EFB7F
:103EE800E0E749210548FFF719FBE3E752210348BA
:103EF800FFF714FBEAE700BFD40300200C6A0008B0
:103F080000B58BB01B481C4B036041F6FF034360B0
:103F1800002383600922C26003618361FEF795FC78
:103F2800C8B900230893099308A91248FEF7B6FDFB
:103F3800B0B96023019300230293039305930C22E5
:103F480001A90C48FEF7D4FC78B90A48FFF74CFFE2
:103F58000BB05DF804FB66210848FFF7DFFAE0E7DD
:103F68006D210648FFF7DAFAE3E776210348FFF701
:103F7800D5FAEAE794030020000400400C6A000820
:103F880000B58BB01A481B4B036000234360836065
:103F9800C36003618361FEF758FCC8B90023089326
:103FA800099308A91248FEF779FDB0B96023019377
:103FB80000230293039305930C2201A90C48FEF7F2
:103FC80097FC78B90A48FFF70FFF0BB05DF804FBC0
:103FD800A9210948FFF7A2FAE0E7B0210648FFF750
:103FE8009DFAE3E7B9210448FFF798FAEAE700BF2A
:103FF80054030020000C00400C6A000808B50B4868
:104008000B4B03604FF41653436000238360C36077
:1040180003610C2242618361C361FEF775FE00B93A
:1040280008BD42210348FFF779FAF9E71404002094
:10403800003801401C6A00080268144B9A4200D0FC
:10404800704710B586B003F558439A6942F4804228
:104058009A619B6903F480430193019B4FF40073B9
:1040680002930223039303230593094C02A92046D4
:10407800FDF722FC4FF4806302930023039304931B
:1040880002A92046FDF718FC06B010BD0038014013
:1040980000080140002103E00B4B5B5843500431FA
:1040A8000A480B4B42189A42F6D30A4A02E0002308
:1040B80042F8043B084B9A42F9D3FFF7EBFD00F0B6
:1040C8000FF8FFF77BFA7047F86C00080000002033
:1040D800F0010020F001002058040020FEE7000055
:1040E80070B500250C4E0D4CA41BA410A54209D197
:1040F80002F026FC00250A4E0A4CA41BA410A54277
:1041080005D170BD56F8253098470135EEE756F8C9
:10411800253098470135F2E7F06C0008F06C00088C
:10412800F06C0008F46C0008002B2DE9F0471E46DF
:10413800BBBF03F100431E4600232D2388B0149F04
:10414800129927F02007462F1446109DDDF84CA041
:104158000B7004D0452F00D10135022300E0032362
:1041680007AA049206AA03928DE828042246334639
:1041780000F096FD472F804602D1119BDB0726D51C
:10418800462F08EB050911D198F80030302B0AD1D9
:104198000022002320463146FCF76AFC18B9C5F115
:1041A8000105CAF80050DAF80030994400220023CB
:1041B80020463146FCF75CFC38B93022079B99450C
:1041C80005D9591C07911A70F8E7CDF81C9040469C
:1041D800079B159AA3EB0803136008B0BDE8F087A6
:1041E8000346F7B5002903F8022BB6BF2D222B2270
:1041F80049420929427021DD0DF1070217460A26B6
:1042080091FBF6F506FB1511092D01F1300102F8B5
:10421800011C02F1FF34294609DC3031023A04F866
:10422800011CBA421C4604D3201A03B0F0BD224632
:10423800E6E712F8011B03F8011BF2E730221C46DF
:10424800114404F8022B5970EEE700002DE9F04FF5
:1042580091B00C461A9F93461E46054601F070FC25
:10426800036818460993FBF7DBFF00230E933B68AE
:104278000A90073323F0070303F1080294F8188023
:10428800D4F800A03A60D3E90023C4E91223D4F893
:104298004C90A76C29F000430B934FF0FF32A64BCC
:1042A80038460B99FCF716FC002840F0F7814FF0D0
:1042B800FF32A14B38460B99FCF7EEFB002840F083
:1042C800ED810022002338464946FCF7DBFB10B19C
:1042D8002D2384F84330994B994FB8F1470F98BF75
:1042E8001F4603234FF0000923612AF004032360CB
:1042F80000965B460FAA2146284600F0DFF90130F8
:1043080040F09A804FF0FF3011B0BDE8F08F62683E
:104318000EA8531C0DF1340E4AF4806341D10622D5
:10432800626000212360019363680DF133020590F8
:10433800029200933A464B460691CDF81080CDF88C
:104348000CE02846FFF7F0FE08F0DF03472B07468E
:1043580009D10D9BD81C02DB6268934259DDA8F194
:1043680002085FFA88F8B8F1650F0D9936D8013957
:10437800424604F150000D91FFF732FF0E9A814634
:104388008318012A236102DC2268D10701D5013391
:1043980023619DF83330002BAAD02D2384F84330B5
:1043A800A6E7B8F1670F02D0B8F1470FB9D19AB1B3
:1043B800002106910DF133018DE80C002360059072
:1043C8003A46CDF81080CDF80CE002914B462846CD
:1043D800FFF7AAFE0746BCE70122A1E7B8F1660F7E
:1043E80019D1002963680CDD216113B92268D2074D
:1043F80002D501330B4423610D9B4FF00009A365DF
:10440800C7E713B92268D00701D50233F3E70123C0
:10441800F1E74FF067080D9B0E9A934205DB22687F
:104428002361D107E8D50133E5E7002BCCBF012391
:10443800C3F102031344DEE723685A0507D423694E
:104448003A4659462846B04701302AD15AE7B8F1CA
:10445800650F40F2DC80D4E9120100220023FCF74A
:1044680007FB002839D00123364A59462846B04769
:1044780001303FF447AF0E9B0D9A9A4202DB236846
:10448800D8070ED50A9B099A59462846B0470130E5
:104498003FF438AF002704F11A080E9B013B9F42F6
:1044A80011DB23689F0708D5002704F11908E36882
:1044B8000F9A9B1A9F42C0F2E780E0680F9B9842D0
:1044C800B8BF184620E70123424659462846B04758
:1044D80001303FF417AF0137DFE70D9B002B33DCCA
:1044E8000123184A59462846B04701303FF40AAF1D
:1044F8000D9B23B90E9B13B92368D907D1D50A9B05
:10450800099A59462846B04701303FF4FBAE4FF0B0
:10451800000804F11A090D9B5B42984501DB0E9BCC
:104528008EE701234A4659462846B04701303FF4F2
:10453800E9AE08F10108EEE7FFFFEF7F306A0008F7
:10454800346A0008406A00080E9AA36D9A42A8BF10
:104558001A46002A904636DC4FF0000A04F11A0386
:1045680028EAE8780B93D4F85890A9EB08039A4501
:1045780031DB0E9B0D9A9A4238DB2368DA0735D473
:104588000E9B0D99A3EB0902A3EB01089045A8BF68
:104598009046B8F1000F31DC002728EAE87804F1EA
:1045A8001A090D9A0E9B9B1AA3EB08039F42BFF6AC
:1045B80078AF01234A4659462846B04701303FF4B0
:1045C800A1AE0137EDE7134659463A462846B047AB
:1045D8000130C1D196E601230B9A59462846B047C7
:1045E80001303FF48FAE0AF1010ABCE70A9B099A31
:1045F80059462846B0470130C2D183E6434607EB07
:10460800090259462846B0470130C5D17AE60E9AC4
:10461800012A01DCDB0734D501233A4659462846EE
:10462800B04701303FF46EAE0A9B099A59462846B6
:10463800B04701303FF466AED4E9120100220023EE
:10464800FCF716FA50B1002704F11A080E9B013B3B
:104658009F420CDB4B4604F15002F2E60E9B7A1C9B
:10466800013B59462846B0470130F3D14AE60123B9
:10467800424659462846B04701303FF443AE013719
:10468800E4E701233A46ECE7012342465946284627
:10469800B04701303FF436AE013708E73A464B469B
:1046A80038464946FCF716FA00283FF430AE014B6D
:1046B800014F12E6386A00083C6A00082DE9F04705
:1046C80091461F468A680B6906469342B8BF13464F
:1046D800C9F8003091F843200C46DDF8208012B16B
:1046E8000133C9F800302368990642BFD9F8003071
:1046F8000233C9F80030256815F0060507D104F122
:10470800190AE368D9F800209B1A9D422ADB94F81D
:1047180043302268003318BF012392062FD404F1D6
:10472800430239463046C047013022D02368E56845
:1047380003F00603042B18BF0025D9F800204FF01A
:10474800000908BFAD1AA368226908BF25EAE57504
:104758009342C4BF9B1AED181A344D451BD1002053
:10476800BDE8F0870123524639463046C04701303C
:1047780003D14FF0FF30BDE8F0870135C1E73020A5
:10478800E11881F843005A1C94F84510224402337A
:1047980082F84310C3E70123224639463046C04712
:1047A8000130E6D009F10109D7E700002DE9F0430F
:1047B80017460A7E85B06E2A984606460C460C9B1C
:1047C80001F1430E00F0BC801AD8632A2ED00AD813
:1047D800002A00F0C880582A00F08A8004F14205B7
:1047E80084F842202AE0642A01D0692AF6D1216897
:1047F8001A6811F0800F23D0111D1960136827E083
:10480800732A00F0B48008D86F2A2AD0702AE5D11C
:104818000A6842F020020A6003E0752A21D0782A4B
:10482800DCD178226F4984F8452064E01A6801F1E8
:104838004205111D1960136884F842300123A3E072
:1048480011F0400F02F104011960D7D0B2F900301D
:10485800002B03DA2D225B4284F8432062490A22A6
:1048680017E02068196810F0800F03D0081D186041
:104878000B6806E010F0400F01F104001860F7D053
:104888000B886F2A14BF0A2208225749002084F88F
:1048980043006568002DA560C0F29C80206820F068
:1048A80004002060002B3FD1002D40F09580754614
:1048B800082A0BD12368DA0708D5236962689A4267
:1048C800DEBF302305F8013C05F1FF35AEEB0503EB
:1048D8002361CDF800803B4603AA21463046FFF706
:1048E800EDFE013055D14FF0FF3005B0BDE8F08343
:1048F80081F845203C492268186812F0800F00F1C1
:1049080004051D6001D0036802E05506FBD5038845
:10491800D00744BF42F0200222601BB9226822F06F
:10492800200222601022B1E77546B3FBF2F002FBC9
:104938001033CB5C05F8013D03460028F5D1B7E7F5
:1049480008681A6810F0800F496904D0101D1860B3
:104958001368196007E010F0400F02F104001860B6
:104968001368F6D01980002375462361B1E71A68E9
:10497800111D1960156800216268284601F05AF96E
:1049880008B1401B606063682361002384F84330EA
:104998009FE723692A4639463046C0470130A2D0EE
:1049A80023689B0707D5002504F11909E368039AD2
:1049B8009B1A9D4205DBE068039B9842B8BF1846E6
:1049C80093E701234A4639463046C04701308AD02A
:1049D8000135EBE7002BA7D10B7804F1420584F8E9
:1049E800423065E7536A0008426A00080FB40A4B70
:1049F80013B51C6824B1A36913B9204601F016F851
:104A080005AB049AA1682046019301F0E5FC02B0C9
:104A1800BDE8104004B070472000002000294FF482
:104A280080630CBF0222002200F000B82DE9F74392
:104A38001D46514B04461E680F46904626B1B36981
:104A480013B9304600F0F2FF4C4B9C4252D17468C7
:104A5800B8F1020F06D0B8F1010F00F28980002DDD
:104A6800C0F286802146304600F076FF616B41B186
:104A780004F14403994202D0304601F0DBFB0023E5
:104A880063630023A3616360A3891B0603D52169BF
:104A9800304601F0CFFBA389B8F1020F23F44A6333
:104AA80023F00303A3815DD001AB6A46214630465B
:104AB80001F054F8A3891843A0812DBB009D284616
:104AC80001F0B0F8074600284ED1DDF80090A9455E
:104AD8003CD14FF0FF30A38943F00203A3810023A8
:104AE800A36004F14703236023610123636103B0DA
:104AF800BDE8F083224B9C4201D1B468A8E7214B62
:104B08009C4208BFF468A3E7002FD8D0B36913B953
:104B1800304600F08BFFB8F1010F08BFA38927606A
:104B280004BF43F00103A381A389276113F00800A0
:104B380065611BD013F001004FF000031FBF6D42E9
:104B4800A360A561184608BFA560D0E7484601F0F4
:104B580069F807460028BCD0A3894D4643F0800376
:104B6800A381D3E70020B6E7A946F5E7A060BEE732
:104B78004FF0FF30BBE700BF20000020946A000818
:104B8800B46A0008746A00082DE9F74F03690C69D4
:104B980080469C4200F38280013C01F1140700F139
:104BA800140657F8245056F824000135B0FBF5F5E3
:104BB8004FEA840E06EB0E0307EB0E0901938DB343
:104BC8004FF0000A3846B446D34650F8042B93B247
:104BD80005FB03A3120C4FEA134A05FB02A29BB282
:104BE800ABEB0303BCF800B04FEA124A5B441FFA70
:104BF80082FBDCF800208145CBEB124202EB23421A
:104C08009BB243EA02434FEA224B4CF8043BDCD206
:104C180056F80E3033B9019B043B9E421A4631D3F5
:104C2800C8F81040404601F02EFA002826DB30462E
:104C38004FF0000E013557F8041BD0F800C08BB2B6
:104C4800AEEB03031FFA8CF213440A0CC2EB1C42AE
:104C580002EB23429BB243EA0243B9454FEA224E94
:104C680040F8043BE7D256F8242006EB84032AB91F
:104C7800043B9E421A460BD3C8F81040284603B09E
:104C8800BDE8F08F1268043B002AC9D1013CC4E793
:104C98001268043B002AEFD1013CEAE70020EEE766
:104CA8002DE9F04F466A95B00446219DCDE90223CF
:104CB8003EB9102000F0B6FF60624660866006606C
:104CC800C660636A196851B15A68012393404A6003
:104CD8008B60204601F003F80022636A1A60039B88
:104CE800002BB7BF012300232B60039BAEBF2B60B3
:104CF80023F000430393DDF80C90AB4B33EA090330
:104D08001BD142F20F73209A1360029B23B9C9F397
:104D18001300002800F08385229B53B9A34B21E0A0
:104D2800A34B06930833229A1360069815B0BDE882
:104D3800F08F9E4B06930333F5E7DDE90267002207
:104D4800002330463946FBF793FE804660B10123C5
:104D5800209A1360229B002B00F05E85954B229AC7
:104D68001360013B0693E0E712AB019313AB00938A
:104D780032463B46204601F0FFF9C9F30A55824600
:104D8800002D7DD03046C7F3130343F07F5141F423
:104D98004011A5F2FF35CDF840800022864BFBF785
:104DA8004BFA7BA3D3E90023FBF7FAFB7AA3D3E9F9
:104DB8000023FBF743FA064628460F46FBF78AFB13
:104DC80077A3D3E90023FBF7EBFB02460B463046FB
:104DD8003946FBF733FA06460F46FBF791FE0022E9
:104DE8008346002330463946FBF74CFE58B15846F7
:104DF800FBF770FB02460B4630463946FBF738FE98
:104E080008B90BF1FF3BBBF1160F58D8DDE90223B7
:104E18006A4901EBCB01D1E90001FBF751FE0028FB
:104E28004FD000230BF1FF3B0D93129B5D1B6B1EB4
:104E3800079343BF0023C5F1010807934FF000080B
:104E4800BBF1000F3FDB079BCDF830B05B44079305
:104E5800002308931E9B092B00F2B480052BC4BFC6
:104E6800043B1E931E9BC8BF0026A3F10203D8BFB4
:104E78000126032B00F2B280DFE803F084862D7848
:104E8800139B129D1D4405F23243202B11DD029A1B
:104E980005F21240C3F1400322FA00F009FA03F3C5
:104EA8001843FBF707FB0123A1F1F871013D1093AB
:104EB80073E7C3F12000029B03FA00F0F1E7012336
:104EC800B2E70D90B1E7CBF1000308930023A8EBFC
:104ED8000B080C93BEE7012309931F9B002B40F39B
:104EE80080809946049300220421656A6A6001F172
:104EF80014029A427AD96968204600F0BCFE636AB7
:104F080028601B68B9F10E0F069300F2F080002E9E
:104F180000F0ED80DDE90223BBF1000FCDE90E239F
:104F280079DD264A0BF00F034FEA2B1602EBC30379
:104F3800F006D3E90023CDE90A235CD5DDE90E01AB
:104F48001F4B0325D3E90823FBF754FCCDE90201E5
:104F580006F00F061A4F002E4FD1DDE90A23DDE9CE
:104F68000201FBF747FCCDE902016EE0012309933A
:104F78001F9B5B4403F1010904934B46012BB8BF07
:104F88000123B0E70023A7E70023F0E7AFF3008091
:104F980061436F63A787D23FB3C8608B288AC63F37
:104FA800FB799F501344D33F0000F07F6D6A0008DF
:104FB800646A0008416A00080000F83F006B0008B6
:104FC800D86A00080126002309961E934FF0FF3384
:104FD80000220493994612231F9284E70123099320
:104FE800F4E70123049399461A46F5E76A684900ED
:104FF80001326A607BE70225ACE7F10708D5DDE9F5
:105008000A01D7E90023FBF7CBFACDE90A010135FC
:10501800761008379FE700F0A580DDE90E01CBF197
:105028000006A24B06F00F0203EBC203D3E90023EC
:10503800FBF7B6FA02250023CDE902019C4F361191
:10504800002E40F08480002B8DD10D9B002B00F0AA
:105058008B80DDE90223CDE90A23DDE90A0100227C
:10506800944BFBF70FFD00287ED0B9F1000F7BD0E1
:10507800049B002B37DDDDE90A0100228E4BFBF78C
:105088008FFACDE90201049E0BF1FF37013528465E
:10509800FBF720FADDE90223FBF782FA874B0022AF
:1050A800FBF7CCF8CDE90A010B9BA3F150750B95E2
:1050B800002E5CD1DDE902010022814BFBF7BCF830
:1050C8000A9A2B46CDE90201FBF7FAFC002840F0CA
:1050D800F782DDE902010A9A05F10043FBF7D2FCE9
:1050E800002840F0EB82DDE90E23CDE90223139B73
:1050F800002BC0F25081BBF10E0F00F34C816B4BBB
:1051080003EBCB03D3E90023CDE904231F9B002B3A
:1051180080F2DA80B9F1000F00F3D68040F0CD823A
:10512800DDE904010022664BFBF73AFADDE90223C8
:10513800FBF7BCFC4E464F46002840F0A482069B75
:10514800069A5D1C31230BF1010B13709FE2F207E5
:1051580005D5D7E90023FBF723FA0123013576109B
:1051680008376DE7022570E75F464E468FE7069AD7
:105178004E4B32441192099A711E002A48D003EB13
:10518800C103D3E9002300204E49FBF733FBDDE9D7
:105198000A23FBF751F8CDE90A01069DDDE9020172
:1051A800FBF7AEFC0646FBF795F902460B46DDE930
:1051B8000201FBF741F8DDE90A23303605F8016BF7
:1051C800CDE90201FBF75EFC002864D1DDE902238A
:1051D80000203849FBF730F8DDE90A23FBF752FCD9
:1051E800002840F0B980119B9D423FF47CAFDDE977
:1051F8000A010022304BFBF7D3F90022CDE90A015E
:10520800DDE902012C4BFBF7CBF9CDE90201C5E73B
:1052180003EBC101D1E90001DDE90A23FBF7C0F97D
:10522800CDE90A01069DDDE90201FBF769FC0646A6
:10523800FBF750F902460B46DDE90201FAF7FCFFDD
:105248003036119B05F8016BAB42CDE902014FF0F6
:10525800000224D11B4BDDE90A01FAF7EFFF0246F1
:105268000B46DDE90201FBF72BFC002874D1DDE9D0
:105278000A2300201349FAF7DFFF02460B46DDE94F
:105288000201FBF7FFFB00283FF42DAF15F8013CA6
:105298006A1E302B01D0BB464DE01546F6E7064B9B
:1052A800FBF77EF9CDE90201BDE700BF006B0008FE
:1052B800D86A00080000F03F0000244000001C40AD
:1052C800000014400000E03F069DDDE90267DDE9CB
:1052D800042330463946FBF78DFAFBF711FC80466C
:1052E800FBF7F8F8DDE90423FBF75AF902460B4609
:1052F80030463946FAF7A0FF08F1300605F8016B89
:10530800069E0246AE1BB1450B4637D1FAF796FF0B
:1053180006460F4602460B46DDE90401FBF7B2FBE1
:10532800C8B9DDE9040132463B46FBF7A1FB10B1E1
:1053380018F0010F0FD15146204600F0D0FC002391
:10534800209A2B700BF101031360229B002B3FF472
:10535800ECAC1D60E9E45F4615F8012C6B1E392A98
:1053680006D1069A9A4207D13023137013460137A3
:105378001A7801321A708EE71D46EDE70022B54B08
:10538800FBF70EF90022002306460F46FBF770FBD9
:1053980000289CD0CFE7099A002A00F029811E9A9C
:1053A800012A00F30E81109A002A00F0068103F208
:1053B80033434546089E079A01211A4420469844DB
:1053C800079200F02CFD0746002D0BDD079B002BF4
:1053D80008DDAB42A8BF2B46079AA8EB0308ED1AD5
:1053E800D31A0793089BFBB1099B002B00F004819B
:1053F800002E11DD39463246204600F0A5FD524602
:1054080001460746204600F013FD51460A90204603
:1054180000F065FC0A9B9A46089B9A1B04D05146EB
:10542800204600F091FD82460121204600F0F7FC5D
:105438000C9B0646002B40F3E1801A4601462046A5
:1054480000F082FD1E9B0646012B40F3DA80002304
:105458000893336906EB8303186900F092FCC0F1E6
:105468002000079B184410F01F0000F0F080C0F1E6
:105478002003042B40F3E280079BC0F11C0080440A
:10548800054403440793B8F1000F05DD5146424631
:10549800204600F0A7FD8246079B002B05DD31461C
:1054A8001A46204600F09EFD06460D9B002B00F094
:1054B800D3803146504600F0E6FD002880F2CC80CB
:1054C800002351460A22204600F020FC099B0BF1DC
:1054D800FF3B8246002B00F0A981002339460A22AF
:1054E800204600F013FC049B0746002B03DC1E9BA0
:1054F800022B00F3B980002D05DD39462A462046E7
:1055080000F070FD0746089B002B00F010817968B9
:10551800204600F0B0FB05463A6907F10C0102325B
:1055280092000C3000F094FB01222946204600F03E
:1055380059FD07970746029BDDF8188003F0010321
:10554800089331465046FFF71FFB0799054600F1BF
:105558003009504600F097FD3A4602903146204601
:1055680000F0ABFDC3680246002B40F0E280014624
:105578000990504600F087FD0346099A11462046D7
:10558800099300F0ACFB099B002B40F0D4801E9AD5
:10559800002A40F0D080089A002A40F0CC80B9F167
:1055A800390F00F0E880029B002B01DD05F131097D
:1055B80008F1010588F800906BE0129BC3F13603EF
:1055C800F7E6089B09F1FF36B342B7BF089B9E1B5D
:1055D800F21A0C9BBFBF08969B180C930026B9F1D2
:1055E800000FB9BFA8EB0905002345464B46E2E684
:1055F800089E4546099FE7E6089A10E71E9B012B7F
:1056080018DC029BB3B9039BC3F31303A3B9039B31
:1056180023F000431B0D1B052BB1079B08F1010864
:1056280001330793012308930C9B002B7FF411AFE0
:10563800012016E70023F6E7029BF4E73FF423AFC7
:10564800079A1C331A4498441D4413461AE7034624
:10565800F6E700BF00002440B9F1000F33DC1E9BC1
:10566800022B30DDCDF81090049B63B9314605223A
:10567800204600F04BFB01460646504600F003FD6D
:1056880000283FF75CAD1F9B069D6FEA030B0023C4
:1056980007933146204600F022FB002F3FF44BAE23
:1056A800079B2BB1BB4203D01946204600F017FBDD
:1056B8003946204600F013FB3DE600263746E2E770
:1056C800BB4637463BE5099BCDF81090002B7FF48D
:1056D80012AF069D31465046FFF756FA069B00F179
:1056E800300905F8019B049AEB1A9A4200F381806D
:1056F800069B012AACBF9B180133984600230793E9
:1057080051460122204600F06DFC3146824600F0E9
:10571800BAFC002834DC02D119F0010F30D145461B
:1057280015F8013C6A1E302BB3D11546F8E7384608
:10573800FFE6012322E7029A002A04DB28D11E9AF9
:1057480032BB089A22BB002B7FF732AF51460122A9
:10575800204600F047FC3146824600F094FC0028C1
:1057680005DC7FF425AF19F0010F3FF421AFB9F143
:10577800390F7FF41BAF392308F1010808F8013C01
:10578800454615F8013C6A1E392B3AD001333FE0F3
:10579800002B08F1010505DDB9F1390FEBD009F14E
:1057A800010907E7069B049AEB1A9342A84605F8F5
:1057B800019CA5D0514600230A22204600F0A6FAF3
:1057C800079B8246BB424FF00A024FF0000307993D
:1057D800204604D100F09AFA07900746B1E600F097
:1057E80095FA002307900A223946204600F08EFADF
:1057F800F3E7514600230A22204600F087FA824642
:1058080068E7069B934205D13123069A0BF1010BF9
:1058180013703EE71546B4E7094BFFF7A3BA229B7E
:10582800002B7FF47DAA074BFFF79CBA049B002B43
:105838003FF74FAF1E9B022B7FF74BAF14E700BF1C
:10584800406A0008646A00088A892DE9F041054623
:1058580010070C465AD44B68002B05DC0B6C002B48
:1058680002DC0020BDE8F081E66A002EF9D00023B2
:1058780012F480522F682B6033D0606DA3895A07C9
:1058880005D56368C01A636B0BB1236CC01A00237B
:105898000246E66A216A2846B047431CA38906D116
:1058A80029681D294BD82B4ACA40D60747D500225C
:1058B80062602269D904226004D5421C01D12B6898
:1058C80003B96065616B2F600029CAD004F14403F5
:1058D800994202D0284600F0ADFC00206063BDE884
:1058E800F081216A01232846B047411CC6D12B68A4
:1058F800002BC3D01D2B01D0162B01D12F60B0E790
:10590800A38943F04003A381BDE8F0810F69002F0C
:10591800A7D0930718BF00230E6808BF4B69A6EBF2
:1059280007080F608B60B8F1000F9ADD43463A46CE
:10593800216A2846A66AB047002807DCA38943F0F5
:105948004003A3814FF0FF30BDE8F0810744A8EB86
:105958000008E8E70100402038B50B6905460C4609
:10596800DBB118B183690BB900F060F80C4B9C42AD
:1059780009D16C68B4F90C307BB121462846BDE8E2
:105988003840FFF761BF074B9C4201D1AC68F1E793
:10599800054B9C4208BFEC68ECE7002038BD00BF0F
:1059A800946A0008B46A0008746A0008014900F0A3
:1059B800A9B800BF61590008002310B50446036068
:1059C8004360836081814366C2810361436183616F
:1059D800194608225C3000F046F9054B24626362E0
:1059E800044BA362044BE362044B236310BD00BF66
:1059F8002D6600084F66000887660008AB66000839
:105A080070B568254A1E55430E4605F1740100F02D
:105A18005DFC044640B1002180E842000C30A060E3
:105A280005F1680200F01FF9204670BD836910B5C2
:105A3800044633BB8364C3640365124B124A1B6874
:105A48008262984204BF0123836100F01FF86060FE
:105A5800204600F01BF8A060204600F017F800224E
:105A6800E06004216068FFF7A7FF01220921A06810
:105A7800FFF7A2FF02221221E068FFF79DFF012332
:105A8800A36110BD2C6A0008B5590008F8B51C4B75
:105A980007461E68B36913B93046FFF7C7FF483693
:105AA800B4687368013B03D5336833B13668F7E7E8
:105AB800B4F90C506DB16834F4E704213846FFF7A7
:105AC8009FFF30600028F1D10C2304463B6020463C
