:020000040800F2
:100000000000012059200008BD1C0008BF1C00088A
:10001000C11C0008C31C0008C51C0008000000002B
:10002000000000000000000000000000C71C0008E5
:10003000C91C000800000000CB1C0008CD1C0008F3
:10004000A1200008A1200008A1200008A12000088C
:10005000A1200008A1200008A1200008A12000087C
:10006000A1200008A1200008A1200008A12000086C
:10007000A1200008A1200008A1200008A12000085C
:10008000A1200008A1200008A1200008A12000084C
:10009000A1200008A1200008A1200008A12000083C
:1000A000A1200008A1200008A1200008A12000082C
:1000B000A1200008A1200008A1200008A12000081C
:1000C000A1200008A1200008A1200008A12000080C
:1000D000A1200008A1200008A1200008A1200008FC
:1000E000A1200008A1200008A1200008A1200008EC
:1000F000A1200008A1200008A1200008A1200008DC
:10010000A1200008A1200008A1200008A1200008CB
:10011000A1200008A1200008A1200008A1200008BB
:10012000A1200008A1200008A1200008A1200008AB
:1001300000000000000000000000000000000000BF
:1001400000000000000000000000000000000000AF
:10015000000000000000000000000000000000009F
:10016000000000000000000000000000000000008F
:10017000000000000000000000000000000000007F
:10018000000000000000000000000000000000006F
:10019000000000000000000000000000000000005F
:1001A000000000000000000000000000000000004F
:1001B000000000000000000000000000000000003F
:1001C000000000000000000000000000000000002F
:1001D000000000000000000000000000000000001F
:0401E0005FF8E0F1F3
:1001E40010B5054C237833B9044B13B10448AFF36D
:1001F40000800123237010BD0C00002000000000CB
:10020400EC20000808B5034B1BB103490348AFF3C6
:10021400008008BD0000000010000020EC20000851
:1002240010B504460E4B18784FF47A73B3FBF0F311
:100234000C4A1068B0FBF3F000F0EAF968B90F2C2F
:1002440001D9012010BD002221464FF0FF3000F0FB
:10025400ADF9034B5C60002010BD012010BD00BF50
:10026400000000200800002008B5074A136843F086
:1002740010031360032000F087F90020FFF7D0FF7C
:1002840001F0CAFC002008BD00200240034A1168A6
:10029400034B1B780B441360704700BF28000020F9
:1002A40000000020014B1868704700BF28000020A0
:1002B40038B50446FFF7F6FF0546B4F1FF3F02D018
:1002C400044B1B781C44FFF7EDFF401B8442FAD813
:1002D40038BD00BF0000002030B482B00023019379
:1002E40090F82430012B00F08B800246012380F823
:1002F40024304B68062B29D80568686B03EB83030D
:10030400053B1F249C4020EA04000C6804FA03F314
:1003140003436B630B68092B38D91568E86803EB52
:1003240043031E3B07249C4020EA04008C6804FA23
:1003340003F30343EB600B68103B012B34D900201B
:10034400002382F8243002B030BC70470C2B0ED846
:100354000568286B03EB8303233B1F249C4020EA9E
:1003640004000C6804FA03F303432B63D2E7056823
:10037400E86A03EB8303413B1F249C4020EA04000A
:100384000C6804FA03F30343EB62C3E715682869B6
:1003940003EB430307249C4020EA04008C6804FA1E
:1003A40003F303432B61C6E713681648834205D061
:1003B400936A43F0200393620120C1E7986810F424
:1003C400000F1BD1986840F4000098600B68102B54
:1003D40001D00020B4E70C4B1B680C49A1FB0313AC
:1003E4009B0C03EB83035900019102E0019B013B49
:1003F4000193019B002BF9D10020A1E700209FE786
:100404000220A0E7002401400800002083DE1B43F3
:1004140038B503689A6812F0010F01D1002038BD85
:1004240004469A6822F001029A60FFF73BFF0546F2
:1004340023689B6813F0010F0ED0FFF733FF401BB6
:100444000228F5D9A36A43F01003A362E36A43F0D8
:100454000103E362012038BD002038BD002800F00C
:100464008A8070B50446836A002B4DD02046FFF77E
:10047400CFFFA36A13F0100377D1002875D1A26AC5
:1004840022F4885222F0020242F00202A26265685B
:1004940021683A4A91423DD0E2692A43E66842EA39
:1004A4004602A568B5F5807F3ED0012D39D0656937
:1004B400012D3CD04D6825F469452B434B602168E0
:1004C4008D682F4B2B4013438B60A368B3F5807F5B
:1004D4003ED0012B3CD000232568E96A21F4700149
:1004E4000B43EB6223689968264B0B409A4233D046
:1004F400A36A23F0120343F01003A362E36A43F0F8
:100504000103E362012070BDC36280F8243001F06E
:10051400A9F8ABE7E269B2F5402FBED14FF400224F
:10052400BBE74FF48073C2E74FF48073BFE736B97B
:10053400A569013D43EA453343F40063BAE7A56A7C
:1005440045F02005A562E56A45F00105E562B1E7DD
:100554002369013B1B05BFE70023E362A36A23F081
:10056400030343F00103A36270BDA36A43F01003C5
:10057400A362012070BD0120704700BF003C014010
:10058400FDF7E1FFFE0E1FFF074AD36823F4E06383
:100594001B041B0C000200F4E060184340F0BF6031
:1005A40040F40030D060704700ED00E030B4164BEA
:1005B400DB68C3F30223C3F10704042C28BF04241B
:1005C4001D1D062D17D9033B012505FA04F4013C32
:1005D4002140994005FA03F3013B134019430028D5
:1005E4000BDB0901C9B200F1604000F5614080F8FD
:1005F400001330BC70470023E6E700F00F00090148
:10060400C9B2024B1954F4E700ED00E014ED00E028
:100614000138B0F1807F0AD2064B5860F021064AB7
:1006240082F823100020986007221A607047012086
:10063400704700BF10E000E000ED00E0042805D0A2
:10064400054A136823F0040313607047024A1368D1
:1006540043F004031360704710E000E0704708B5EE
:10066400FFF7FCFF08BD0000F0B583B00026344658
:1006740079E0002D00F0A980012D00D1CE68FF2B78
:1006840000F2B7808646FF2B00F2B680A500DEF8A4
:1006940000200F27AF4022EA070206FA05F52A4395
:1006A400CEF800204A6812F0805F5BD0674A9569F3
:1006B40045F001059561926902F001020192019AE7
:1006C400A208971C624D55F8275004F003074FEA1F
:1006D400870E0F2707FA0EF725EA07055D4FB84284
:1006E40000F0908007F58067B84200F08D8007F530
:1006F4008067B84200F08A8007F58067B84200F04E
:10070400878007F58067B84200F0848007F580672A
:10071400B84275D0062707FA0EF73D4302324C4F14
:1007240047F822504A6812F4803F75D04A4D2A682F
:100734001A432A604A6812F4003F73D0464D6A682F
:100744001A436A604A6812F4801F71D0424DAA6845
:100754001A43AA604A6812F4001F6FD03E4DEA683B
:100764001343EB6001340F2C6ED80122A2400B68B6
:1007740013409A42F6D14D68122D30D00BD8022D79
:100784002AD07FF676AF032D2FD0112D7FF477AFCB
:10079400CE68043673E7314FBD4216D00CD9304FC2
:1007A400BD4212D007F58037BD420ED0A7F58017A1
:1007B400BD427FF464AF08E0A7F58017BD4204D0C2
:1007C40007F58037BD427FF45AAF8D687DB1012DA6
:1007D40008D04261082652E7CE6808364FE7CE6853
:1007E4000C364CE70261082649E7002647E7042651
:1007F40045E700F1040E46E7A4F10805AD0046E71D
:10080400052788E7002786E7012784E7022782E790
:10081400032780E704277EE70F4D2A6822EA0302B4
:100824002A6087E70C4D6A6822EA03026A6089E756
:10083400094DAA6822EA0302AA608BE7064DEA681A
:1008440022EA0303EB608DE703B0F0BD0010024021
:100854000000014000080140000401400000211094
:10086400000031108368194201D100207047012033
:10087400704712B9090401617047016170470000B3
:1008840082B0084B1B68084AA2FB03235B0A00FBE7
:1008940003F0019000BF019B5A1E0192002BF9D175
:1008A40002B0704708000020D34D621070B582B0CA
:1008B4000446036813F0010F3DD0AC4B5B6803F0B2
:1008C4000C03042B2ED0A94B5B6803F00C03082BFC
:1008D40023D06368B3F5803F51D0002B55D103F189
:1008E400804303F504331A6822F480321A601A68CC
:1008F40022F480221A606368002B60D0FFF7D2FCD8
:1009040005469A4B1B6813F4003F14D1FFF7CAFC49
:10091400401B6428F5D90320AFE1944B5B6813F4C2
:10092400803FD6D0914B1B6813F4003F03D063681B
:10093400002B00F09F81236813F0020F65D08B4BCE
:100944005B6813F00C0F4ED0884B5B6803F00C030C
:10095400082B43D02369002B79D00122844B1A60E1
:10096400FFF7A0FC0546814B1B6813F0020F65D10D
:10097400FFF798FC401B0228F5D903207DE17B4A50
:10098400136843F480331360B5E7B3F5A02F09D09F
:10099400764B1A6822F480321A601A6822F4802294
:1009A4001A60A8E703F18043A3F53C331A6842F4C4
:1009B40080221A601A6842F480321A609BE7FFF7BB
:1009C40071FC0546694B1B6813F4003FB3D0FFF775
:1009D40069FC401B6428F5D903204EE1634B5B6836
:1009E40013F4803FB6D1614B1B6813F0020F04D09F
:1009F4002369012B01D001203FE15C4A136823F0F5
:100A0400F803616943EAC1031360236813F0080F14
:100A140032D0A369002B6ED00122564B1A60FFF727
:100A240041FC0546514B5B6A13F0020F21D1FFF7DD
:100A340039FC401B0228F5D903201EE14B4A1368F8
:100A440023F0F803616943EAC1031360DDE7002280
:100A5400474B1A60FFF726FC0546444B1B6813F00E
:100A6400020FD2D0FFF71EFC401B0228F5D9032049
:100A740003E10120FFF704FF236813F0040F00F0E3
:100A840099803A4BDB6913F0805F46D1374BDA69C2
:100A940042F08052DA61DB6903F080530193019BD9
:100AA4000125354B1B6813F4807F38D0E368012B94
:100AB40049D0002B4DD103F1804303F504331A6A66
:100AC40022F001021A621A6A22F004021A62E3682E
:100AD400002B5DD0FFF7E6FB0646244B1B6A13F0A0
:100AE400020F66D1FFF7DEFB801B41F28833984288
:100AF400F3D90320C1E000221E4B1A60FFF7D2FB9A
:100B040005461A4B5B6A13F0020FB5D0FFF7CAFB18
:100B1400401B0228F5D90320AFE00025C1E7164A9F
:100B2400136843F480731360FFF7BCFB0646124B53
:100B34001B6813F4807FB9D1FFF7B4FB801B6428D2
:100B4400F5D9032099E0094A136A43F001031362BB
:100B5400BDE7052B12D0054B1A6A22F001021A6276
:100B64001A6A22F004021A62B1E700BF00100240C0
:100B7400000042428004424200700040414B1A6A25
:100B840042F004021A621A6A42F001021A629EE7F3
:100B9400FFF788FB06463B4B1B6A13F0020F08D095
:100BA400FFF780FB801B41F288339842F3D903207E
:100BB40063E0E5B9E369002B5ED0324A526802F083
:100BC4000C02082A5BD0022B17D000222E4B1A608D
:100BD400FFF768FB04462B4B1B6813F0007F47D0DC
:100BE400FFF760FB001B0228F5D9032045E0254AE6
:100BF400D36923F08053D361DCE70022224B1A60CF
:100C0400FFF750FB05461F4B1B6813F0007F06D00F
:100C1400FFF748FB401B0228F5D903202DE0236A87
:100C2400B3F5803F1AD017494B6823F47413226A32
:100C3400606A024313434B600122134B1A60FFF7AF
:100C440031FB04460F4B1B6813F0007F0ED1FFF7F6
:100C540029FB001B0228F5D903200EE0094A53683A
:100C640023F40033A1680B435360DCE7002004E065
:100C7400002002E0012000E0002002B070BD01204D
:100C8400FBE700BF001002406000424210B586B08E
:100C9400154C94E80F000DF1180E0EE90F00238A8D
:100CA400ADF80430114B5B6803F00C02082A18D12C
:100CB400C3F38342724412F8102C13F4803F03D11F
:100CC4000B4800FB02F00DE0084B5B68C3F34043A4
:100CD400734413F8143C074800FB02F0B0FBF3F034
:100CE40000E0044806B010BD0421000800100240D2
:100CF40000093D0000127A00594B1B6803F00703FA
:100D04008B420CD2564A136823F007030B4313603B
:100D1400136803F00703994201D00120704770B5AE
:100D2400036813F0020F06D04E4A536823F0F00311
:100D34008468234353600D460446036813F0010F8F
:100D440052D04368012B23D0022B28D0454A126885
:100D540012F0020F00F0828042494A6822F0030236
:100D640013434B60FFF79EFA06466368012B1DD0C0
:100D7400022B2AD03B4B5B6813F00C0F34D0FFF7E7
:100D840091FA801B41F288339842F3D9032070BD55
:100D9400344A126812F4003FDED1012070BD314A9A
:100DA400126812F0007FD7D1012070BD2D4B5B6813
:100DB40003F00C03042B17D0FFF774FA801B41F2E5
:100DC40088339842F2D9032070BD264B5B6803F048
:100DD4000C03082B08D0FFF765FA801B41F2883317
:100DE4009842F2D9032070BD1D4B1B6803F0070322
:100DF4009D420CD21A4A136823F007032B43136055
:100E0400136803F007039D4201D0012070BD2368DD
:100E140013F0040F06D0134A536823F4E063E16827
:100E24000B435360236813F0080F07D00D4A53682F
:100E340023F46053216943EAC1035360FFF726FF9B
:100E4400084B5B68C3F30313074AD35CD840074BD2
:100E540018600020FFF7E4F9002070BD012070BD88
:100E64000020024000100240182100080800002061
:100E7400014B1868704700BF0800002070B582B0AD
:100E84000446036813F0010F34D03E4BDB6913F0C2
:100E9400805F48D13B4BDA6942F08052DA61DB690A
:100EA40003F080530193019B0125374B1B6813F416
:100EB400807F3AD0334B1B6A13F4407311D06268BD
:100EC40002F4407293420CD02E4A136A23F4407009
:100ED4002E4901260E6000260E60106213F0010FE9
:100EE40037D1284A136A23F4407361680B431362B1
:100EF400002D3FD1236813F0020F06D0214A536816
:100F040023F44043A1680B435360236813F0100F8C
:100F140035D01C4A536823F4800361690B43536042
:100F2400002002B070BD0025BFE7174A136843F4E0
:100F340080731360FFF7B6F90646134B1B6813F46E
:100F4400807FB7D1FFF7AEF9801B6428F5D9032061
:100F5400E7E7FFF7A7F906460A4B1B6A13F0020FEF
:100F6400BFD1FFF79FF9801B41F288339842F3D930
:100F74000320D6E7D36923F08053D361BAE7002076
:100F8400CFE700BF0010024000700040400442421E
:100F940030B4036A23F001030362036A446882697C
:100FA40022F073020D682A4323F002038D682B4359
:100FB400114DA84211D005F50065A8420DD00E4D83
:100FC400A84211D005F50065A8420DD044608261A5
:100FD4004A684263036230BC704723F00803CD685B
:100FE4002B4323F00403EAE724F440744D692C43B3
:100FF4008D692C43EAE700BF002C014030B4036A3A
:1010040023F480730362036A4468C26922F07302A2
:101014000D682A4323F400738D6843EA0523134DB6
:10102400A84211D005F50065A8420DD00F4DA84285
:1010340012D005F50065A8420ED04460C2614A682A
:10104400C263036230BC704723F40063CD6843EA93
:10105400052323F48063E9E724F440544D6944EA0A
:1010640005148D6944EA0514E7E700BF002C01402C
:1010740030B4036A23F480530362036A4468C26988
:1010840022F4E6420D6842EA052223F400538D68F7
:1010940043EA0533094DA8420AD005F50065A84284
:1010A40006D04460C2614A680264036230BC70477F
:1010B40024F480444D6944EA8514F2E7002C01408D
:1010C40010B4036A046A24F001040462846924F0FD
:1010D400F00444EA021223F00A030B438261036220
:1010E40010BC704710B4036A23F0100303628469D0
:1010F400036A24F4704444EA023223F0A00343EA6E
:1011040001138261036210BC7047836823F070038B
:1011140041F007010B438360704710B4846824F4E2
:101124007F4442EA032319430C43846010BC704794
:1011340090F83C30012B7DD010B50446012380F893
:101144003C30022380F83D300268936823F47F43E7
:1011540023F0770393600B68402B57D010D9702B82
:101164003ED01FD8502B47D0602B32D1CA68496873
:101174000068FFF7B7FF60212068FFF7C6FF28E08B
:10118400102B4DD008D9202B4FD0302B21D130211A
:101194000068FFF7BAFF1CE0DBB900210068FFF725
:1011A400B4FF16E0B3F5805F0ED0B3F5005F10D145
:1011B400CB684A6889680068FFF7AFFF22689368C4
:1011C40043F48043936004E00268936823F00703C8
:1011D4009360012384F83D30002084F83C0010BD66
:1011E400CB684A6889680068FFF797FF22689368AC
:1011F40043F077039360ECE7CA6849680068FFF737
:101204005FFF50212068FFF780FFE2E7CA68496862
:101214000068FFF755FF40212068FFF776FFD8E705
:1012240010210068FFF771FFD3E720210068FFF762
:101234006CFFCEE7022070470368254A904212D023
:1012440002F5006290420ED0B0F1804F0BD0A2F5AF
:101254009832904207D002F58062904203D002F5A2
:101264008062904203D123F070034A681343184A02
:10127400904212D002F5006290420ED0B0F1804F3D
:101284000BD0A2F59832904207D002F580629042CA
:1012940003D002F58062904203D123F44073CA68FC
:1012A400134323F080034A69134303608B68C362CA
:1012B4000B688362064B984206D003F5006398429C
:1012C40002D00123436170470B690363F9E700BF50
:1012D400002C0140A8B110B5044690F83D305BB134
:1012E400022384F83D30211D2068FFF7A5FF012368
:1012F40084F83D30002010BD80F83C3000F07EFDC5
:10130400EEE701207047A8B110B5044690F83D30CF
:101314005BB1022384F83D30211D2068FFF78CFF68
:10132400012384F83D30002010BD80F83C3000F0EB
:101334002FFDEEE70120704730B4036A23F0100359
:101344000362036A4468826922F4E6420D6842EA51
:10135400052223F020038D6843EA0513124DA842A9
:1013640011D005F50065A8420DD00F4DA84212D04A
:1013740005F50065A8420ED0446082614A68826324
:10138400036230BC704723F08003CD6843EA051341
:1013940023F04003E9E724F440644D6944EA8504FA
:1013A4008D6944EA8504E7E7002C014038B590F8DC
:1013B4003C30012B66D00D460446012380F83C30B6
:1013C400022380F83D300C2A1AD8DFE802F007190E
:1013D4001919201919193419191947000068FFF748
:1013E400D7FD2268936943F00803936122689369E7
:1013F40023F0040393612268936929690B43936181
:10140400012384F83D30002084F83C0038BD006896
:10141400FFF792FF2268936943F4006393612268A3
:10142400936923F48063936122689369296943EA89
:1014340001239361E4E70068FFF7E0FD2268D369C4
:1014440043F00803D3612268D36923F00403D36112
:101454002268D36929690B43D361D1E70068FFF798
:1014640007FE2268D36943F40063D3612268D36919
:1014740023F48063D3612268D369296943EA012391
:10148400D361BDE7022038BD10B4012303FA01F48F
:10149400036A23EA04030362036A8A401343036270
:1014A40010BC704710B5044601220068FFF7ECFF3A
:1014B40023680C4A934212D002F5006293420CD086
:1014C40000221AB15A6C42F400425A64226813682A
:1014D40043F001031360002010BD0122F1E7012253
:1014E400EFE700BF002C014010B50446002200685D
:1014F400FFF7CAFF2368174A934229D002F5006216
:10150400934223D000226AB1196A41F211121142A6
:1015140008D1196A40F24442114203D15A6C22F4B0
:1015240000425A642368196A41F21112114208D127
:10153400196A40F24442114203D11A6822F00102AE
:101544001A60012384F83D30002010BD0122DAE73F
:101554000122D8E7002C014090F83C30012B25D023
:10156400012380F83C30CB6823F440738A6813432A
:1015740023F480634A68134323F400630A68134323
:1015840023F480530A69134323F400534A69134331
:1015940023F480438A69134323F40043134302680A
:1015A4005364002380F83C3018467047022070478B
:1015B40090F83C30012B22D030B4012280F83C203A
:1015C400022380F83D300468636823F0700363608D
:1015D400046863680D682B4363600468A36823F0A0
:1015E4008003A3600468A36849680B43A36080F880
:1015F4003D20002380F83C30184630BC7047022060
:101604007047000000B585B01348144B03600023F5
:101614008360C36043614FF46022C261436001236D
:101624000361FEF71BFF68B90A23019301230293A8
:101634000023039301A90848FEF74EFE38B905B00C
:101644005DF804FB4321064800F008F9ECE74D215E
:10165400034800F003F9F2E72C00002000240140C5
:101664003021000802680E4B9A4200D0704700B542
:1016740087B003F56C439A6942F400729A619B69DE
:1016840003F400730193019B0F2302930323039339
:1016940002A90448FEF7E8FF07B05DF804FB00BFA9
:1016A40000240140001001402DE9F04188B0394B7D
:1016B4009A6942F010029A619A6902F0100200924B
:1016C400009A9A6942F020029A619A6902F0200213
:1016D4000192019A9A6942F004029A619A6902F0AD
:1016E40004020292029A9A6942F008029A619B6982
:1016F40003F008030393039B274E002246F2C01114
:101704003046FFF7B6F8254D002213212846FFF78F
:10171400B0F846F2C01304934FF00108CDF81480DA
:10172400002406940227079704A93046FEF79CFF7D
:1017340013230493CDF814800694079704A928462C
:10174400FEF792FF4FF40073049305970323079366
:1017540004A92846FEF788FF4FF480630493059498
:10176400069404A92846FEF77FFF4FF440630493D0
:101774000594069404A93046FEF776FF4FF4787377
:1017840004930594069404A90548FEF76DFF08B078
:10179400BDE8F08100100240001001400008014043
:1017A400000C014010B50D4C00224FF400512046AE
:1017B400FFF75FF800224FF480412046FFF759F805
:1017C400A4F50064002201212046FFF752F800220C
:1017D40002212046FFF74DF810BD00BF0010014064
:1017E40010B50446F8B114F0010F1FD001224FF4D4
:1017F40000511848FFF73DF814F0020F1DD00122E4
:101804004FF480411348FFF734F8002201211248B5
:10181400FFF72FF814F0080F16D1002202210E480A
:10182400FFF727F810BDFFF7BDFFDCE700224FF4F8
:1018340000510848FFF71DF8DEE700224FF480410D
:101844000448FFF716F8E0E7012202210248FFF7F7
:1018540010F810BD0010014000080140FEE7000030
:1018640000B597B002230C9301221092102211921A
:101874001393002314934FF4601315930CA8FFF7EC
:1018840015F850BB0F2307930221089100230993F5
:101894004FF480620A920B9307A8FFF72DFA00BB5E
:1018A400022301934FF44043039301A8FFF7E6FAA0
:1018B400D8B9FFF7DDFA0F4BA3FB00308009FEF720
:1018C400A7FE0420FEF7BAFE002211464FF0FF30B7
:1018D400FEF76CFE17B05DF804FB91210648FFF794
:1018E400BDFF9F210448FFF7B9FFA6210248FFF777
:1018F400B5FF00BFD34D62104021000808B5FEF7C4
:10190400B3FCFFF7ADFFFFF7CFFEFFF77BFE00F060
:10191400CFFA00F005FA00F009FB00F045FB00F0F7
:1019240003F800F053F8FAE710B50020FFF758FF6A
:101934004FF47A70FEF7BCFC002416E02021214805
:10194400FEF790FF01282ED04FF400611E48FEF7E9
:1019540089FF01282DD04FF480611B48FEF782FFD8
:1019640001282CD0C820FEF7A3FCE0B2FFF738FF13
:1019740020211448FEF776FF0028DFD14FF40061E0
:1019840000F1804000F58830FEF76CFF0028D5D1C7
:101994004FF4806100F1804000F58830FEF762FF6B
:1019A4000028E5D0CAE7012C01DD0024CCE701348E
:1019B400CAE7002C01DB013CCDE70124CBE760B290
:1019C40010BD00BF000C01400010014008B510B16B
:1019D400012812D008BD00F023F800F0A3F84FF45A
:1019E400C851084600F0DAF84FF47A70FEF760FC4C
:1019F40000F0A2F800F056F808BD00F011F800F06D
:101A040091F80648014600F0C9F84FF47A70FEF7E1
:101A14004FFC00F091F800F045F808BD00E7FFFF27
:101A240008B51C4960230B6001234B6000238B60C5
:101A34000B6108221848FFF7B9FCB8B915496023AF
:101A44000B6001234B6000238B600B610C22134855
:101A5400FFF7ACFC78B908210F48FFF723FD78B9EC
:101A64000C210E48FFF71EFD78B908BD1A210C4859
:101A7400FFF7F4FEE2E723210948FFF7EFFEEAE768
:101A840028210748FFF7EAFEEAE72C210448FFF77C
:101A9400E5FEEAE75C000020380100207800002021
:101AA4005021000808B51B4960230B6000234B60DC
:101AB4008B600B6108221848FFF778FCB0B9154910
:101AC40060230B6000234B608B600B610C22134876
:101AD400FFF76CFC78B908210F48FFF705FD78B9CA
:101AE4000C210E48FFF700FD78B908BD38210C48D9
:101AF400FFF7B4FEE3E741210948FFF7AFFEEAE749
:101B040046210748FFF7AAFEEAE74A210448FFF7FF
:101B1400A5FEEAE75C0000203801002078000020E0
:101B24005021000808B5012240210248FEF7A1FE19
:101B340008BD00BF0010014010B5144800234360E5
:101B4400FFF7E1FBB8B9124800234360FFF7DBFB62
:101B5400B0B9104C002240212046FEF78AFE002234
:101B640080212046FEF785FE00224FF48071204636
:101B7400FEF77FFE10BD58210748FFF76FFEE2E72E
:101B84005E210548FFF76AFEE3E700BF3801002045
:101B940078000020001001405021000838B50C46A0
:101BA400051E17DD012280211748FEF762FE002C76
:101BB40017DD00224FF480711348FEF75AFE1348D4
:101BC4004560FFF7A0FBA0B911484460FFF79BFBF9
:101BD400A0B938BD002280210B48FEF74AFE6D42B1
:101BE400E5E701224FF480710748FEF742FE6442A4
:101BF400E5E77E210748FFF731FEE5E78421054844
:101C0400FFF72CFEE5E700BF00100140380100207B
:101C1400780000205021000800B583B0244B9A6955
:101C240042F001029A619A6902F001020092009A5C
:101C3400DA6942F08052DA61DB6903F08053019380
:101C4400019B0320FEF7A0FC002211466FF00B005D
:101C5400FEF7ACFC002211466FF00A00FEF7A6FC6A
:101C6400002211466FF00900FEF7A0FC0022114685
:101C74006FF00400FEF79AFC002211466FF0030097
:101C8400FEF794FC002211466FF00100FEF78EFC73
:101C9400002211464FF0FF30FEF788FC054A5368D6
:101CA40023F0E06343F00073536003B05DF804FB7A
:101CB40000100240000001407047FEE7FEE7FEE727
:101CC400FEE770477047704708B5FEF7DFFAFEF786
:101CD400C6FC08BD0F4B1A6842F001021A6059682D
:101CE4000D4A0A405A601A6822F0847222F4803243
:101CF4001A601A6822F480221A605A6822F4FE02DA
:101D04005A604FF41F029A604FF00062034B9A60CE
:101D1400704700BF001002400000FFF800ED00E033
:101D240000B587B01748184B0360002343608360F5
:101D3400C36003618361FFF7CDFA98B906A94FF434
:101D4400805341F8103D0F48FFF7F2F978B90023AA
:101D54000093019369460B48FFF72AFC60B907B06A
:101D64005DF804FB66210948FFF778FDE6E76C217E
:101D74000648FFF773FDEAE773210448FFF76EFD99
:101D8400EDE700BFB8000020000800406021000813
:101D940084B00368B3F1804F07D0154A934210D042
:101DA400144A934218D004B0704703F50433DA6937
:101DB40042F00102DA61DB6903F001030193019B44
:101DC400F1E70D4BDA6942F00802DA61DB6903F0EE
:101DD40008030293029BE6E7074B9A6942F4005218
:101DE4009A619B6903F400530393039BDBE700BFF1
:101DF400000C004000340140001002400268094B0E
:101E04009A4200D0704782B003F50233DA6942F097
:101E14000402DA61DB6903F004030193019B02B05D
:101E2400F0E700BF0008004000B585B00368B3F1D7
:101E3400804F08D0184A934219D0184A934220D0B0
:101E440005B05DF804FB4FF4806300930223019313
:101E5400039369461248FEF707FC124A536823F4B9
:101E6400407343F0E06343F400735360E8E70823EE
:101E7400009302230193039369460B48FEF7F4FB96
:101E8400DEE74FF400730093022301930393694642
:101E94000648FEF7E9FBD3E7000C0040003401409C
:101EA400000C014000000140000801400010014006
:101EB40000B58BB01B484FF08043036000234360A0
:101EC40083600C22C26003618361FFF71CFAC8B906
:101ED40000230893099308A91248FFF769FBB0B9D6
:101EE400602301930023029303930593082201A91D
:101EF4000C48FFF75BFA78B90A48FFF795FF0BB077
:101F04005DF804FB42210848FFF7A8FCE0E74921FB
:101F14000548FFF7A3FCE3E752210348FFF79EFCC3
:101F2400EAE700BF380100206021000800B58BB04B
:101F34001A481B4B0360002343608360C360036142
:101F44008361FFF7E0F9C8B900230893099308A94E
:101F54001248FFF72DFBB0B96023019300230293CD
:101F6400039305930C2201A90C48FFF71FFA78B9D3
:101F74000A48FFF759FF0BB05DF804FB85210948B7
:101F8400FFF76CFCE0E78C210648FFF767FCE3E70A
:101F940095210448FFF762FCEAE700BFF80000203F
:101FA400000C00406021000800B591B02648274B82
:101FB40003600023436083600C22C26003614361B9
:101FC4008361FFF7A0F900282AD100230E930F9311
:101FD4000EA91D48FFF7ECFA38BB602307930023D2
:101FE400089309930B930C930D930C2207A916489D
:101FF400FFF7DCF9F0B900230093019302930393F4
:1020040004934FF400520592069369460E48FFF775
:10201400A3FAA0B90C48FFF707FF11B05DF804FB61
:10202400AB210B48FFF71AFCCFE7B2210848FFF7B2
:1020340015FCD2E7BD210648FFF710FCDBE7C921F8
:102044000348FFF70BFCE5E778000020003401406B
:1020540060210008002103E00B4B5B58435004311E
:102064000A480B4B42189A42F6D30A4A02E000236C
:1020740042F8043B084B9A42F9D3FFF72BFE00F0D9
:102084000FF8FFF73BFC70477821000800000020A0
:102094000C0000200C00002078010020FEE7000066
:1020A40070B500250C4E0D4CA41BA410A54209D1FB
:1020B40000F01AF800250A4E0A4CA41BA410A542ED
:1020C40005D170BD56F8253098470135EEE756F82E
:1020D400253098470135F2E7702100087021000887
:1020E4007021000874210008F8B500BFF8BC08BCD2
:1020F4009E467047F8B500BFF8BC08BC9E467047C2
:1021040002030405060708090A0B0C0D0E0F101034
:1021140001020000000000000000000001020304AE
:102124000607080900000000010203042E2E5C5378
:1021340072635C6164632E63000000002E2E5C53A6
:1021440072635C6D61696E2E630000002E2E5C5319
:1021540072635C6D6F74696F6E2E63002E2E5C5318
:0C21640072635C74696D2E630000000063
:042170000902000858
:04217400E501000879
:0C217800010000001000000000A24A045A
:040000050800205976
:00000001FF
