:020000040800F2
:10000000000001207D2600087D2000087F200008D8
:1000100081200008832000088520000800000000DF
:100020000000000000000000000000008720000821
:1000300089200008000000008B2000088D200008A7
:10004000C5260008C5260008C5260008C5260008E4
:10005000C5260008C5260008C5260008C5260008D4
:10006000C5260008C5260008C5260008C5260008C4
:10007000C5260008C5260008C5260008C5260008B4
:10008000C5260008C5260008C5260008C5260008A4
:10009000C5260008C5260008C5260008C526000894
:1000A000C5260008C5260008C5260008C526000884
:1000B000C5260008C5260008C5260008C526000874
:1000C000C5260008C5260008C5260008C526000864
:1000D000C5260008C5260008C5260008C526000854
:1000E000C5260008C5260008C5260008C526000844
:1000F000C5260008C5260008C5260008C526000834
:10010000C5260008C5260008C5260008C526000823
:10011000C5260008C5260008C5260008C526000813
:10012000C5260008C5260008C5260008C526000803
:1001300000000000000000000000000000000000BF
:1001400000000000000000000000000000000000AF
:10015000000000000000000000000000000000009F
:10016000000000000000000000000000000000008F
:10017000000000000000000000000000000000007F
:10018000000000000000000000000000000000006F
:10019000000000000000000000000000000000005F
:1001A000000000000000000000000000000000004F
:1001B000000000000000000000000000000000003F
:1001C000000000000000000000000000000000002F
:1001D000000000000000000000000000000000001F
:0401E0005FF8E0F1F3
:1001E40010B5054C237833B9044B13B10448AFF36D
:1001F40000800123237010BD78000020000000005F
:10020400A436000808B5034B1BB103490348AFF3F8
:10021400008008BD000000007C000020A436000817
:1002240010B504460E4B18784FF47A73B3FBF0F311
:100234000C4A1068B0FBF3F000F066FB68B90F2CB1
:1002440001D9012010BD002221464FF0FF3000F0FB
:1002540029FB034B5C60002010BD012010BD00BFD2
:10026400000000201000002008B5074A136843F07E
:1002740010031360032000F003FB0020FFF7D0FFFE
:1002840001F0AAFE002008BD00200240034A1168C4
:10029400034B1B780B441360704700BFA40000207D
:1002A40000000020014B1868704700BFA400002024
:1002B400F0B583B005460C4600230193FFF7F2FF27
:1002C4002B689A6812F4807F23D106465A6812F488
:1002D400807F03D1DB6A13F4700F24D04B4B1F686B
:1002E400022000F0E9FFB7FBF0F72B681969484AD0
:1002F40011422FD1D96802F15C4211422AD1196905
:10030400444A114239D1DA68434B1A4237D0292082
:100314003AE0AB6A43F02003AB62002385F8243053
:10032400012003B0F0BD2B681B6813F0020F48D105
:10033400B4F1FF3FF7D024B1FFF7B4FF801B844230
:10034400F1D2AB6A43F00403AB62002385F8243096
:100354000320E6E719692F4A114204D1D96802F152
:100364006E4211420DD019692C4A0A405AB9DA6812
:100374002A4B13405BB1FC2006E0292004E0142042
:1003840002E0542000E0FC2007FB00F704E05420C6
:10039400FAE7019B01330193019B9F4211D9B4F108
:1003A400FF3FF6D024B1FFF77DFF801B8442F0D2DB
:1003B400AB6A43F00403AB62002385F824300320C6
:1003C400AFE72B686FF012021A60AB6A43F4007354
:1003D400AB622B689B6803F46023B3F5602F01D0F4
:1003E40000209EE7EB686BB9AB6A23F48073AB62C1
:1003F400AB6A13F4805F07D1AB6A43F00103AB62CD
:1004040000208EE700208CE700208AE710000020FF
:1004140024499224922449129224490049922400A6
:100424000368D86C7047000030B482B00023019395
:1004340090F82430012B00F08B800246012380F8D1
:1004440024304B68062B29D80568686B03EB8303BB
:10045400053B1F249C4020EA04000C6804FA03F3C3
:1004640003436B630B68092B38D91568E86803EB01
:1004740043031E3B07249C4020EA04008C6804FAD2
:1004840003F30343EB600B68103B012B34D90020CA
:10049400002382F8243002B030BC70470C2B0ED8F5
:1004A4000568286B03EB8303233B1F249C4020EA4D
:1004B40004000C6804FA03F303432B63D2E70568D2
:1004C400E86A03EB8303413B1F249C4020EA0400B9
:1004D4000C6804FA03F30343EB62C3E71568286965
:1004E40003EB430307249C4020EA04008C6804FACD
:1004F40003F303432B61C6E713681648834205D010
:10050400936A43F0200393620120C1E7986810F4D2
:10051400000F1BD1986840F4000098600B68102B02
:1005240001D00020B4E70C4B1B680C49A1FB03135A
:100534009B0C03EB83035900019102E0019B013BF7
:100544000193019B002BF9D10020A1E700209FE734
:100554000220A0E7002401401000002083DE1B439A
:1005640030B583B00023019303689A6812F0010F39
:100574002ED19A6842F001029A60174B1B68174A01
:10058400A2FB03239B0C019302E0019B013B01931B
:10059400019B002BF9D10446FFF784FE054623682E
:1005A4009B6813F0010F11D1FFF77CFE401B02285A
:1005B400F5D9A36A43F01003A362E36A43F001038D
:1005C400E362002384F82430012002E0002000E0EC
:1005D400002003B030BD00BF1000002083DE1B43A9
:1005E40090F82430012B02D102231846704710B52D
:1005F4000446012380F82430FFF7B2FF03460028A5
:100604005BD1A26A22F4407222F0010242F48072A9
:10061400A26222682B498A4227D0A16A21F4801160
:10062400A162516811F4806F05D0A16A21F4405190
:1006340041F48051A162A16A11F4805F2BD0E16A78
:1006440021F00601E162002184F824106FF0020118
:1006540011602268916801F46021B1F5602F1DD00A
:10066400916841F4801191602AE0A1F580614968A4
:1006740011F4702FD1D0A16A41F48011A162124902
:10068400496811F4806FD6D0A16A21F4405141F435
:100694008051A162CFE70021E162D4E709498A428F
:1006A40004D0916841F4A001916009E0A1F5806152
:1006B400496811F4702FD3D1F3E7002284F8242081
:1006C400184610BD002801400024014038B50368D5
:1006D4009A6812F0010F01D1002038BD04469A68CF
:1006E40022F001029A60FFF7DDFD054623689B684E
:1006F40013F0010F0ED0FFF7D5FD401B0228F5D9EA
:10070400A36A43F01003A362E36A43F00103E362C4
:10071400012038BD002038BD002800F08A8070B563
:100724000446836A002B4DD02046FFF7CFFFA36A0F
:1007340013F0100377D1002875D1A26A22F48852ED
:1007440022F0020242F00202A262656821683A4A7B
:1007540091423DD0E2692A43E66842EA4602A5682E
:10076400B5F5807F3ED0012D39D06569012D3CD08F
:100774004D6825F469452B434B6021688D682F4BE8
:100784002B4013438B60A368B3F5807F3ED0012BCD
:100794003CD000232568E96A21F470010B43EB6225
:1007A40023689968264B0B409A4233D0A36A23F0FE
:1007B400120343F01003A362E36A43F00103E3620C
:1007C400012070BDC36280F8243001F0E7FAABE782
:1007D400E269B2F5402FBED14FF40022BBE74FF4DB
:1007E4008073C2E74FF48073BFE736B9A569013D52
:1007F40043EA453343F40063BAE7A56A45F02005AC
:10080400A562E56A45F00105E562B1E72369013BAC
:100814001B05BFE70023E362A36A23F0030343F04D
:100824000103A36270BDA36A43F01003A362012015
:1008340070BD0120704700BF003C0140FDF7E1FF9F
:10084400FE0E1FFF90F82430012B02D1022318461C
:10085400704710B50446012380F82430FFF736FFB3
:10086400034638B9A26A22F4885222F0010242F007
:100874000102A262002284F82420184610BD000060
:10088400074AD36823F4E0631B041B0C000200F442
:10089400E060184340F0BF6040F40030D06070471F
:1008A40000ED00E030B4164BDB68C3F30223C3F160
:1008B4000704042C28BF04241D1D062D17D9033B4F
:1008C400012505FA04F4013C2140994005FA03F39B
:1008D400013B1340194300280BDB0901C9B200F1A5
:1008E400604000F5614080F8001330BC704700237D
:1008F400E6E700F00F000901C9B2024B1954F4E70E
:1009040000ED00E014ED00E00138B0F1807F0AD280
:10091400064B5860F021064A82F8231000209860A4
:1009240007221A6070470120704700BF10E000E002
:1009340000ED00E0042805D0054A136823F0040301
:1009440013607047024A136843F00403136070474E
:1009540010E000E0704708B5FFF7FCFF08BD000099
:10096400F0B583B00026344679E0002D00F0A9806C
:10097400012D00D1CE68FF2B00F2B7808646FF2BF5
:1009840000F2B680A500DEF800200F27AF4022EA6F
:10099400070206FA05F52A43CEF800204A6812F049
:1009A400805F5BD0674A956945F00105956192695E
:1009B40002F001020192019AA208971C624D55F8B7
:1009C400275004F003074FEA870E0F2707FA0EF7A4
:1009D40025EA07055D4FB84200F0908007F580676F
:1009E400B84200F08D8007F58067B84200F08A8035
:1009F40007F58067B84200F0878007F58067B84242
:100A040000F0848007F58067B84275D0062707FA9E
:100A14000EF73D4302324C4F47F822504A6812F415
:100A2400803F75D04A4D2A681A432A604A6812F4F6
:100A3400003F73D0464D6A681A436A604A6812F4EC
:100A4400801F71D0424DAA681A43AA604A6812F402
:100A5400001F6FD03E4DEA681343EB6001340F2C46
:100A64006ED80122A2400B6813409A42F6D14D6819
:100A7400122D30D00BD8022D2AD07FF676AF032D5D
:100A84002FD0112D7FF477AFCE68043673E7314F42
:100A9400BD4216D00CD9304FBD4212D007F5803775
:100AA400BD420ED0A7F58017BD427FF464AF08E0C5
:100AB400A7F58017BD4204D007F58037BD427FF407
:100AC4005AAF8D687DB1012D08D04261082652E7E6
:100AD400CE6808364FE7CE680C364CE7026108262C
:100AE40049E7002647E7042645E700F1040E46E7F8
:100AF400A4F10805AD0046E7052788E7002786E747
:100B0400012784E7022782E7032780E704277EE79B
:100B14000F4D2A6822EA03022A6087E70C4D6A68AF
:100B240022EA03026A6089E7094DAA6822EA0302FD
:100B3400AA608BE7064DEA6822EA0303EB608DE7BF
:100B440003B0F0BD00100240000001400008014065
:100B540000040140000021100000311012B9090402
:100B6400016170470161704782B0084B1B68084AF5
:100B7400A2FB03235B0A00FB03F0019000BF019B6F
:100B84005A1E0192002BF9D102B0704710000020C8
:100B9400D34D621070B582B00446036813F0010FA0
:100BA4003DD0AC4B5B6803F00C03042B2ED0A94B57
:100BB4005B6803F00C03082B23D06368B3F5803F14
:100BC40051D0002B55D103F1804303F504331A6847
:100BD40022F480321A601A6822F480221A60636850
:100BE400002B60D0FFF75EFB05469A4B1B6813F49D
:100BF400003F14D1FFF756FB401B6428F5D90320AE
:100C0400AFE1944B5B6813F4803FD6D0914B1B68E3
:100C140013F4003F03D06368002B00F09F81236826
:100C240013F0020F65D08B4B5B6813F00C0F4ED0A2
:100C3400884B5B6803F00C03082B43D02369002B1B
:100C440079D00122844B1A60FFF72CFB0546814BB7
:100C54001B6813F0020F65D1FFF724FB401B022829
:100C6400F5D903207DE17B4A136843F48033136094
:100C7400B5E7B3F5A02F09D0764B1A6822F4803279
:100C84001A601A6822F480221A60A8E703F18043EC
:100C9400A3F53C331A6842F480221A601A6842F4BD
:100CA40080321A609BE7FFF7FDFA0546694B1B6823
:100CB40013F4003FB3D0FFF7F5FA401B6428F5D9CD
:100CC40003204EE1634B5B6813F4803FB6D1614B64
:100CD4001B6813F0020F04D02369012B01D00120FB
:100CE4003FE15C4A136823F0F803616943EAC103F6
:100CF4001360236813F0080F32D0A369002B6ED061
:100D04000122564B1A60FFF7CDFA0546514B5B6A38
:100D140013F0020F21D1FFF7C5FA401B0228F5D9C1
:100D240003201EE14B4A136823F0F803616943EA88
:100D3400C1031360DDE70022474B1A60FFF7B2FAE4
:100D44000546444B1B6813F0020FD2D0FFF7AAFAF2
:100D5400401B0228F5D9032003E10120FFF704FF1B
:100D6400236813F0040F00F099803A4BDB6913F009
:100D7400805F46D1374BDA6942F08052DA61DB6931
:100D840003F080530193019B0125354B1B6813F439
:100D9400807F38D0E368012B49D0002B4DD103F17B
:100DA400804303F504331A6A22F001021A621A6AB4
:100DB40022F004021A62E368002B5DD0FFF772FA96
:100DC4000646244B1B6A13F0020F66D1FFF76AFA3A
:100DD400801B41F288339842F3D90320C1E00022FA
:100DE4001E4B1A60FFF75EFA05461A4B5B6A13F056
:100DF400020FB5D0FFF756FA401B0228F5D903209D
:100E0400AFE00025C1E7164A136843F4807313600A
:100E1400FFF748FA0646124B1B6813F4807FB9D1DA
:100E2400FFF740FA801B6428F5D9032099E0094AAA
:100E3400136A43F001031362BDE7052B12D0054B7F
:100E44001A6A22F001021A621A6A22F004021A6271
:100E5400B1E700BF00100240000042428004424259
:100E640000700040414B1A6A42F004021A621A6A86
:100E740042F001021A629EE7FFF714FA06463B4B62
:100E84001B6A13F0020F08D0FFF70CFA801B41F223
:100E940088339842F3D9032063E0E5B9E369002B72
:100EA4005ED0324A526802F00C02082A5BD0022B50
:100EB40017D000222E4B1A60FFF7F4F904462B4B8F
:100EC4001B6813F0007F47D0FFF7ECF9001B0228E2
:100ED400F5D9032045E0254AD36923F08053D36133
:100EE400DCE70022224B1A60FFF7DCF905461F4BB2
:100EF4001B6813F0007F06D0FFF7D4F9401B0228CB
:100F0400F5D903202DE0236AB3F5803F1AD01749A1
:100F14004B6823F47413226A606A024313434B60E0
:100F24000122134B1A60FFF7BDF904460F4B1B68EF
:100F340013F0007F0ED1FFF7B5F9001B0228F5D995
:100F440003200EE0094A536823F40033A1680B43DD
:100F54005360DCE7002004E0002002E0012000E010
:100F6400002002B070BD0120FBE700BF001002406A
:100F74006000424210B586B0154C94E80F000DF1A4
:100F8400180E0EE90F00238AADF80430114B5B688C
:100F940003F00C02082A18D1C3F38342724412F8F6
:100FA400102C13F4803F03D10B4800FB02F00DE03A
:100FB400084B5B68C3F34043734413F8143C07487D
:100FC40000FB02F0B0FBF3F000E0044806B010BDF3
:100FD400BC3600080010024000093D0000127A00EF
:100FE400594B1B6803F007038B420CD2564A136813
:100FF40023F007030B431360136803F007039942BC
:1010040001D00120704770B5036813F0020F06D0B9
:101014004E4A536823F0F0038468234353600D461B
:101024000446036813F0010F52D04368012B23D008
:10103400022B28D0454A126812F0020F00F0828079
:1010440042494A6822F0030213434B60FFF72AF92E
:1010540006466368012B1DD0022B2AD03B4B5B68EC
:1010640013F00C0F34D0FFF71DF9801B41F28833C5
:101074009842F3D9032070BD344A126812F4003F39
:10108400DED1012070BD314A126812F0007FD7D141
:10109400012070BD2D4B5B6803F00C03042B17D0AB
:1010A400FFF700F9801B41F288339842F2D90320FC
:1010B40070BD264B5B6803F00C03082B08D0FFF7C8
:1010C400F1F8801B41F288339842F2D9032070BDB5
:1010D4001D4B1B6803F007039D420CD21A4A136888
:1010E40023F007032B431360136803F007039D42A7
:1010F40001D0012070BD236813F0040F06D0134AF9
:10110400536823F4E063E1680B435360236813F0EE
:10111400080F07D00D4A536823F46053216943EA4A
:10112400C1035360FFF726FF084B5B68C3F3031347
:10113400074AD35CD840074B18600020FFF770F8CB
:10114400002070BD012070BD00200240001002404C
:10115400E436000810000020014B1868704700BFF7
:101164001000002008B5FFF7F7FF044B5B68C3F3DA
:101174000223034AD35CD84008BD00BF00100240DC
:10118400F436000808B5FFF7E7FF044B5B68C3F3C8
:10119400C223034AD35CD84008BD00BF00100240FC
:1011A400F436000870B582B00446036813F0010FEA
:1011B40034D03E4BDB6913F0805F48D13B4BDA6996
:1011C40042F08052DA61DB6903F080530193019BA2
:1011D4000125374B1B6813F4807F3AD0334B1B6ACD
:1011E40013F4407311D0626802F4407293420CD03D
:1011F4002E4A136A23F440702E4901260E600026FD
:101204000E60106213F0010F37D1284A136A23F4D9
:10121400407361680B431362002D3FD1236813F0C0
:10122400020F06D0214A536823F44043A1680B43BC
:101234005360236813F0100F35D01C4A536823F40D
:10124400800361690B435360002002B070BD002528
:10125400BFE7174A136843F480731360FFF722F85B
:101264000646134B1B6813F4807FB7D1FFF71AF8B7
:10127400801B6428F5D90320E7E7FFF713F8064637
:101284000A4B1B6A13F0020FBFD1FFF70BF8801B48
:1012940041F288339842F3D90320D6E7D36923F087
:1012A4008053D361BAE70020CFE700BF00100240AB
:1012B400007000404004424230B587B005463F4CC0
:1012C40094E80F000DF1180E0EE90F00238AADF813
:1012D4000430681E0F2869D8DFE800F0395D6832F1
:1012E400686868366868686868686808344B5A686B
:1012F4001B6813F0807F5BD0C2F3834306A90B44C1
:1013040013F8100C12F4803F16D02D4B5B68C3F316
:1013140040430B4413F8142C2A4BB3FBF2F303FBA6
:1013240000F0274B5B6813F4800F0BD14000264B71
:10133400A3FB0030400805E0244B03FB00F0F0E77A
:10134400FFF718FE07B030BDFFF714FEFAE71C4B99
:101354001B6A40F202321A40B2F5817F2AD003F4AC
:101364004073B3F5007F04D0B3F5407F09D000206B
:10137400E8E7134A526A12F0020FF5D049F64040EA
:10138400E0E70F4B1B6813F4003F02D04FF22440F8
:10139400D8E70020D6E7FFF7F5FE094B5B68C3F3F7
:1013A400813301335B00B0FBF3F0CBE70020C9E7E6
:1013B4000020C7E74FF40040C4E700BFD036000860
:1013C4000010024000127A00ABAAAAAA00093D004C
:1013D40030B4036A23F001030362036A4468826938
:1013E40022F073020D682A4323F002038D682B4315
:1013F400114DA84211D005F50065A8420DD00E4D3F
:10140400A84211D005F50065A8420DD04460826160
:101414004A684263036230BC704723F00803CD6816
:101424002B4323F00403EAE724F440744D692C436E
:101434008D692C43EAE700BF002C014030B4036AF5
:1014440023F480730362036A4468C26922F073025E
:101454000D682A4323F400738D6843EA0523134D72
:10146400A84211D005F50065A8420DD00F4DA84241
:1014740012D005F50065A8420ED04460C2614A68E6
:10148400C263036230BC704723F40063CD6843EA4F
:10149400052323F48063E9E724F440544D6944EAC6
:1014A40005148D6944EA0514E7E700BF002C0140E8
:1014B40030B4036A23F480530362036A4468C26944
:1014C40022F4E6420D6842EA052223F400538D68B3
:1014D40043EA0533094DA8420AD005F50065A84240
:1014E40006D04460C2614A680264036230BC70473B
:1014F40024F480444D6944EA8514F2E7002C014049
:1015040010B4036A046A24F001040462846924F0B8
:10151400F00444EA021223F00A030B4382610362DB
:1015240010BC704710B4036A23F01003036284698B
:10153400036A24F4704444EA023223F0A00343EA29
:1015440001138261036210BC7047836823F0700347
:1015540041F007010B438360704710B4846824F49E
:101564007F4442EA032319430C43846010BC704750
:101574000268D36843F00103D3600268136843F040
:10158400010313600020704790F83C30012B7DD09C
:1015940010B50446012380F83C30022380F83D3026
:1015A4000268936823F47F4323F0770393600B6806
:1015B400402B57D010D9702B3ED01FD8502B47D07A
:1015C400602B32D1CA6849680068FFF7ABFF60211D
:1015D4002068FFF7BAFF28E0102B4DD008D9202B44
:1015E4004FD0302B21D130210068FFF7AEFF1CE033
:1015F400DBB900210068FFF7A8FF16E0B3F5805FB0
:101604000ED0B3F5005F10D1CB684A6889680068D2
:10161400FFF7A3FF2268936843F48043936004E0D8
:101624000268936823F007039360012384F83D3034
:10163400002084F83C0010BDCB684A6889680068C3
:10164400FFF78BFF2268936843F077039360ECE71E
:10165400CA6849680068FFF753FF50212068FFF704
:1016640074FFE2E7CA6849680068FFF749FF402150
:101674002068FFF76AFFD8E710210068FFF765FFCD
:10168400D3E720210068FFF760FFCEE70220704710
:101694000368254A904212D002F5006290420ED0AF
:1016A400B0F1804F0BD0A2F59832904207D002F5EA
:1016B4008062904203D002F58062904203D123F00D
:1016C40070034A681343184A904212D002F500622C
:1016D40090420ED0B0F1804F0BD0A2F598329042D8
:1016E40007D002F58062904203D002F580629042F6
:1016F40003D123F44073CA68134323F080034A6977
:10170400134303608B68C3620B688362064B984281
:1017140006D003F50063984202D001234361704769
:101724000B690363F9E700BF002C0140A8B110B5B1
:10173400044690F83D305BB1022384F83D30211D0E
:101744002068FFF7A5FF012384F83D30002010BD79
:1017540080F83C3000F014FEEEE701207047A8B199
:1017640010B5044690F83D305BB1022384F83D3057
:10177400211D2068FFF78CFF012384F83D300020F1
:1017840010BD80F83C3000F0C5FDEEE70120704745
:1017940030B4036A23F010030362036A4468826965
:1017A40022F4E6420D6842EA052223F020038D6804
:1017B40043EA0513124DA84211D005F50065A8426D
:1017C4000DD00F4DA84212D005F50065A8420ED0E9
:1017D400446082614A688263036230BC704723F0CC
:1017E4008003CD6843EA051323F04003E9E724F4BA
:1017F40040644D6944EA85048D6944EA8504E7E759
:10180400002C014038B590F83C30012B66D00D46D1
:101814000446012380F83C30022380F83D300C2A32
:101824001AD8DFE802F007191919201919193419FF
:10183400191947000068FFF7CBFD2268936943F04C
:10184400080393612268936923F004039361226877
:10185400936929690B439361012384F83D30002087
:1018640084F83C0038BD0068FFF792FF2268936952
:1018740043F4006393612268936923F48063936162
:1018840022689369296943EA01239361E4E70068C4
:10189400FFF7D4FD2268D36943F00803D3612268BB
:1018A400D36923F00403D3612268D36929690B4304
:1018B400D361D1E70068FFF7FBFD2268D36943F4E5
:1018C4000063D3612268D36923F48063D3612268FF
:1018D400D369296943EA0123D361BDE7022038BDF6
:1018E40090F83C30012B25D0012380F83C30CB68A4
:1018F40023F440738A68134323F480634A681343D0
:1019040023F400630A68134323F480530A691343DE
:1019140023F400534A69134323F480438A6913432D
:1019240023F40043134302685364002380F83C30DB
:10193400184670470220704790F83C30012B22D0A3
:1019440030B4012280F83C20022380F83D30046842
:10195400636823F070036360046863680D682B4355
:1019640063600468A36823F08003A3600468A36829
:1019740049680B43A36080F83D20002380F83C3085
:10198400184630BC70470220704700002DE9F0472C
:1019940005460268136923F44053C1680B4313617D
:1019A400836802691343426913430168CA6822F4D5
:1019B400B05222F00C021343CB600268536923F443
:1019C400407381690B435361D0F80080594B9845AB
:1019D40057D0FFF7C7FB00EB800000EB80006C687A
:1019E400A400B0FBF4F4544FA7FB043464092601AB
:1019F400FFF7B8FB00EB800000EB80006C68A400EC
:101A0400B0FBF4FAFFF7AEFB00EB800000EB8000C4
:101A14006C68A400B0FBF4F4A7FB043464094FF031
:101A2400640909FB14A424013234A7FB04346409B7
:101A340004F0F0043444FFF795FB00EB800000EB66
:101A440080006E68B600B0FBF6F6FFF78BFB00EB88
:101A5400800000EB80006B689B00B0FBF3F0A7FBF9
:101A64000030400909FB10694FEA091909F13209EC
:101A7400A7FB0937C7F343172744C8F80870BDE824
:101A8400F087FFF77FFB00EB800000EB80006C68C1
:101A9400A400B0FBF4F4284FA7FB04346409260126
:101AA400FFF770FB00EB800000EB80006C68A40083
:101AB400B0FBF4FAFFF766FB00EB800000EB80005C
:101AC4006C68A400B0FBF4F4A7FB043464094FF081
:101AD400640909FB14A424013234A7FB0434640907
:101AE40004F0F0043444FFF74DFB00EB800000EBFE
:101AF40080006E68B600B0FBF6F6FFF743FB00EB20
:101B0400800000EB80006B689B00B0FBF3F3A7FB45
:101B140003235B0909FB13694FEA091909F1320927
:101B2400A7FB0937C7F343172744C8F80870BDE873
:101B3400F08700BF003801401F85EB512DE9F041CB
:101B440005460F4616469846069C2B681B6837EADE
:101B540003030CBF01230023B3421ED1B4F1FF3FA2
:101B6400F3D02CB1FEF79EFBA0EB08008442ECD22C
:101B74002A68D36823F4D073D3602A68536923F0A6
:101B840001035361202385F8393085F83A30002366
:101B940085F838300320BDE8F0810020BDE8F081ED
:101BA40058B310B5044690F839300BB3242384F8A5
:101BB40039302268D36823F40053D3602046FFF7FA
:101BC400E5FE2268136923F4904313612268536984
:101BD40023F02A0353612268D36843F40053D3608B
:101BE4000020E063202384F8393084F83A3010BDB3
:101BF40080F8383000F012FDD8E7012070472DE955
:101C0400F04182B01E4690F83930DBB2202B04D06C
:101C14000223184602B0BDE8F08104460D46904602
:101C2400002955D0002A55D090F83830012B01D125
:101C34000223EEE7012380F838300023C363212315
:101C440080F83930FEF72EFB0746A4F82480A4F868
:101C5400268010E000963B46002280212046FFF7B4
:101C64006DFF002838D122682B88C3F30803536022
:101C74002369CBB90235E38C9BB2BBB1E38C9BB235
:101C8400013B9BB2E384A368B3F5805FE2D0009686
:101C94003B46002280212046FFF750FFF0B923681D
:101CA4002A785A600135E6E70135E4E700963B46B9
:101CB400002240212046FFF741FF034608B10323D9
:101CC400A7E7202284F83920002284F83820A0E7EE
:101CD40001239EE701239CE703239AE7032398E764
:101CE40000B585B02A482B4B03604FF480738360A2
:101CF4000123C360002343614FF46022C261436047
:101D040004230361FEF708FD48BB0A230193012362
:101D140002930523039301A91D48FEF785FB18BB15
:101D24000B2301930223029301A91948FEF77CFBBC
:101D3400F8B90C2301930323029301A91448FEF775
:101D440073FBD8B90D230193042302930DEB030114
:101D54000F48FEF769FBB0B905B05DF804FB4F21ED
:101D64000D4800F0AFF8D0E759210B4800F0AAF86D
:101D7400D6E76221084800F0A5F8DAE76B210648A7
:101D840000F0A0F8DEE77421034800F09BF8E3E7D5
:101D9400A800002000240140FC36000802680E4B15
:101DA4009A4200D0704700B587B003F56C439A6936
:101DB40042F400729A619B6903F400730193019BDE
:101DC4000F2302930323039302A90448FEF7C8FDDB
:101DD40007B05DF804FB00BF00240140001001407F
:101DE4002DE9F04389B0334B9A6942F010029A61AD
:101DF4009A6902F010020192019A9A6942F004026F
:101E04009A619A6902F004020292029A9A6942F073
:101E140008029A619B6903F008030393039BDFF8AC
:101E24009C80002246F2C0114046FEF797FEDFF880
:101E34009090002213214846FEF790FE1E4D00228A
:101E44004FF470712846FEF789FE46F2C0130493DE
:101E540001270597002406940226079604A9404604
:101E6400FEF77EFD1323049305970694079604A9B1
:101E74004846FEF775FD4FF44063049305940694B9
:101E840004A94046FEF76CFD2023049305940694B0
:101E940004A92846FEF764FD4FF470730493059774
:101EA4000694079604A92846FEF75AFD09B0BDE832
:101EB400F08300BF00100240000C014000100140FC
:101EC40000080140FEE7000000B597B002230C9320
:101ED40001221092102211921393002314934FF4B1
:101EE400601315930CA8FEF755FE50BB0F23079300
:101EF40002210891002309934FF480620A920B9304
:101F040007A8FFF76DF800BB022301934FF4404389
:101F1400039301A8FFF746F9D8B9FFF71DF90F4B52
:101F2400A3FB00308009FEF7EFFC0420FEF702FD5E
:101F3400002211464FF0FF30FEF7B4FC17B05DF8F5
:101F440004FBA7210648FFF7BDFFB5210448FFF7AE
:101F5400B9FFBC210248FFF7B5FF00BFD34D6210A3
:101F64000C37000808B5FEF77FF9FFF7ADFFFFF760
:101F740037FFFFF7B5FE00F05DFA00F093F900F0CB
:101F840099FA00F0D5FA00F02BFB1048FFF7F0FAAD
:101F94000F4B1B680021986800F0D0FB0D4C012208
:101FA40040212046FEF7DAFD012280212046FEF77B
:101FB400D5FD01224FF480712046FEF7CFFD0122AA
:101FC4004FF400712046FEF7C9FDFEE7180100201A
:101FD40014000020000C014000B583B0244B9A6922
:101FE40042F001029A619A6902F001020092009A99
:101FF400DA6942F08052DA61DB6903F080530193BD
:10200400019B0320FEF73CFC002211466FF00B00FD
:10201400FEF748FC002211466FF00A00FEF742FC6E
:10202400002211466FF00900FEF73CFC0022114625
:102034006FF00400FEF736FC002211466FF0030037
:10204400FEF730FC002211466FF00100FEF72AFC77
:10205400002211464FF0FF30FEF724FC054A536876
:1020640023F0E06343F08063536003B05DF804FB46
:1020740000100240000001407047FEE7FEE7FEE763
:10208400FEE770477047704730B587B0FEF7FEF83B
:10209400FEF761FC012304930523059306A90A2393
:1020A40041F80C3D3D4C2046FEF7BEF92046FEF7B4
:1020B40097FA4FF47A713948FEF7FAF80028F8D104
:1020C400364C2046FEF7ACF9354B18802046FEF717
:1020D400B9FB022304930523059306A90B2341F8B6
:1020E4000C3D2046FEF7A0F92046FEF779FA4FF49E
:1020F4007A712A48FEF7DCF80028F8D1274C2046EC
:10210400FEF78EF9264B58802046FEF79BFB0323EF
:1021140004930523059306A90C2341F80C3D20469E
:10212400FEF782F92046FEF75BFA4FF47A711B48FA
:10213400FEF7BEF80028F8D1184C2046FEF770F9D7
:10214400174B98802046FEF77DFB04230493052358
:10215400059306A90D2341F80C3D2046FEF764F9CA
:102164002046FEF73DFA4FF47A710C48FEF7A0F8CA
:102174000028F8D1094D2846FEF752F9084CE080B2
:102184002846FEF75FFBA38862882188E0880090D8
:10219400044800F0BBFA07B030BD00BFA80000201F
:1021A400080000201C37000800B583B002A901F81C
:1021B400010D01231A460348FFF721FD03B05DF822
:1021C40004FB00BFD801002070B51646002405E0CA
:1021D4004D1C0878FFF7E8FF01342946B442F7DBC9
:1021E400304670BD0346064A126822B1044A10689C
:1021F4000344136070470349014A1160F6E700BFC6
:1022040094000020200200205822024B1A604FF054
:10221400FF307047180200205822024B1A604FF01A
:10222400FF307047180200205822024B1A60002029
:10223400704700BF180200205822024B1A604FF06A
:10224400FF307047180200205822024B1A604FF0EA
:10225400FF307047180200200F4B1A6842F0010249
:102264001A6059680D4A0A405A601A6822F084724A
:1022740022F480321A601A6822F480221A605A68A2
:1022840022F4FE025A604FF41F029A604FF000627B
:10229400034B9A60704700BF001002400000FFF833
:1022A40000ED00E000B587B01748184B0360002329
:1022B40043608360C36003618361FFF737FA98B9B1
:1022C40006A94FF4805341F8103D0F48FFF75CF91D
:1022D40078B900230093019369460B48FFF72CFB60
:1022E40060B907B05DF804FB6F210948FFF7EAFD08
:1022F400E6E775210648FFF7E5FDEAE77C21044897
:10230400FFF7E0FDEDE700BF1801002000080040E2
:102314002C37000884B00368B3F1804F07D0154A06
:10232400934210D0144A934218D004B0704703F576
:102334000433DA6942F00102DA61DB6903F0010374
:102344000193019BF1E70D4BDA6942F00802DA616F
:10235400DB6903F008030293029BE6E7074B9A69E3
:1023640042F400529A619B6903F400530393039B64
:10237400DBE700BF000C00400034014000100240C5
:102384000268094B9A4200D0704782B003F50233C9
:10239400DA6942F00402DA61DB6903F004030193B1
:1023A400019B02B0F0E700BF0008004000B585B013
:1023B4000368B3F1804F08D0184A934219D0184AE1
:1023C400934220D005B05DF804FB4FF48063009382
:1023D40002230193039369461248FEF7C1FA124A95
:1023E400536823F4407343F0E06343F40073536091
:1023F400E8E70823009302230193039369460B48FB
:10240400FEF7AEFADEE74FF4007300930223019364
:10241400039369460648FEF7A3FAD3E7000C00408D
:1024240000340140000C014000000140000801405C
:102434000010014000B58BB01C484FF0804303608E
:1024440041F6FF034360002383600922C2600361F5
:102454008361FFF784F9C8B900230893099308A995
:102464001248FFF769FAB0B960230193002302937D
:1024740003930593082201A90C48FFF7C3F978B91F
:102484000A48FFF793FF0BB05DF804FB4B210848A3
:10249400FFF718FDE0E752210548FFF713FDE3E7D6
:1024A4005B210348FFF70EFDEAE700BF9801002017
:1024B4002C37000800B58BB01A481B4B036000236F
:1024C40043608360C36003618361FFF748F9C8B95F
:1024D40000230893099308A91248FFF72DFAB0B90D
:1024E4006023019300230293039305930C2201A913
:1024F4000C48FFF787F978B90A48FFF757FF0BB084
:102504005DF804FB8E210948FFF7DCFCE0E7952128
:102514000648FFF7D7FCE3E79E210448FFF7D2FC07
:10252400EAE700BF58010020000C00402C370008E7
:1025340000B591B02748284B036041F6FF03436080
:10254400002383600922C260036143618361FFF752
:1025540006F900282AD100230E930F930EA91D48D3
:10256400FFF7EAF938BB6023079300230893099324
:102574000B930C930D930C2207A91648FFF742F90D
:10258400F0B90023009301930293039304934FF44F
:1025940000520592069369460E48FFF7A1F9A0B9C7
:1025A4000C48FFF703FF11B05DF804FBB4210B489E
:1025B400FFF788FCCFE7BB210848FFF783FCD2E78D
:1025C400C6210648FFF77EFCDBE7D2210348FFF76C
:1025D40079FCE5E7D8000020003401402C370008DE
:1025E40008B50B480B4B03604FF4165343600023AC
:1025F4008360C36003610C2242618361C361FFF79E
:10260400CFFA00B908BD48210348FFF75BFCF9E79E
:10261400D8010020003801403C3700080268144B00
:102624009A4200D0704710B586B003F558439A69B2
:1026340042F480429A619B6903F480430193019BB5
:102644004FF4007302930223039303230593094C6D
:1026540002A92046FEF784F94FF480630293002315
:102664000393049302A92046FEF77AF906B010BD3D
:102674000038014000080140002103E00B4B5B5887
:10268400435004310A480B4B42189A42F6D30A4A83
:1026940002E0002342F8043B084B9A42F9D3FFF7C7
:1026A400DBFD00F00FF8FFF75DFC7047EC37000826
:1026B4000000002078000020780000201C02002088
:1026C400FEE7000070B500250C4E0D4CA41BA410B1
:1026D400A54209D100F0E4FF00250A4E0A4CA41BD0
:1026E400A410A54205D170BD56F825309847013590
:1026F400EEE756F8253098470135F2E7E43700084D
:10270400E4370008E4370008E83700080FB40A4B40
:1027140013B51C6824B1A36913B9204600F0B6F9B7
:1027240005AB049AA1682046019300F07FFB02B038
:10273400BDE8104004B070471400002000294FF495
:1027440080630CBF0222002200F000B82DE9F74399
:102754001D46514B04461E680F46904626B1B36988
:1027640013B9304600F092F94C4B9C4252D1746834
:10277400B8F1020F06D0B8F1010F00F28980002DE4
:10278400C0F286802146304600F016F9616B41B1F3
:1027940004F14403994202D0304600F075FA002354
:1027A40063630023A3616360A3891B0603D52169C6
:1027B400304600F069FAA389B8F1020F23F44A63A2
:1027C40023F00303A3815DD001AB6A462146304662
:1027D40000F0E6F9A3891843A0812DBB009D28468B
:1027E40000F042FA074600284ED1DDF80090A945D2
:1027F4003CD14FF0FF30A38943F00203A3810023AF
:10280400A36004F14703236023610123636103B0E0
:10281400BDE8F083224B9C4201D1B468A8E7214B68
:102824009C4208BFF468A3E7002FD8D0B36913B95A
:10283400304600F02BF9B8F1010F08BFA3892760D7
:1028440004BF43F00103A381A389276113F00800A7
:1028540065611BD013F001004FF000031FBF6D42F0
:10286400A360A561184608BFA560D0E7484600F0FC
:10287400FBF907460028BCD0A3894D4643F08003EA
:10288400A381D3E70020B6E7A946F5E7A060BEE739
:102894004FF0FF30BBE700BF140000207037000882
:1028A40090370008503700088A892DE9F041054621
:1028B40010070C465AD44B68002B05DC0B6C002B1C
:1028C40002DC0020BDE8F081E66A002EF9D0002386
:1028D40012F480522F682B6033D0606DA3895A079D
:1028E40005D56368C01A636B0BB1236CC01A00234F
:1028F4000246E66A216A2846B047431CA38906D1EA
:1029040029681D294BD82B4ACA40D60747D500222F
:1029140062602269D904226004D5421C01D12B686B
:1029240003B96065616B2F600029CAD004F14403C8
:10293400994202D0284600F0A7F900206063BDE860
:10294400F081216A01232846B047411CC6D12B6877
:10295400002BC3D01D2B01D0162B01D12F60B0E763
:10296400A38943F04003A381BDE8F0810F69002FE0
:10297400A7D0930718BF00230E6808BF4B69A6EBC6
:1029840007080F608B60B8F1000F9ADD43463A46A2
:10299400216A2846A66AB047002807DCA38943F0C9
:1029A4004003A3814FF0FF30BDE8F0810744A8EB5A
:1029B4000008E8E70100402038B50B6905460C46DD
:1029C400DBB118B183690BB900F060F80C4B9C4281
:1029D40009D16C68B4F90C307BB121462846BDE8B6
:1029E4003840FFF761BF074B9C4201D1AC68F1E767
:1029F400054B9C4208BFEC68ECE7002038BD00BFE3
:102A0400703700089037000850370008014900F07B
:102A1400A9B800BFBD290008002310B5044603600F
:102A24004360836081814366C28103614361836142
:102A3400194608225C3000F01FF9054B24626362DA
:102A4400044BA362044BE362044B236310BD00BF39
:102A5400AD330008CF330008073400082B340008D6
:102A640070B568254A1E55430E4605F1740100F001
:102A740057F9044640B1002180E842000C30A060C0
:102A840005F1680200F0F8F8204670BD836910B5BE
:102A9400044633BB8364C3640365124B124A1B6848
:102AA4008262984204BF0123836100F01FF86060D2
:102AB400204600F01BF8A060204600F017F8002222
:102AC400E06004216068FFF7A7FF01220921A068E4
:102AD400FFF7A2FF02221221E068FFF79DFF012306
:102AE400A36110BD4C370008112A0008F8B51C4B2F
:102AF40007461E68B36913B93046FFF7C7FF483667
:102B0400B4687368013B03D5336833B13668F7E7BB
:102B1400B4F90C506DB16834F4E704213846FFF77A
:102B24009FFF30600028F1D10C2304463B6020460F
:102B3400F8BD4FF6FF73E38101236566A381256029
:102B4400A560656025616561A5610822294604F1D7
:102B54005C0000F091F86563A563A564E564E6E7AD
:102B64004C3700082DE9F84380468946002600F1D9
:102B7400480414B93046BDE8F883A5686768013F86
:102B840001D52468F5E7AB89012B07D9B5F90E30D7
:102B9400013303D029464046C84706436835EEE76B
:102BA40070B50E46B1F90E1090B0002914461D46BA
:102BB40007DA00232B60B3891A0610D44FF480631C
:102BC4000EE001AA00F016FD0028F2DB029A02F4DE
:102BD4007042A2F500535A425A412A60EEE740235C
:102BE4000020236010B070BD8B8973B59D07064625
:102BF4000C4607D504F14703236023610123636175
:102C040002B070BD01AB6A46FFF7CAFF00990546E2
:102C1400304600F085F848B9B4F90C309A05EFD481
:102C240023F0030343F00203A381E3E70D4BB362F4
:102C3400A389206043F08003A381009B206163612A
:102C4400019B5BB1B4F90E10304600F0E5FC28B1ED
:102C5400A38923F0030343F00103A381A3891D4344
:102C6400A581CDE7112A0008024B0146186800F03F
:102C740057B800BF1400002003460244934200D119
:102C8400704703F8011BF9E738B50546002943D01E
:102C940051F8043C0C1F002BB8BFE41800F0ECFC06
:102CA4001E4A1368104633B9636014602846BDE8B1
:102CB400384000F0E2BCA3420BD921686218934269
:102CC40001BF1A685B685218226063600460EDE714
:102CD40013465A680AB1A242FAD919685818A04290
:102CE4000BD120680144581882421960DED1106863
:102CF4005268014419605A60D8E702D90C232B604A
:102D0400D4E7206821188A4201BF11685268091863
:102D1400216062605C60C9E738BD00BF9C00002090
:102D240070B5CD1C25F0030508350C2D38BF0C25D6
:102D3400002D064601DBA94203D90C233360002091
:102D440070BD00F099FC234A1468214691B9224CC5
:102D540023681BB9304600F017FB20602946304633
:102D640000F012FB431C26D10C233046336000F0E4
:102D740084FCE4E70B685B1B1AD40B2B0FD90B60A4
:102D8400CC18CD50304600F078FC04F10B00231D24
:102D940020F00700C31A1BD05A42E25070BD8C4287
:102DA4000BBF63684B681360636018BF0C46E9E7A8
:102DB4000C464968CAE7C41C24F00304A04205D0A9
:102DC400211A304600F0E0FA0130CDD02560D9E771
:102DD40070BD00BF9C000020A0000020936810B4C8
:102DE400013B002B936008DA9469A34202DBCBB267
:102DF4000A2B02D110BC00F01BBB1368581C1060D6
:102E04001970C8B210BC7047F8B506460F46144690
:102E1400D518AC4201D1002007E03A4614F8011B52
:102E24003046FFF7DBFF431CF3D1F8BD2DE9F04F2B
:102E34009DB00C4617460393064618B183690BB937
:102E4400FFF724FE7C4B9C4257D17468A389180772
:102E54005DD52369002B5AD00023099320238DF8D4
:102E6400293030234FF0010B8DF82A30B8464546FF
:102E740015F8013B002B55D1B8EB070A0BD053468C
:102E84003A4621463046FFF7BFFF013000F0C480C8
:102E9400099B5344099398F80030002B00F0BC8040
:102EA40000234FF0FF3204930793059206938DF8A5
:102EB40053301A9305222978604800F0CFFB05F1BE
:102EC4000108049B002831D1D90644BF20228DF883
:102ED40053201A0744BF2B228DF853202A782A2A1C
:102EE4002CD000210A20079AA84698F80030013512
:102EF400303B092B6DD971B326E0514B9C4201D173
:102F0400B468A3E74F4B9C4208BFF4689EE7214690
:102F1400304600F0F1FA00289ED04FF0FF301DB08B
:102F2400BDE8F08F252BA7D0A846A0E7434A454625
:102F3400801A0BFA00F018430490BBE7039A111DA2
:102F440012680391002A01DB079204E0524243F025
:102F540002030792049398F800302E2B10D198F8AE
:102F6400013008F101012A2B37D1039B08F1020833
:102F74001A1D1B680392002BB8BF4FF0FF33059353
:102F8400314D032298F80010284600F067FB40B149
:102F94004023401B03FA00F0049B08F1010803439B
:102FA400049398F800100622284808F101078DF8C8
:102FB400281000F053FB002834D0254B03BB039B9F
:102FC400073323F0070308330393099B4B44099306
:102FD4004CE700FB0232012186E700230A2518464C
:102FE4000593884698F800200131303A092A03D91C
:102FF400002BC5D00590C3E705FB00200123F0E7B3
:1030040003AB00932246134B04A93046AFF3008070
:10301400B0F1FF3F8146D8D1A3895B063FF57DAF70
:1030240009987CE703AB009322460A4B04A9304677
:1030340000F08AF8ECE700BF70370008B0370008EA
:103044009037000850370008B6370008BA37000830
:10305400000000000D2E00082DE9F04791461F46A0
:103064008A680B6906469342B8BF1346C9F8003014
:1030740091F843200C46DDF8208012B10133C9F8E1
:1030840000302368990642BFD9F800300233C9F8EA
:103094000030256815F0060507D104F1190AE36824
:1030A400D9F800209B1A9D422ADB94F84330226809
:1030B400003318BF012392062FD404F1430239468A
:1030C4003046C047013022D02368E56803F0060388
:1030D400042B18BF0025D9F800204FF0000908BFC1
:1030E400AD1AA368226908BF25EAE5759342C4BFF7
:1030F4009B1AED181A344D451BD10020BDE8F0870A
:103104000123524639463046C047013003D14FF0BF
:10311400FF30BDE8F0870135C1E73020E11881F8C0
:1031240043005A1C94F845102244023382F8431099
:10313400C3E70123224639463046C0470130E6D072
:1031440009F10109D7E700002DE9F04317460A7E8B
:1031540085B06E2A984606460C460C9B01F1430E38
:1031640000F0BC801AD8632A2ED00AD8002A00F0B6
:10317400C880582A00F08A8004F1420584F842206D
:103184002AE0642A01D0692AF6D121681A6811F06C
:10319400800F23D0111D1960136827E0732A00F0F3
:1031A400B48008D86F2A2AD0702AE5D10A6842F080
:1031B40020020A6003E0752A21D0782ADCD1782223
:1031C4006F4984F8452064E01A6801F14205111D35
:1031D4001960136884F842300123A3E011F0400F12
:1031E40002F104011960D7D0B2F90030002B03DAE0
:1031F4002D225B4284F8432062490A2217E02068AA
:10320400196810F0800F03D0081D18600B6806E0E1
:1032140010F0400F01F104001860F7D00B886F2AFA
:1032240014BF0A2208225749002084F84300656825
:10323400002DA560C0F29C80206820F0040020606E
:10324400002B3FD1002D40F095807546082A0BD104
:103254002368DA0708D5236962689A42DEBF3023FF
:1032640005F8013C05F1FF35AEEB05032361CDF80C
:1032740000803B4603AA21463046FFF7EDFE0130AD
:1032840055D14FF0FF3005B0BDE8F08381F84520FB
:103294003C492268186812F0800F00F104051D6093
:1032A40001D0036802E05506FBD50388D00744BF6C
:1032B40042F0200222601BB9226822F02002226020
:1032C4001022B1E77546B3FBF2F002FB1033CB5C7E
:1032D40005F8013D03460028F5D1B7E708681A68E8
:1032E40010F0800F496904D0101D1860136819602C
:1032F40007E010F0400F02F1040018601368F6D0E4
:103304001980002375462361B1E71A68111D1960FD
:10331400156800216268284600F0A0F908B1401B36
:10332400606063682361002384F843309FE7236966
:103334002A4639463046C0470130A2D023689B074D
:1033440007D5002504F11909E368039A9B1A9D42E5
:1033540005DBE068039B9842B8BF184693E7012356
:103364004A4639463046C04701308AD00135EBE73A
:10337400002BA7D10B7804F1420584F8423065E7AD
:10338400D2370008C137000838B50023054C05467C
:1033940008462360FEF726FF431C02D1236803B1CD
:1033A4002B6038BD1802002010B50C46B1F90E1080
:1033B40000F064F90028ABBF636DA3891B1823F4E4
:1033C4008053ACBF6365A38110BD2DE9F0411F4656
:1033D4008B890546DB050C46164605D502230022DB
:1033E400B1F90E1000F028F9A389324623F4805372
:1033F400A381B4F90E103B462846BDE8F04100F025
:1034040069B810B50C46B1F90E1000F015F9431C5B
:10341400A38915BF606523F4805343F48053A381CB
:1034240018BFA38110BDB1F90E1000F0D3B800008D
:10343400F8B50E461446054618B183690BB9FFF773
:1034440025FB214B9C422AD16C68A369A360A38904
:103454001A072ED5236963B323692068F6B2C01A0C
:1034640063693746984204DB21462846FFF7A4FAED
:1034740028BBA3680130013BA36023685A1C226067
:103484001E706369984204D0A389DB0719D50A2EFC
:1034940017D121462846FFF78FFA90B10FE00B4B66
:1034A4009C4201D1AC68D0E7094B9C4208BFEC6850
:1034B400CBE72146284600F01FF80028CCD04FF077
:1034C400FF373846F8BD00BF703700089037000852
:1034D4005037000838B50546084611460022054C09
:1034E40022601A46FEF770FE431C02D1236803B122
:1034F4002B6038BD18020020324B70B51D6806469B
:103504000C4625B1AB6913B92846FFF7BFFA2E4B19
:103514009C420FD16C68B4F90C309AB215072CD4C4
:10352400D00611D40922326043F04003A3814FF046
:10353400FF3070BD254B9C4201D1AC68EBE7244BB6
:103544009C4208BFEC68E6E7510712D5616B41B1B4
:1035540004F14403994202D03046FFF795FB00235F
:103564006363A38923F02403A38100236360236995
:103574002360A38943F00803A38123694BB9A3897A
:1035840003F42073B3F5007F03D021463046FFF7E0
:103594002BFBA28912F001030CD00023A360636902
:1035A4005B42A361236953B9B4F90C3013F0800072
:1035B400BAD170BD920758BF6369A360F2E70020D7
:1035C400F7E700BF140000207037000890370008A8
:1035D4005037000838B50023054C054608462360DB
:1035E400FEF712FE431C02D1236803B12B6038BDE1
:1035F4001802002038B50023064C0546084611463B
:103604002360FEF709FE431C02D1236803B12B603B
:1036140038BD00BF1802002038B50023054C05460C
:1036240008462360FEF700FE431C02D1236803B161
:103634002B6038BD1802002038B5054608461146EF
:103644000022054C22601A46FEF7F6FD431C02D107
:10365400236803B12B6038BD1802002010B5C9B22D
:1036640002449042034601D1002010BD1C78013071
:103674008C42F6D1184610BD7047704738B50546E0
:10368400084611460022054C22601A46FEF7DCFD6E
:10369400431C02D1236803B12B6038BD18020020FB
:1036A400F8B500BFF8BC08BC9E467047F8B500BF2B
:0836B400F8BC08BC9E467047FB
:1036BC0002030405060708090A0B0C0D0E0F101067
:1036CC000102000002030405060708090A0B0C0D91
:1036DC000E0F10100102000000000000000000009E
:1036EC00010203040607080900000000010203049C
:1036FC002E2E5C5372635C6164632E6300000000C9
:10370C002E2E5C5372635C6D61696E2E630000003B
:10371C002025642025642025642025640D000000EC
:10372C002E2E5C5372635C74696D2E630000000076
:10373C002E2E5C5372635C75736172742E63000081
:10374C001800002000000000000000000000000035
:10375C00000000000000000000000000000000005D
:10376C00000000000000000000000000000000004D
:10377C00000000000000000000000000000000003D
:10378C00000000000000000000000000000000002D
:10379C00000000000000000000000000000000001D
:1037AC0000000000232D302B2000686C4C00656657
:1037BC006745464700303132333435363738394176
:1037CC00424344454600303132333435363738398C
:0837DC00616263646566000090
:0437E40009020008CE
:0437E800E5010008EF
:1037EC0001000000100000000A000A000A000A0094
:1037FC0000A24A04180000200000000070370008E6
:10380C00903700085037000800000000000000004E
:10381C00000000000000000000000000000000009C
:10382C00000000000000000000000000000000008C
:10383C00000000000000000000000000000000007C
:10384C00000000000000000000000000000000006C
:08385C00000000000000000064
:040000050800267D4C
:00000001FF
