:020000040800F2
:1000000000000120452500081121000813210008E7
:100010001521000817210008192100080000000020
:100020000000000000000000000000001B2100088C
:100030001D210008000000001F21000821210008E8
:100040008D2500088D2500088D2500088D250008C8
:100050008D2500088D2500088D2500088D250008B8
:100060008D2500088D2500088D2500088D250008A8
:100070008D2500088D2500088D2500088D25000898
:100080008D2500088D2500088D2500088D25000888
:100090008D2500088D2500088D2500088D25000878
:1000A0008D2500088D2500088D2500088D25000868
:1000B0008D2500088D2500088D2500088D25000858
:1000C0008D2500088D2500088D2500088D25000848
:1000D0008D2500088D2500088D2500088D25000838
:1000E0008D2500088D2500088D2500088D25000828
:1000F0008D2500088D2500088D2500088D25000818
:100100008D2500088D2500088D2500088D25000807
:100110008D2500088D2500088D2500088D250008F7
:100120008D2500088D2500088D2500088D250008E7
:1001300000000000000000000000000000000000BF
:1001400000000000000000000000000000000000AF
:10015000000000000000000000000000000000009F
:10016000000000000000000000000000000000008F
:10017000000000000000000000000000000000007F
:10018000000000000000000000000000000000006F
:10019000000000000000000000000000000000005F
:1001A000000000000000000000000000000000004F
:1001B000000000000000000000000000000000003F
:1001C000000000000000000000000000000000002F
:1001D000000000000000000000000000000000001F
:0401E0005FF8E0F1F3
:1001E40010B5054C237833B9044B13B10448AFF36D
:1001F40000800123237010BD700000200000000067
:10020400C02D000808B5034B1BB103490348AFF3E5
:10021400008008BD0000000074000020C02D00080C
:1002240010B504460E4B18784FF47A73B3FBF0F311
:100234000C4A1068B0FBF3F000F0EAF968B90F2C2F
:1002440001D9012010BD002221464FF0FF3000F0FB
:10025400ADF9034B5C60002010BD012010BD00BF50
:10026400000000200800002008B5074A136843F086
:1002740010031360032000F087F90020FFF7D0FF7C
:1002840001F0F4FE002008BD00200240034A11687A
:10029400034B1B780B441360704700BF9800002089
:1002A40000000020014B1868704700BF9800002030
:1002B40038B50446FFF7F6FF0546B4F1FF3F02D018
:1002C400044B1B781C44FFF7EDFF401B8442FAD813
:1002D40038BD00BF0000002030B482B00023019379
:1002E40090F82430012B00F08B800246012380F823
:1002F40024304B68062B29D80568686B03EB83030D
:10030400053B1F249C4020EA04000C6804FA03F314
:1003140003436B630B68092B38D91568E86803EB52
:1003240043031E3B07249C4020EA04008C6804FA23
:1003340003F30343EB600B68103B012B34D900201B
:10034400002382F8243002B030BC70470C2B0ED846
:100354000568286B03EB8303233B1F249C4020EA9E
:1003640004000C6804FA03F303432B63D2E7056823
:10037400E86A03EB8303413B1F249C4020EA04000A
:100384000C6804FA03F30343EB62C3E715682869B6
:1003940003EB430307249C4020EA04008C6804FA1E
:1003A40003F303432B61C6E713681648834205D061
:1003B400936A43F0200393620120C1E7986810F424
:1003C400000F1BD1986840F4000098600B68102B54
:1003D40001D00020B4E70C4B1B680C49A1FB0313AC
:1003E4009B0C03EB83035900019102E0019B013B49
:1003F4000193019B002BF9D10020A1E700209FE786
:100404000220A0E7002401400800002083DE1B43F3
:1004140038B503689A6812F0010F01D1002038BD85
:1004240004469A6822F001029A60FFF73BFF0546F2
:1004340023689B6813F0010F0ED0FFF733FF401BB6
:100444000228F5D9A36A43F01003A362E36A43F0D8
:100454000103E362012038BD002038BD002800F00C
:100464008A8070B50446836A002B4DD02046FFF77E
:10047400CFFFA36A13F0100377D1002875D1A26AC5
:1004840022F4885222F0020242F00202A26265685B
:1004940021683A4A91423DD0E2692A43E66842EA39
:1004A4004602A568B5F5807F3ED0012D39D0656937
:1004B400012D3CD04D6825F469452B434B602168E0
:1004C4008D682F4B2B4013438B60A368B3F5807F5B
:1004D4003ED0012B3CD000232568E96A21F4700149
:1004E4000B43EB6223689968264B0B409A4233D046
:1004F400A36A23F0120343F01003A362E36A43F0F8
:100504000103E362012070BDC36280F8243001F06E
:10051400D1F9ABE7E269B2F5402FBED14FF4002226
:10052400BBE74FF48073C2E74FF48073BFE736B97B
:10053400A569013D43EA453343F40063BAE7A56A7C
:1005440045F02005A562E56A45F00105E562B1E7DD
:100554002369013B1B05BFE70023E362A36A23F081
:10056400030343F00103A36270BDA36A43F01003C5
:10057400A362012070BD0120704700BF003C014010
:10058400FDF7E1FFFE0E1FFF074AD36823F4E06383
:100594001B041B0C000200F4E060184340F0BF6031
:1005A40040F40030D060704700ED00E030B4164BEA
:1005B400DB68C3F30223C3F10704042C28BF04241B
:1005C4001D1D062D17D9033B012505FA04F4013C32
:1005D4002140994005FA03F3013B134019430028D5
:1005E4000BDB0901C9B200F1604000F5614080F8FD
:1005F400001330BC70470023E6E700F00F00090148
:10060400C9B2024B1954F4E700ED00E014ED00E028
:100614000138B0F1807F0AD2064B5860F021064AB7
:1006240082F823100020986007221A607047012086
:10063400704700BF10E000E000ED00E0042805D0A2
:10064400054A136823F0040313607047024A1368D1
:1006540043F004031360704710E000E0704708B5EE
:10066400FFF7FCFF08BD0000F0B583B00026344658
:1006740079E0002D00F0A980012D00D1CE68FF2B78
:1006840000F2B7808646FF2B00F2B680A500DEF8A4
:1006940000200F27AF4022EA070206FA05F52A4395
:1006A400CEF800204A6812F0805F5BD0674A9569F3
:1006B40045F001059561926902F001020192019AE7
:1006C400A208971C624D55F8275004F003074FEA1F
:1006D400870E0F2707FA0EF725EA07055D4FB84284
:1006E40000F0908007F58067B84200F08D8007F530
:1006F4008067B84200F08A8007F58067B84200F04E
:10070400878007F58067B84200F0848007F580672A
:10071400B84275D0062707FA0EF73D4302324C4F14
:1007240047F822504A6812F4803F75D04A4D2A682F
:100734001A432A604A6812F4003F73D0464D6A682F
:100744001A436A604A6812F4801F71D0424DAA6845
:100754001A43AA604A6812F4001F6FD03E4DEA683B
:100764001343EB6001340F2C6ED80122A2400B68B6
:1007740013409A42F6D14D68122D30D00BD8022D79
:100784002AD07FF676AF032D2FD0112D7FF477AFCB
:10079400CE68043673E7314FBD4216D00CD9304FC2
:1007A400BD4212D007F58037BD420ED0A7F58017A1
:1007B400BD427FF464AF08E0A7F58017BD4204D0C2
:1007C40007F58037BD427FF45AAF8D687DB1012DA6
:1007D40008D04261082652E7CE6808364FE7CE6853
:1007E4000C364CE70261082649E7002647E7042651
:1007F40045E700F1040E46E7A4F10805AD0046E71D
:10080400052788E7002786E7012784E7022782E790
:10081400032780E704277EE70F4D2A6822EA0302B4
:100824002A6087E70C4D6A6822EA03026A6089E756
:10083400094DAA6822EA0302AA608BE7064DEA681A
:1008440022EA0303EB608DE703B0F0BD0010024021
:100854000000014000080140000401400000211094
:10086400000031108368194201D100207047012033
:10087400704712B9090401617047016170470000B3
:1008840082B0084B1B68084AA2FB03235B0A00FBE7
:1008940003F0019000BF019B5A1E0192002BF9D175
:1008A40002B0704708000020D34D621070B582B0CA
:1008B4000446036813F0010F3DD0AC4B5B6803F0B2
:1008C4000C03042B2ED0A94B5B6803F00C03082BFC
:1008D40023D06368B3F5803F51D0002B55D103F189
:1008E400804303F504331A6822F480321A601A68CC
:1008F40022F480221A606368002B60D0FFF7D2FCD8
:1009040005469A4B1B6813F4003F14D1FFF7CAFC49
:10091400401B6428F5D90320AFE1944B5B6813F4C2
:10092400803FD6D0914B1B6813F4003F03D063681B
:10093400002B00F09F81236813F0020F65D08B4BCE
:100944005B6813F00C0F4ED0884B5B6803F00C030C
:10095400082B43D02369002B79D00122844B1A60E1
:10096400FFF7A0FC0546814B1B6813F0020F65D10D
:10097400FFF798FC401B0228F5D903207DE17B4A50
:10098400136843F480331360B5E7B3F5A02F09D09F
:10099400764B1A6822F480321A601A6822F4802294
:1009A4001A60A8E703F18043A3F53C331A6842F4C4
:1009B40080221A601A6842F480321A609BE7FFF7BB
:1009C40071FC0546694B1B6813F4003FB3D0FFF775
:1009D40069FC401B6428F5D903204EE1634B5B6836
:1009E40013F4803FB6D1614B1B6813F0020F04D09F
:1009F4002369012B01D001203FE15C4A136823F0F5
:100A0400F803616943EAC1031360236813F0080F14
:100A140032D0A369002B6ED00122564B1A60FFF727
:100A240041FC0546514B5B6A13F0020F21D1FFF7DD
:100A340039FC401B0228F5D903201EE14B4A1368F8
:100A440023F0F803616943EAC1031360DDE7002280
:100A5400474B1A60FFF726FC0546444B1B6813F00E
:100A6400020FD2D0FFF71EFC401B0228F5D9032049
:100A740003E10120FFF704FF236813F0040F00F0E3
:100A840099803A4BDB6913F0805F46D1374BDA69C2
:100A940042F08052DA61DB6903F080530193019BD9
:100AA4000125354B1B6813F4807F38D0E368012B94
:100AB40049D0002B4DD103F1804303F504331A6A66
:100AC40022F001021A621A6A22F004021A62E3682E
:100AD400002B5DD0FFF7E6FB0646244B1B6A13F0A0
:100AE400020F66D1FFF7DEFB801B41F28833984288
:100AF400F3D90320C1E000221E4B1A60FFF7D2FB9A
:100B040005461A4B5B6A13F0020FB5D0FFF7CAFB18
:100B1400401B0228F5D90320AFE00025C1E7164A9F
:100B2400136843F480731360FFF7BCFB0646124B53
:100B34001B6813F4807FB9D1FFF7B4FB801B6428D2
:100B4400F5D9032099E0094A136A43F001031362BB
:100B5400BDE7052B12D0054B1A6A22F001021A6276
:100B64001A6A22F004021A62B1E700BF00100240C0
:100B7400000042428004424200700040414B1A6A25
:100B840042F004021A621A6A42F001021A629EE7F3
:100B9400FFF788FB06463B4B1B6A13F0020F08D095
:100BA400FFF780FB801B41F288339842F3D903207E
:100BB40063E0E5B9E369002B5ED0324A526802F083
:100BC4000C02082A5BD0022B17D000222E4B1A608D
:100BD400FFF768FB04462B4B1B6813F0007F47D0DC
:100BE400FFF760FB001B0228F5D9032045E0254AE6
:100BF400D36923F08053D361DCE70022224B1A60CF
:100C0400FFF750FB05461F4B1B6813F0007F06D00F
:100C1400FFF748FB401B0228F5D903202DE0236A87
:100C2400B3F5803F1AD017494B6823F47413226A32
:100C3400606A024313434B600122134B1A60FFF7AF
:100C440031FB04460F4B1B6813F0007F0ED1FFF7F6
:100C540029FB001B0228F5D903200EE0094A53683A
:100C640023F40033A1680B435360DCE7002004E065
:100C7400002002E0012000E0002002B070BD01204D
:100C8400FBE700BF001002406000424210B586B08E
:100C9400154C94E80F000DF1180E0EE90F00238A8D
:100CA400ADF80430114B5B6803F00C02082A18D12C
:100CB400C3F38342724412F8102C13F4803F03D11F
:100CC4000B4800FB02F00DE0084B5B68C3F34043A4
:100CD400734413F8143C074800FB02F0B0FBF3F034
:100CE40000E0044806B010BDD82D000800100240F2
:100CF40000093D0000127A00594B1B6803F00703FA
:100D04008B420CD2564A136823F007030B4313603B
:100D1400136803F00703994201D00120704770B5AE
:100D2400036813F0020F06D04E4A536823F0F00311
:100D34008468234353600D460446036813F0010F8F
:100D440052D04368012B23D0022B28D0454A126885
:100D540012F0020F00F0828042494A6822F0030236
:100D640013434B60FFF79EFA06466368012B1DD0C0
:100D7400022B2AD03B4B5B6813F00C0F34D0FFF7E7
:100D840091FA801B41F288339842F3D9032070BD55
:100D9400344A126812F4003FDED1012070BD314A9A
:100DA400126812F0007FD7D1012070BD2D4B5B6813
:100DB40003F00C03042B17D0FFF774FA801B41F2E5
:100DC40088339842F2D9032070BD264B5B6803F048
:100DD4000C03082B08D0FFF765FA801B41F2883317
:100DE4009842F2D9032070BD1D4B1B6803F0070322
:100DF4009D420CD21A4A136823F007032B43136055
:100E0400136803F007039D4201D0012070BD2368DD
:100E140013F0040F06D0134A536823F4E063E16827
:100E24000B435360236813F0080F07D00D4A53682F
:100E340023F46053216943EAC1035360FFF726FF9B
:100E4400084B5B68C3F30313074AD35CD840074BD2
:100E540018600020FFF7E4F9002070BD012070BD88
:100E64000020024000100240EC2D00080800002081
:100E7400014B1868704700BF0800002008B5FFF751
:100E8400F7FF044B5B68C3F30223034AD35CD840E7
:100E940008BD00BF00100240FC2D000808B5FFF794
:100EA400E7FF044B5B68C3F3C223034AD35CD84017
:100EB40008BD00BF00100240FC2D000870B582B0D0
:100EC4000446036813F0010F34D03E4BDB6913F082
:100ED400805F48D13B4BDA6942F08052DA61DB69CA
:100EE40003F080530193019B0125374B1B6813F4D6
:100EF400807F3AD0334B1B6A13F4407311D062687D
:100F040002F4407293420CD02E4A136A23F44070C8
:100F14002E4901260E6000260E60106213F0010FA8
:100F240037D1284A136A23F4407361680B43136270
:100F3400002D3FD1236813F0020F06D0214A5368D5
:100F440023F44043A1680B435360236813F0100F4C
:100F540035D01C4A536823F4800361690B43536002
:100F6400002002B070BD0025BFE7174A136843F4A0
:100F740080731360FFF796F90646134B1B6813F44E
:100F8400807FB7D1FFF78EF9801B6428F5D9032041
:100F9400E7E7FFF787F906460A4B1B6A13F0020FCF
:100FA400BFD1FFF77FF9801B41F288339842F3D910
:100FB4000320D6E7D36923F08053D361BAE7002036
:100FC400CFE700BF001002400070004040044242DE
:100FD40030B4036A23F001030362036A446882693C
:100FE40022F073020D682A4323F002038D682B4319
:100FF400114DA84211D005F50065A8420DD00E4D43
:10100400A84211D005F50065A8420DD04460826164
:101014004A684263036230BC704723F00803CD681A
:101024002B4323F00403EAE724F440744D692C4372
:101034008D692C43EAE700BF002C014030B4036AF9
:1010440023F480730362036A4468C26922F0730262
:101054000D682A4323F400738D6843EA0523134D76
:10106400A84211D005F50065A8420DD00F4DA84245
:1010740012D005F50065A8420ED04460C2614A68EA
:10108400C263036230BC704723F40063CD6843EA53
:10109400052323F48063E9E724F440544D6944EACA
:1010A40005148D6944EA0514E7E700BF002C0140EC
:1010B40030B4036A23F480530362036A4468C26948
:1010C40022F4E6420D6842EA052223F400538D68B7
:1010D40043EA0533094DA8420AD005F50065A84244
:1010E40006D04460C2614A680264036230BC70473F
:1010F40024F480444D6944EA8514F2E7002C01404D
:1011040010B4036A046A24F001040462846924F0BC
:10111400F00444EA021223F00A030B4382610362DF
:1011240010BC704710B4036A23F01003036284698F
:10113400036A24F4704444EA023223F0A00343EA2D
:1011440001138261036210BC7047836823F070034B
:1011540041F007010B438360704710B4846824F4A2
:101164007F4442EA032319430C43846010BC704754
:1011740090F83C30012B7DD010B50446012380F853
:101184003C30022380F83D300268936823F47F43A7
:1011940023F0770393600B68402B57D010D9702B42
:1011A4003ED01FD8502B47D0602B32D1CA68496833
:1011B4000068FFF7B7FF60212068FFF7C6FF28E04B
:1011C400102B4DD008D9202B4FD0302B21D13021DA
:1011D4000068FFF7BAFF1CE0DBB900210068FFF7E5
:1011E400B4FF16E0B3F5805F0ED0B3F5005F10D105
:1011F400CB684A6889680068FFF7AFFF2268936884
:1012040043F48043936004E00268936823F0070387
:101214009360012384F83D30002084F83C0010BD25
:10122400CB684A6889680068FFF797FF226893686B
:1012340043F077039360ECE7CA6849680068FFF7F6
:101244005FFF50212068FFF780FFE2E7CA68496822
:101254000068FFF755FF40212068FFF776FFD8E7C5
:1012640010210068FFF771FFD3E720210068FFF722
:101274006CFFCEE7022070470368254A904212D0E3
:1012840002F5006290420ED0B0F1804F0BD0A2F56F
:101294009832904207D002F58062904203D002F562
:1012A4008062904203D123F070034A681343184AC2
:1012B400904212D002F5006290420ED0B0F1804FFD
:1012C4000BD0A2F59832904207D002F5806290428A
:1012D40003D002F58062904203D123F44073CA68BC
:1012E400134323F080034A69134303608B68C3628A
:1012F4000B688362064B984206D003F5006398425C
:1013040002D00123436170470B690363F9E700BF0F
:10131400002C0140A8B110B5044690F83D305BB1F3
:10132400022384F83D30211D2068FFF7A5FF012327
:1013340084F83D30002010BD80F83C3000F088FF78
:10134400EEE701207047A8B110B5044690F83D308F
:101354005BB1022384F83D30211D2068FFF78CFF28
:10136400012384F83D30002010BD80F83C3000F0AB
:1013740039FFEEE70120704730B4036A23F010030D
:101384000362036A4468826922F4E6420D6842EA11
:10139400052223F020038D6843EA0513124DA84269
:1013A40011D005F50065A8420DD00F4DA84212D00A
:1013B40005F50065A8420ED0446082614A688263E4
:1013C400036230BC704723F08003CD6843EA051301
:1013D40023F04003E9E724F440644D6944EA8504BA
:1013E4008D6944EA8504E7E7002C014038B590F89C
:1013F4003C30012B66D00D460446012380F83C3076
:10140400022380F83D300C2A1AD8DFE802F00719CD
:101414001919201919193419191947000068FFF707
:10142400D7FD2268936943F00803936122689369A6
:1014340023F0040393612268936929690B43936140
:10144400012384F83D30002084F83C0038BD006856
:10145400FFF792FF2268936943F400639361226863
:10146400936923F48063936122689369296943EA49
:1014740001239361E4E70068FFF7E0FD2268D36984
:1014840043F00803D3612268D36923F00403D361D2
:101494002268D36929690B43D361D1E70068FFF758
:1014A40007FE2268D36943F40063D3612268D369D9
:1014B40023F48063D3612268D369296943EA012351
:1014C400D361BDE7022038BD10B4012303FA01F44F
:1014D400036A23EA04030362036A8A401343036230
:1014E40010BC704710B5044601220068FFF7ECFFFA
:1014F40023680C4A934212D002F5006293420CD046
:1015040000221AB15A6C42F400425A6422681368E9
:1015140043F001031360002010BD0122F1E7012212
:10152400EFE700BF002C014010B50446002200681C
:10153400FFF7CAFF2368174A934229D002F50062D5
:10154400934223D000226AB1196A41F21112114266
:1015540008D1196A40F24442114203D15A6C22F470
:1015640000425A642368196A41F21112114208D1E7
:10157400196A40F24442114203D11A6822F001026E
:101584001A60012384F83D30002010BD0122DAE7FF
:101594000122D8E7002C014090F83C30012B25D0E3
:1015A400012380F83C30CB6823F440738A681343EA
:1015B40023F480634A68134323F400630A681343E3
:1015C40023F480530A69134323F400534A691343F1
:1015D40023F480438A69134323F4004313430268CA
:1015E4005364002380F83C3018467047022070474B
:1015F40090F83C30012B22D030B4012280F83C20FA
:10160400022380F83D300468636823F0700363604C
:10161400046863680D682B4363600468A36823F05F
:101624008003A3600468A36849680B43A36080F83F
:101634003D20002380F83C30184630BC704702201F
:10164400704700002DE9F04705460268136923F44A
:101654004053C1680B4313618368026913434269B1
:1016640013430168CA6822F4B05222F00C021343F7
:10167400CB600268536923F4407381690B4353615F
:10168400D0F80080594B984557D0FFF7F7FB00EB93
:10169400800000EB80006C68A400B0FBF4F4544FAD
:1016A400A7FB043464092601FFF7E8FB00EB800084
:1016B40000EB80006C68A400B0FBF4FAFFF7DEFBDB
:1016C40000EB800000EB80006C68A400B0FBF4F435
:1016D400A7FB043464094FF0640909FB14A4240132
:1016E4003234A7FB0434640904F0F0043444FFF7F3
:1016F400C5FB00EB800000EB80006E68B600B0FB19
:10170400F6F6FFF7BBFB00EB800000EB80006B6894
:101714009B00B0FBF3F0A7FB0030400909FB106904
:101724004FEA091909F13209A7FB0937C7F343172F
:101734002744C8F80870BDE8F087FFF7AFFB00EB5B
:10174400800000EB80006C68A400B0FBF4F4284F28
:10175400A7FB043464092601FFF7A0FB00EB80001B
:1017640000EB80006C68A400B0FBF4FAFFF796FB72
:1017740000EB800000EB80006C68A400B0FBF4F484
:10178400A7FB043464094FF0640909FB14A4240181
:101794003234A7FB0434640904F0F0043444FFF742
:1017A4007DFB00EB800000EB80006E68B600B0FBB0
:1017B400F6F6FFF773FB00EB800000EB80006B682C
:1017C4009B00B0FBF3F3A7FB03235B0909FB13693D
:1017D4004FEA091909F13209A7FB0937C7F343177F
:1017E4002744C8F80870BDE8F08700BF00380140FE
:1017F4001F85EB5158B310B5044690F839300BB33C
:10180400242384F839302268D36823F40053D36046
:101814002046FFF717FF2268136923F490431361EE
:101824002268536923F02A0353612268D36843F47E
:101834000053D3600020E063202384F8393084F817
:101844003A3010BD80F8383000F04CFED8E7012063
:101854007047000000B585B01348144B03600023A3
:101864008360C36043614FF46022C261436001231B
:101874000361FEF7F3FD68B90A2301930123029380
:101884000023039301A90848FEF726FD38B905B0E3
:101894005DF804FB4C21064800F000F9ECE7562102
:1018A400034800F0FBF8F2E79C000020002401400C
:1018B400042E000802680E4B9A4200D0704700B50F
:1018C40087B003F56C439A6942F400729A619B698C
:1018D40003F400730193019B0F23029303230393E7
:1018E40002A90448FEF7C0FE07B05DF804FB00BF80
:1018F40000240140001001402DE9F04188B0304B34
:101904009A6942F010029A619A6902F010020092F8
:10191400009A9A6942F020029A619A6902F02002C0
:101924000192019A9A6942F004029A619A6902F05A
:1019340004020292029A9A6942F008029A619B692F
:1019440003F008030393039B1E4D002246F2C011CB
:101954002846FEF78EFF1C4E002213213046FEF768
:1019640088FF46F2C01304934FF00108CDF81480A9
:10197400002406940227079704A92846FEF774FE5C
:1019840013230493CDF814800694079704A93046D2
:10199400FEF76AFE4FF4406304930594069404A989
:1019A4002846FEF761FE4FF4787304930594069479
:1019B40004A90648FEF758FE08B0BDE8F08100BF50
:1019C400001002400010014000080140000C0140DA
:1019D40010B50D4C00224FF400512046FEF749FF8C
:1019E40000224FF480412046FEF743FFA4F5006433
:1019F400002201212046FEF73CFF0022022120465E
:101A0400FEF737FF10BD00BF0010014010B50446BB
:101A140010B314F0010F22D001224FF400511D48DD
:101A2400FEF727FF14F0020F20D001224FF480416B
:101A34001848FEF71EFF14F0040F1ED001221146B1
:101A44001548FEF716FF14F0080F1CD100220221DE
:101A54001148FEF70EFF10BDFFF7BAFFD9E70022C9
:101A64004FF400510B48FEF704FFDBE700224FF46C
:101A740080410848FEF7FDFEDDE70022012106480B
:101A8400FEF7F7FEDFE7012202210348FEF7F1FE2D
:101A940010BD00BF0010014000080140FEE7000037
:101AA40000B597B002230C930122109210221192D8
:101AB4001393002314934FF4601315930CA8FEF7AB
:101AC400F5FE50BB0F2307930221089100230993CD
:101AD4004FF480620A920B9307A8FFF70DF900BB3D
:101AE400022301934FF44043039301A8FFF7E6F95F
:101AF400D8B9FFF7BDF90F4BA3FB00308009FEF7FF
:101B040087FD0420FEF79AFD002211464FF0FF30B6
:101B1400FEF74CFD17B05DF804FBA3210648FFF760
:101B2400BDFFB1210448FFF7B9FFB8210248FFF710
:101B3400B5FF00BFD34D6210142E000808B5FEF7A0
:101B440093FBFFF7ADFFFFF7D7FEFFF783FE00F02F
:101B5400D9FB00F00FFB00F013FC00F04FFC00F089
:101B6400A3FC054B1B680021986800F033FD00F0CE
:101B740005F800F055F8FAE70C00002010B5002035
:101B8400FFF744FF4FF47A70FEF792FB002417E04E
:101B940020212148FEF766FE01282FD04FF4006172
:101BA4001E48FEF75FFE01282CD04FF480611B48CD
:101BB400FEF758FE012829D04FF49670FEF778FB03
:101BC400E0B2FFF723FF20211348FEF74BFE002865
:101BD400DED14FF4006100F1804000F58830FEF75B
:101BE40041FE0028D4D14FF4806100F1804000F51B
:101BF4008830FEF737FE0028E5D0C9E7042CCDDC99
:101C04000134CBE7002CD0DB013CCEE74FF49670D7
:101C1400FEF74EFB60B210BD000C01400010014005
:101C240010B504286CD8DFE800F0031B32455800D7
:101C34004FF47A70FEF73CFB00F066F84FF4C8519D
:101C4400084600F033F94FF47A70FEF731FB00F0E8
:101C54000FF94FF47A70FEF72BFB00F09FF810BDDC
:101C64004FF47A70FEF724FB00F04EF82548014645
:101C740000F01CF94FF47A70FEF71AFB00F0F8F844
:101C84004FF47A70FEF714FB00F088F810BD4FF49F
:101C94007A70FEF70DFB00F037F8002406E000F040
:101CA40043F94FF47A70FEF703FB0134032CF6DD9D
:101CB40000F074F84FF47A70FEF7FAFA00F024F8A2
:101CC400002406E000F066F94FF47A70FEF7F0FAAB
:101CD4000134032CF6DD00F061F84FF47A70FEF75E
:101CE400E7FA00F011F8002406E000F089F94FF457
:101CF4007A70FEF7DDFA0134012CF6DD00F04EF8BF
:101D040010BD00BF00E7FFFF08B51F4960230B604B
:101D140001234B6000238B600B6108221B48FFF7F3
:101D240065FBE0B9184960230B6001234B60002375
:101D34008B600B610C221648FFF758FBA0B90821F1
:101D44001248FFF7CFFBA0B90C211148FFF7CAFBDB
:101D5400A0B9012240210F48FEF78BFD08BD1A21CE
:101D64000D48FFF79BFEDDE723210B48FFF796FEA6
:101D7400E5E728210848FFF791FEE5E72C2106480E
:101D8400FFF78CFEE5E700BFCC000020A80100208F
:101D9400E800002000100140242E000810B52F494F
:101DA40060230B6000234B608B600B6108222C487E
:101DB400FFF71CFB002833D1284960230B60002364
:101DC4004B608B600B610C222648FFF70FFB60BB56
:101DD40008212348FFF7A8FB60BB0C212148FFF72B
:101DE400A3FB60BB1E4800234360FFF7ACFA58BB5B
:101DF4001C4800234360FFF7A6FA50BB1A4C00228C
:101E040040212046FEF735FD002280212046FEF7C2
:101E140030FD00224FF480712046FEF72AFD10BDEC
:101E24003A211248FFF73AFEC6E743210F48FFF76D
:101E340035FECDE748210D48FFF730FECDE74C21B4
:101E44000A48FFF72BFECDE752210848FFF726FE8C
:101E5400CEE758210548FFF721FECFE7CC0000204C
:101E6400A8010020E800002000100140242E0008F2
:101E740008B50B4800234360FFF765FA30B90948F9
:101E840000234360FFF75FFA28B908BD65210648BF
:101E9400FFF704FEF3E76B210348FFF7FFFDF4E7C8
:101EA400A8010020E8000020242E000838B50C46C4
:101EB400051E17DD012280211748FEF7DAFC002CED
:101EC40017DD00224FF480711348FEF7D2FC13484B
:101ED4004560FFF738FAA0B911484460FFF733FAB8
:101EE400A0B938BD002280210B48FEF7C2FC6D4228
:101EF400E5E701224FF480710748FEF7BAFC64421B
:101F0400E5E787210748FFF7C9FDE5E78D21054887
:101F1400FFF7C4FDE5E700BF00100140A801002061
:101F2400E8000020242E000810B5FFF7A1FF154C8F
:101F3400012280212046FEF79CFC01224FF480718F
:101F44002046FEF796FC10484FF4FA534360FFF71F
:101F5400FAF968B90D484FF4FA534360FFF7F3F9FF
:101F640058B94FF48670FEF7A3F9FFF781FF10BD4F
:101F74009A210748FFF792FDECE7A0210448FFF7F8
:101F84008DFDEEE700100140A8010020E8000020CC
:101F9400242E000810B5FFF76BFF154C002280219A
:101FA4002046FEF766FC00224FF480712046FEF7BF
:101FB40060FC10484FF4FA534360FFF7C4F968B962
:101FC4000D484FF4FA534360FFF7BDF958B94FF485
:101FD4008670FEF76DF9FFF74BFF10BDB02107487F
:101FE400FFF75CFDECE7B6210448FFF757FDEEE789
:101FF40000100140A8010020E8000020242E000861
:1020040010B5FFF735FF154C012280212046FEF75D
:1020140030FC01224FF480712046FEF72AFC104860
:102024004FF4FA534360FFF78EF968B90D484FF443
:10203400FA534360FFF787F958B94FF40670FEF777
:1020440037F9FFF715FF10BDC6210748FFF726FD36
:10205400ECE7CC210448FFF721FDEEE70010014036
:10206400A8010020E8000020242E000800B583B059
:10207400244B9A6942F001029A619A6902F00102C2
:102084000092009ADA6942F08052DA61DB6903F067
:1020940080530193019B0320FEF776FA0022114638
:1020A4006FF00B00FEF782FA002211466FF00A006F
:1020B400FEF77CFA002211466FF00900FEF776FA6B
:1020C400002211466FF00400FEF770FA0022114658
:1020D4006FF00300FEF76AFA002211466FF0010068
:1020E400FEF764FA002211464FF0FF30FEF75EFA65
:1020F400054A536823F0E06343F00073536003B070
:102104005DF804FB00100240000001407047FEE748
:10211400FEE7FEE7FEE770477047704708B5FEF735
:10212400B5F8FEF79CFA08BD0F4B1A6842F001029D
:102134001A6059680D4A0A405A601A6822F084727B
:1021440022F480321A601A6822F480221A605A68D3
:1021540022F4FE025A604FF41F029A604FF00062AC
:10216400034B9A60704700BF001002400000FFF864
:1021740000ED00E000B587B01748184B036000235A
:1021840043608360C36003618361FFF7C3F898B958
:1021940006A94FF4805341F8103D0F48FEF7E8FFBD
:1021A40078B900230093019369460B48FFF720FA9E
:1021B40060B907B05DF804FB66210948FFF76EFCBF
:1021C400E6E76C210648FFF769FCEAE77321044857
:1021D400FFF764FCEDE700BF280100200008004081
:1021E400342E000884B00368B3F1804F07D0154A39
:1021F400934210D0144A934218D004B0704703F5A8
:102204000433DA6942F00102DA61DB6903F00103A5
:102214000193019BF1E70D4BDA6942F00802DA61A0
:10222400DB6903F008030293029BE6E7074B9A6914
:1022340042F400529A619B6903F400530393039B95
:10224400DBE700BF000C00400034014000100240F6
:102254000268094B9A4200D0704782B003F50233FA
:10226400DA6942F00402DA61DB6903F004030193E2
:10227400019B02B0F0E700BF0008004000B585B044
:102284000368B3F1804F08D0184A934219D0184A12
:10229400934220D005B05DF804FB4FF480630093B3
:1022A40002230193039369461248FEF7DDF9124AAB
:1022B400536823F4407343F0E06343F400735360C2
:1022C400E8E70823009302230193039369460B482C
:1022D400FEF7CAF9DEE74FF400730093022301937B
:1022E400039369460648FEF7BFF9D3E7000C0040A4
:1022F40000340140000C014000000140000801408E
:102304000010014000B58BB01B484FF080430360C0
:102314000023436083600C22C26003618361FFF782
:1023240012F8C8B900230893099308A91248FFF7C3
:102334005FF9B0B9602301930023029303930593DB
:10234400082201A90C48FFF751F878B90A48FFF7A9
:1023540095FF0BB05DF804FB42210848FFF79EFB94
:10236400E0E749210548FFF799FBE3E752210348D9
:10237400FFF794FBEAE700BFA8010020342E000811
:1023840000B58BB01A481B4B036000234360836085
:10239400C36003618361FEF7D6FFC8B900230893C5
:1023A400099308A91248FFF723F9B0B960230193F0
:1023B40000230293039305930C2201A90C48FFF711
:1023C40015F878B90A48FFF759FF0BB05DF804FB1C
:1023D40085210948FFF762FBE0E78C210648FFF7F7
:1023E4005DFBE3E795210448FFF758FBEAE700BFEC
:1023F40068010020000C0040342E000800B591B0A4
:102404002648274B03600023436083600C22C2608C
:10241400036143618361FEF796FF00282AD10023FC
:102424000E930F930EA91D48FFF7E2F838BB602303
:1024340007930023089309930B930C930D930C2299
:1024440007A91648FEF7D2FFF0B9002300930193C1
:102454000293039304934FF4005205920693694642
:102464000E48FFF799F8A0B90C48FFF707FF11B021
:102474005DF804FBAB210B48FFF710FBCFE7B2215B
:102484000848FFF70BFBD2E7BD210648FFF706FB20
:10249400DBE7C9210348FFF701FBE5E7E80000207B
:1024A40000340140342E000808B50B480B4B036080
:1024B4004FF4E133436000238360C36003610C2263
:1024C40042618361C361FFF795F900B908BD4221F8
:1024D4000348FFF7E3FAF9E7E80100200038014078
:1024E400442E00080268144B9A4200D0704710B57D
:1024F40086B003F558439A6942F480429A619B6915
:1025040003F480430193019B4FF40073029302236D
:10251400039303230593094C02A92046FEF7A4F86C
:102524004FF48063029300230393049302A920468B
:10253400FEF79AF806B010BD0038014000080140CB
:10254400002103E00B4B5B58435004310A480B4B0A
:1025540042189A42F6D30A4A02E0002342F8043BA6
:10256400084B9A42F9D3FFF7DFFD00F00FF8FFF7AD
:10257400E5FA7047C02E000800000020700000201B
:10258400700000202C020020FEE7000070B500253A
:102594000C4E0D4CA41BA410A54209D100F00EFC56
:1025A40000250A4E0A4CA41BA410A54205D170BDF7
:1025B40056F8253098470135EEE756F82530984708
:1025C4000135F2E7B82E0008B82E0008B82E00082E
:1025D400BC2E000800294FF480630CBF02220022A5
:1025E40000F000B82DE9F7431D46514B04461E6820
:1025F4000F46904626B1B36913B9304600F092F9FC
:102604004C4B9C4252D17468B8F1020F06D0B8F119
:10261400010F00F28980002DC0F2868021463046E9
:1026240000F016F9616B41B104F14403994202D000
:10263400304600F035FA002363630023A36163602E
:10264400A3891B0603D52169304600F029FAA38922
:10265400B8F1020F23F44A6323F00303A3815DD08E
:1026640001AB6A462146304600F0E6F9A3891843D7
:10267400A0812DBB009D284600F002FA07460028E1
:102684004ED1DDF80090A9453CD14FF0FF30A3892D
:1026940043F00203A3810023A36004F147032360F2
:1026A40023610123636103B0BDE8F083224B9C42A4
:1026B40001D1B468A8E7214B9C4208BFF468A3E7A2
:1026C400002FD8D0B36913B9304600F02BF9B8F114
:1026D400010F08BFA389276004BF43F00103A3814E
:1026E400A389276113F0080065611BD013F0010072
:1026F4004FF000031FBF6D42A360A561184608BFD9
:10270400A560D0E7484600F0BBF907460028BCD0D6
:10271400A3894D4643F08003A381D3E70020B6E7A5
:10272400A946F5E7A060BEE74FF0FF30BBE700BF66
:102734000C000020782E0008982E0008582E00085F
:102744008A892DE9F041054610070C465AD44B6896
:10275400002B05DC0B6C002B02DC0020BDE8F081B3
:10276400E66A002EF9D0002312F480522F682B6001
:1027740033D0606DA3895A0705D56368C01A636BAB
:102784000BB1236CC01A00230246E66A216A28466C
:10279400B047431CA38906D129681D294BD82B4A6D
:1027A400CA40D60747D5002262602269D904226054
:1027B40004D5421C01D12B6803B96065616B2F609D
:1027C4000029CAD004F14403994202D0284600F0FB
:1027D40067F900206063BDE8F081216A012328467F
:1027E400B047411CC6D12B68002BC3D01D2B01D090
:1027F400162B01D12F60B0E7A38943F04003A381D6
:10280400BDE8F0810F69002FA7D0930718BF0023FC
:102814000E6808BF4B69A6EB07080F608B60B8F120
:10282400000F9ADD43463A46216A2846A66AB04715
:10283400002807DCA38943F04003A3814FF0FF3055
:10284400BDE8F0810744A8EB0008E8E70100402058
:1028540038B50B6905460C46DBB118B183690BB971
:1028640000F060F80C4B9C4209D16C68B4F90C3050
:102874007BB121462846BDE83840FFF761BF074BCE
:102884009C4201D1AC68F1E7054B9C4208BFEC685F
:10289400ECE7002038BD00BF782E0008982E000811
:1028A400582E0008014900F0A9B800BF55280008B7
:1028B400002310B50446036043608360818143664E
:1028C400C281036143618361194608225C3000F0D0
:1028D400DFF8054B24626362044BA362044BE3629A
:1028E400044B236310BD00BF192C00083B2C0008C7
:1028F400732C0008972C000870B568254A1E5543B0
:102904000E4605F1740100F017F9044640B10021A8
:1029140080E842000C30A06005F1680200F0B8F8CD
:10292400204670BD836910B5044633BB8364C36419
:102934000365124B124A1B688262984204BF01234A
:10294400836100F01FF86060204600F01BF8A0606F
:10295400204600F017F80022E06004216068FFF7C9
:10296400A7FF01220921A068FFF7A2FF022212217A
:10297400E068FFF79DFF0123A36110BD542E0008FA
:10298400A9280008F8B51C4B07461E68B36913B99B
:102994003046FFF7C7FF4836B4687368013B03D578
:1029A400336833B13668F7E7B4F90C506DB1683465
:1029B400F4E704213846FFF79FFF30600028F1D187
:1029C4000C2304463B602046F8BD4FF6FF73E381B9
:1029D40001236566A3812560A56065602561656145
:1029E400A5610822294604F15C0000F051F86563F2
:1029F400A563A564E564E6E7542E00082DE9F843D1
:102A040080468946002600F1480414B93046BDE8E2
:102A1400F883A5686768013F01D52468F5E7AB89A9
:102A2400012B07D9B5F90E30013303D029464046AE
:102A3400C84706436835EEE770B50E46B1F90E1087
:102A440090B0002914461D4607DA00232B60B38991
:102A54001A0610D44FF480630EE001AA00F040F986
:102A64000028F2DB029A02F47042A2F500535A42A3
:102A74005A412A60EEE740230020236010B070BD65
:102A8400024B0146186800F057B800BF0C00002044
:102A940003460244934200D1704703F8011BF9E74F
:102AA40038B50546002943D051F8043C0C1F002BCF
:102AB400B8BFE41800F038F91E4A1368104633B959
:102AC400636014602846BDE8384000F02EB9A34284
:102AD4000BD921686218934201BF1A685B685218C7
:102AE400226063600460EDE713465A680AB1A242AB
:102AF400FAD919685818A0420BD120680144581813
:102B040082421960DED110685268014419605A602B
:102B1400D8E702D90C232B60D4E7206821188A4215
:102B240001BF116852680918216062605C60C9E7DE
:102B340038BD00BF8C00002070B5CD1C25F0030506
:102B440008350C2D38BF0C25002D064601DBA942A3
:102B540003D90C233360002070BD00F0E5F8234A4C
:102B64001468214691B9224C23681BB9304600F001
:102B740041F820602946304600F03CF8431C26D139
:102B84000C233046336000F0D0F8E4E70B685B1B9D
:102B94001AD40B2B0FD90B60CC18CD50304600F053
:102BA400C4F804F10B00231D20F00700C31A1BD046
:102BB4005A42E25070BD8C420BBF63684B6813608D
:102BC400636018BF0C46E9E70C464968CAE7C41CB1
:102BD40024F00304A04205D0211A304600F00AF87C
:102BE4000130CDD02560D9E770BD00BF8C00002036
:102BF4009000002038B50023054C054608462360A4
:102C040000F0C6F8431C02D1236803B12B6038BD21
:102C14002802002010B50C46B1F90E1000F086F819
:102C24000028ABBF636DA3891B1823F48053ACBF8A
:102C34006365A38110BD2DE9F0411F468B890546CC
:102C4400DB050C46164605D502230022B1F90E1009
:102C540000F058F8A389324623F48053A381B4F9D1
:102C64000E103B462846BDE8F04100F017B810B5F9
:102C74000C46B1F90E1000F045F8431CA38915BFAA
:102C8400606523F4805343F48053A38118BFA38168
:102C940010BDB1F90E1000F013B8000038B50546A8
:102CA400084611460022054C22601A4600F07EF8C0
:102CB400431C02D1236803B12B6038BD28020020D5
:102CC40038B50023054C05460846236000F040F85B
:102CD400431C02D1236803B12B6038BD28020020B5
:102CE40038B50023064C054608461146236000F01B
:102CF40037F8431C02D1236803B12B6038BD00BFF1
:102D04002802002038B50546084611460022054C25
:102D140022601A4600F02CF8431C02D1236803B148
:102D24002B6038BD280200207047704738B505462F
:102D3400084611460022054C22601A4600F020F88D
:102D4400431C02D1236803B12B6038BD2802002044
:102D54005822024B4FF0FF301A60704728020020BF
:102D64005822024B4FF0FF301A60704728020020AF
:102D74005822024B4FF0FF301A607047280200209F
:102D84005822024B4FF0FF301A607047280200208F
:102D9400044B0246196809B90349196018680244CA
:102DA4001A60704794000020300200205822024B21
:102DB4004FF0FF301A60704728020020F8B500BFBA
:102DC400F8BC08BC9E467047F8B500BFF8BC08BC08
:042DD4009E46704760
:102DD80002030405060708090A0B0C0D0E0F101054
:102DE80001020000000000000000000001020304CE
:102DF8000607080900000000010203042E2E5C5398
:102E080072635C6164632E63000000002E2E5C53C5
:102E180072635C6D61696E2E630000002E2E5C5338
:102E280072635C6D6F74696F6E2E63002E2E5C5337
:102E380072635C74696D2E63000000002E2E5C5373
:102E480072635C75736172742E6300001000002059
:102E5800000000000000000000000000000000006A
:102E6800000000000000000000000000000000005A
:102E7800000000000000000000000000000000004A
:102E8800000000000000000000000000000000003A
:102E9800000000000000000000000000000000002A
:102EA800000000000000000000000000000000001A
:042EB8000902000803
:042EBC00E501000824
:102EC000010000001000000000A24A0410000020D1
:102ED00000000000782E0008982E0008582E0008E8
:102EE00000000000000000000000000000000000E2
:102EF00000000000000000000000000000000000D2
:102F000000000000000000000000000000000000C1
:102F100000000000000000000000000000000000B1
:102F200000000000000000000000000000000000A1
:040000050800254585
:00000001FF
