:020000040800F2
:100000000000012049200008AD1C0008AF1C0008BA
:10001000B11C0008B31C0008B51C0008000000005B
:10002000000000000000000000000000B71C0008F5
:10003000B91C000800000000BB1C0008BD1C000823
:1000400091200008912000089120000891200008CC
:1000500091200008912000089120000891200008BC
:1000600091200008912000089120000891200008AC
:10007000912000089120000891200008912000089C
:10008000912000089120000891200008912000088C
:10009000912000089120000891200008912000087C
:1000A000912000089120000891200008912000086C
:1000B000912000089120000891200008912000085C
:1000C000912000089120000891200008912000084C
:1000D000912000089120000891200008912000083C
:1000E000912000089120000891200008912000082C
:1000F000912000089120000891200008912000081C
:10010000912000089120000891200008912000080B
:1001100091200008912000089120000891200008FB
:1001200091200008912000089120000891200008EB
:1001300000000000000000000000000000000000BF
:1001400000000000000000000000000000000000AF
:10015000000000000000000000000000000000009F
:10016000000000000000000000000000000000008F
:10017000000000000000000000000000000000007F
:10018000000000000000000000000000000000006F
:10019000000000000000000000000000000000005F
:1001A000000000000000000000000000000000004F
:1001B000000000000000000000000000000000003F
:1001C000000000000000000000000000000000002F
:1001D000000000000000000000000000000000001F
:0401E0005FF8E0F1F3
:1001E40010B5054C237833B9044B13B10448AFF36D
:1001F40000800123237010BD740000200000000063
:10020400702F000808B5034B1BB103490348AFF333
:10021400008008BD0000000078000020702F000856
:1002240010B504460E4B18784FF47A73B3FBF0F311
:100234000C4A1068B0FBF3F000F048FB68B90F2CCF
:1002440001D9012010BD002221464FF0FF3000F0FB
:100254000BFB034B5C60002010BD012010BD00BFF0
:10026400000000200C00002008B5074A136843F082
:1002740010031360032000F0E5FA0020FFF7D0FF1D
:1002840001F0C2FC002008BD00200240034A1168AE
:10029400034B1B780B441360704700BF9C00002085
:1002A40000000020014B1868704700BF9C0000202C
:1002B400F0B583B005460C4600230193FFF7F2FF27
:1002C4002B689A6812F4807F23D106465A6812F488
:1002D400807F03D1DB6A13F4700F24D04B4B1F686B
:1002E400022000F0BBFFB7FBF0F72B681969484AFE
:1002F40011422FD1D96802F15C4211422AD1196905
:10030400444A114239D1DA68434B1A4237D0292082
:100314003AE0AB6A43F02003AB62002385F8243053
:10032400012003B0F0BD2B681B6813F0020F48D105
:10033400B4F1FF3FF7D024B1FFF7B4FF801B844230
:10034400F1D2AB6A43F00403AB62002385F8243096
:100354000320E6E719692F4A114204D1D96802F152
:100364006E4211420DD019692C4A0A405AB9DA6812
:100374002A4B13405BB1FC2006E0292004E0142042
:1003840002E0542000E0FC2007FB00F704E05420C6
:10039400FAE7019B01330193019B9F4211D9B4F108
:1003A400FF3FF6D024B1FFF77DFF801B8442F0D2DB
:1003B400AB6A43F00403AB62002385F824300320C6
:1003C400AFE72B686FF012021A60AB6A43F4007354
:1003D400AB622B689B6803F46023B3F5602F01D0F4
:1003E40000209EE7EB686BB9AB6A23F48073AB62C1
:1003F400AB6A13F4805F07D1AB6A43F00103AB62CD
:1004040000208EE700208CE700208AE70C00002003
:1004140024499224922449129224490049922400A6
:100424000368D86C7047000030B482B00023019395
:1004340090F82430012B00F08B800246012380F8D1
:1004440024304B68062B29D80568686B03EB8303BB
:10045400053B1F249C4020EA04000C6804FA03F3C3
:1004640003436B630B68092B38D91568E86803EB01
:1004740043031E3B07249C4020EA04008C6804FAD2
:1004840003F30343EB600B68103B012B34D90020CA
:10049400002382F8243002B030BC70470C2B0ED8F5
:1004A4000568286B03EB8303233B1F249C4020EA4D
:1004B40004000C6804FA03F303432B63D2E70568D2
:1004C400E86A03EB8303413B1F249C4020EA0400B9
:1004D4000C6804FA03F30343EB62C3E71568286965
:1004E40003EB430307249C4020EA04008C6804FACD
:1004F40003F303432B61C6E713681648834205D010
:10050400936A43F0200393620120C1E7986810F4D2
:10051400000F1BD1986840F4000098600B68102B02
:1005240001D00020B4E70C4B1B680C49A1FB03135A
:100534009B0C03EB83035900019102E0019B013BF7
:100544000193019B002BF9D10020A1E700209FE734
:100554000220A0E7002401400C00002083DE1B439E
:1005640030B583B00023019303689A6812F0010F39
:100574002ED19A6842F001029A60174B1B68174A01
:10058400A2FB03239B0C019302E0019B013B01931B
:10059400019B002BF9D10446FFF784FE054623682E
:1005A4009B6813F0010F11D1FFF77CFE401B02285A
:1005B400F5D9A36A43F01003A362E36A43F001038D
:1005C400E362002384F82430012002E0002000E0EC
:1005D400002003B030BD00BF0C00002083DE1B43AD
:1005E40090F82430012B02D102231846704710B52D
:1005F4000446012380F82430FFF7B2FF03460028A5
:100604005BD1A26A22F4407222F0010242F48072A9
:10061400A26222682B498A4227D0A16A21F4801160
:10062400A162516811F4806F05D0A16A21F4405190
:1006340041F48051A162A16A11F4805F2BD0E16A78
:1006440021F00601E162002184F824106FF0020118
:1006540011602268916801F46021B1F5602F1DD00A
:10066400916841F4801191602AE0A1F580614968A4
:1006740011F4702FD1D0A16A41F48011A162124902
:10068400496811F4806FD6D0A16A21F4405141F435
:100694008051A162CFE70021E162D4E709498A428F
:1006A40004D0916841F4A001916009E0A1F5806152
:1006B400496811F4702FD3D1F3E7002284F8242081
:1006C400184610BD002801400024014038B50368D5
:1006D4009A6812F0010F01D1002038BD04469A68CF
:1006E40022F001029A60FFF7DDFD054623689B684E
:1006F40013F0010F0ED0FFF7D5FD401B0228F5D9EA
:10070400A36A43F01003A362E36A43F00103E362C4
:10071400012038BD002038BD002800F08A8070B563
:100724000446836A002B4DD02046FFF7CFFFA36A0F
:1007340013F0100377D1002875D1A26A22F48852ED
:1007440022F0020242F00202A262656821683A4A7B
:1007540091423DD0E2692A43E66842EA4602A5682E
:10076400B5F5807F3ED0012D39D06569012D3CD08F
:100774004D6825F469452B434B6021688D682F4BE8
:100784002B4013438B60A368B3F5807F3ED0012BCD
:100794003CD000232568E96A21F470010B43EB6225
:1007A40023689968264B0B409A4233D0A36A23F0FE
:1007B400120343F01003A362E36A43F00103E3620C
:1007C400012070BDC36280F8243001F0D5F8ABE796
:1007D400E269B2F5402FBED14FF40022BBE74FF4DB
:1007E4008073C2E74FF48073BFE736B9A569013D52
:1007F40043EA453343F40063BAE7A56A45F02005AC
:10080400A562E56A45F00105E562B1E72369013BAC
:100814001B05BFE70023E362A36A23F0030343F04D
:100824000103A36270BDA36A43F01003A362012015
:1008340070BD0120704700BF003C0140FDF7E1FF9F
:10084400FE0E1FFF074AD36823F4E0631B041B0C4E
:10085400000200F4E060184340F0BF6040F4003050
:10086400D060704700ED00E030B4164BDB68C3F392
:100874000223C3F10704042C28BF04241D1D062DE4
:1008840017D9033B012505FA04F4013C21409940A2
:1008940005FA03F3013B1340194300280BDB09015C
:1008A400C9B200F1604000F5614080F8001330BC2B
:1008B40070470023E6E700F00F000901C9B2024BBC
:1008C4001954F4E700ED00E014ED00E00138B0F154
:1008D400807F0AD2064B5860F021064A82F8231022
:1008E4000020986007221A6070470120704700BFFB
:1008F40010E000E000ED00E0042805D0054A13688C
:1009040023F0040313607047024A136843F004039E
:100914001360704710E000E0704708B5FFF7FCFF74
:1009240008BD0000F0B583B00026344679E0002D00
:1009340000F0A980012D00D1CE68FF2B00F2B78012
:100944008646FF2B00F2B680A500DEF800200F27B4
:10095400AF4022EA070206FA05F52A43CEF8002042
:100964004A6812F0805F5BD0674A956945F00105DB
:100974009561926902F001020192019AA208971C02
:10098400624D55F8275004F003074FEA870E0F27EE
:1009940007FA0EF725EA07055D4FB84200F090808C
:1009A40007F58067B84200F08D8007F58067B8428C
:1009B40000F08A8007F58067B84200F0878007F569
:1009C4008067B84200F0848007F58067B84275D02C
:1009D400062707FA0EF73D4302324C4F47F82250E0
:1009E4004A6812F4803F75D04A4D2A681A432A6037
:1009F4004A6812F4003F73D0464D6A681A436A602D
:100A04004A6812F4801F71D0424DAA681A43AA6042
:100A14004A6812F4001F6FD03E4DEA681343EB603E
:100A240001340F2C6ED80122A2400B6813409A4265
:100A3400F6D14D68122D30D00BD8022D2AD07FF676
:100A440076AF032D2FD0112D7FF477AFCE68043607
:100A540073E7314FBD4216D00CD9304FBD4212D08E
:100A640007F58037BD420ED0A7F58017BD427FF44D
:100A740064AF08E0A7F58017BD4204D007F58037BE
:100A8400BD427FF45AAF8D687DB1012D08D042611B
:100A9400082652E7CE6808364FE7CE680C364CE796
:100AA4000261082649E7002647E7042645E700F1E6
:100AB400040E46E7A4F10805AD0046E7052788E7DC
:100AC400002786E7012784E7022782E7032780E7D8
:100AD40004277EE70F4D2A6822EA03022A6087E78B
:100AE4000C4D6A6822EA03026A6089E7094DAA6824
:100AF40022EA0302AA608BE7064DEA6822EA0303AE
:100B0400EB608DE703B0F0BD00100240000001402F
:100B140000080140000401400000211000003110D1
:100B240012B90904016170470161704782B0084B32
:100B34001B68084AA2FB03235B0A00FB03F0019035
:100B440000BF019B5A1E0192002BF9D102B07047DD
:100B54000C000020D34D621070B582B004460368C7
:100B640013F0010F3DD0AC4B5B6803F00C03042B76
:100B74002ED0A94B5B6803F00C03082B23D06368C9
:100B8400B3F5803F51D0002B55D103F1804303F5D9
:100B940004331A6822F480321A601A6822F480221C
:100BA4001A606368002B60D0FFF77CFB05469A4B04
:100BB4001B6813F4003F14D1FFF774FB401B642837
:100BC400F5D90320AFE1944B5B6813F4803FD6D092
:100BD400914B1B6813F4003F03D06368002B00F0B3
:100BE4009F81236813F0020F65D08B4B5B6813F071
:100BF4000C0F4ED0884B5B6803F00C03082B43D0DA
:100C04002369002B79D00122844B1A60FFF74AFB39
:100C14000546814B1B6813F0020F65D1FFF742FBB9
:100C2400401B0228F5D903207DE17B4A136843F475
:100C340080331360B5E7B3F5A02F09D0764B1A685B
:100C440022F480321A601A6822F480221A60A8E71B
:100C540003F18043A3F53C331A6842F480221A60FE
:100C64001A6842F480321A609BE7FFF71BFB0546C3
:100C7400694B1B6813F4003FB3D0FFF713FB401B11
:100C84006428F5D903204EE1634B5B6813F4803F7D
:100C9400B6D1614B1B6813F0020F04D02369012BFA
:100CA40001D001203FE15C4A136823F0F803616935
:100CB40043EAC1031360236813F0080F32D0A36919
:100CC400002B6ED00122564B1A60FFF7EBFA054653
:100CD400514B5B6A13F0020F21D1FFF7E3FA401B7B
:100CE4000228F5D903201EE14B4A136823F0F803C8
:100CF400616943EAC1031360DDE70022474B1A60D0
:100D0400FFF7D0FA0546444B1B6813F0020FD2D00C
:100D1400FFF7C8FA401B0228F5D9032003E101209C
:100D2400FFF704FF236813F0040F00F099803A4B97
:100D3400DB6913F0805F46D1374BDA6942F08052A9
:100D4400DA61DB6903F080530193019B0125354B84
:100D54001B6813F4807F38D0E368012B49D0002B43
:100D64004DD103F1804303F504331A6A22F00102E2
:100D74001A621A6A22F004021A62E368002B5DD038
:100D8400FFF790FA0646244B1B6A13F0020F66D154
:100D9400FFF788FA801B41F288339842F3D9032085
:100DA400C1E000221E4B1A60FFF77CFA05461A4B7D
:100DB4005B6A13F0020FB5D0FFF774FA401B0228E8
:100DC400F5D90320AFE00025C1E7164A136843F4C0
:100DD40080731360FFF766FA0646124B1B6813F420
:100DE400807FB9D1FFF75EFA801B6428F5D9032010
:100DF40099E0094A136A43F001031362BDE7052B26
:100E040012D0054B1A6A22F001021A621A6A22F001
:100E140004021A62B1E700BF00100240000042421F
:100E24008004424200700040414B1A6A42F00402BE
:100E34001A621A6A42F001021A629EE7FFF732FA56
:100E440006463B4B1B6A13F0020F08D0FFF72AFA41
:100E5400801B41F288339842F3D9032063E0E5B95B
:100E6400E369002B5ED0324A526802F00C02082A71
:100E74005BD0022B17D000222E4B1A60FFF712FA18
:100E840004462B4B1B6813F0007F47D0FFF70AFA88
:100E9400001B0228F5D9032045E0254AD36923F035
:100EA4008053D361DCE70022224B1A60FFF7FAF982
:100EB40005461F4B1B6813F0007F06D0FFF7F2F9BD
:100EC400401B0228F5D903202DE0236AB3F5803FA7
:100ED4001AD017494B6823F47413226A606A0243D8
:100EE40013434B600122134B1A60FFF7DBF90446EE
:100EF4000F4B1B6813F0007F0ED1FFF7D3F9001BD3
:100F04000228F5D903200EE0094A536823F400337C
:100F1400A1680B435360DCE7002004E0002002E0FA
:100F2400012000E0002002B070BD0120FBE700BFFB
:100F3400001002406000424210B586B0154C94E89F
:100F44000F000DF1180E0EE90F00238AADF80430DE
:100F5400114B5B6803F00C02082A18D1C3F38342D7
:100F6400724412F8102C13F4803F03D10B4800FB99
:100F740002F00DE0084B5B68C3F34043734413F87D
:100F8400143C074800FB02F0B0FBF3F000E0044817
:100F940006B010BD882F00080010024000093D0073
:100FA40000127A00594B1B6803F007038B420CD2E2
:100FB400564A136823F007030B431360136803F0C6
:100FC4000703994201D00120704770B5036813F0FC
:100FD400020F06D04E4A536823F0F003846823437B
:100FE40053600D460446036813F0010F52D0436862
:100FF400012B23D0022B28D0454A126812F0020F8D
:1010040000F0828042494A6822F0030213434B6095
:10101400FFF748F906466368012B1DD0022B2AD03E
:101024003B4B5B6813F00C0F34D0FFF73BF9801B8C
:1010340041F288339842F3D9032070BD344A1268D0
:1010440012F4003FDED1012070BD314A126812F063
:10105400007FD7D1012070BD2D4B5B6803F00C03DA
:10106400042B17D0FFF71EF9801B41F288339842F6
:10107400F2D9032070BD264B5B6803F00C03082BE8
:1010840008D0FFF70FF9801B41F288339842F2D958
:10109400032070BD1D4B1B6803F007039D420CD257
:1010A4001A4A136823F007032B431360136803F0F1
:1010B40007039D4201D0012070BD236813F0040F83
:1010C40006D0134A536823F4E063E1680B4353608A
:1010D400236813F0080F07D00D4A536823F46053B4
:1010E400216943EAC1035360FFF726FF084B5B689D
:1010F400C3F30313074AD35CD840074B186000209E
:10110400FFF78EF8002070BD012070BD0020024062
:1011140000100240B02F00080C000020014B18689A
:10112400704700BF0C00002008B5FFF7F7FF044B21
:101134005B68C3F3C223034AD35CD84008BD00BF35
:1011440000100240C02F000870B582B00446036846
:1011540013F0010F34D03E4BDB6913F0805F48D1AC
:101164003B4BDA6942F08052DA61DB6903F0805369
:101174000193019B0125374B1B6813F4807F3AD000
:10118400334B1B6A13F4407311D0626802F440724B
:1011940093420CD02E4A136A23F440702E49012640
:1011A4000E6000260E60106213F0010F37D1284A3A
:1011B400136A23F4407361680B431362002D3FD11B
:1011C400236813F0020F06D0214A536823F44043E6
:1011D400A1680B435360236813F0100F35D01C4AE9
:1011E400536823F4800361690B435360002002B009
:1011F40070BD0025BFE7174A136843F4807313607A
:10120400FFF750F80646134B1B6813F4807FB7D1E1
:10121400FFF748F8801B6428F5D90320E7E7FFF7B8
:1012240041F806460A4B1B6A13F0020FBFD1FFF7C1
:1012340039F8801B41F288339842F3D90320D6E76A
:10124400D36923F08053D361BAE70020CFE700BF0E
:1012540000100240007000404004424230B587B0A4
:1012640005463F4C94E80F000DF1180E0EE90F00EF
:10127400238AADF80430681E0F2869D8DFE800F02F
:10128400395D6832686868366868686868686808DC
:10129400344B5A681B6813F0807F5BD0C2F38343DE
:1012A40006A90B4413F8100C12F4803F16D02D4BF2
:1012B4005B68C3F340430B4413F8142C2A4BB3FB71
:1012C400F2F303FB00F0274B5B6813F4800F0BD1A0
:1012D4004000264BA3FB0030400805E0244B03FBF1
:1012E40000F0F0E7FFF728FE07B030BDFFF724FE5B
:1012F400FAE71C4B1B6A40F202321A40B2F5817FB6
:101304002AD003F44073B3F5007F04D0B3F5407FD3
:1013140009D00020E8E7134A526A12F0020FF5D010
:1013240049F64040E0E70F4B1B6813F4003F02D03E
:101334004FF22440D8E70020D6E7FFF7F5FE094B2B
:101344005B68C3F3813301335B00B0FBF3F0CBE79D
:101354000020C9E70020C7E74FF40040C4E700BFFE
:101364009C2F00080010024000127A00ABAAAAAA1F
:1013740000093D0030B4036A23F001030362036AE9
:101384004468826922F073020D682A4323F0020341
:101394008D682B43114DA84211D005F50065A84274
:1013A4000DD00E4DA84211D005F50065A8420DD010
:1013B400446082614A684263036230BC704723F030
:1013C4000803CD682B4323F00403EAE724F44074B4
:1013D4004D692C438D692C43EAE700BF002C014082
:1013E40030B4036A23F480730362036A4468C269F5
:1013F40022F073020D682A4323F400738D6843EAD4
:101404000523134DA84211D005F50065A8420DD05F
:101414000F4DA84212D005F50065A8420ED04460D5
:10142400C2614A68C263036230BC704723F400633C
:10143400CD6843EA052323F48063E9E724F44054A8
:101444004D6944EA05148D6944EA0514E7E700BFD1
:10145400002C014030B4036A23F480530362036A0E
:101464004468C26922F4E6420D6842EA052223F484
:1014740000538D6843EA0533094DA8420AD005F5A7
:101484000065A84206D04460C2614A6802640362EF
:1014940030BC704724F480444D6944EA8514F2E773
:1014A400002C014010B4036A046A24F001040462AD
:1014B400846924F0F00444EA021223F00A030B4383
:1014C4008261036210BC704710B4036A23F01003F6
:1014D40003628469036A24F4704444EA023223F008
:1014E400A00343EA01138261036210BC704783685E
:1014F40023F0700341F007010B438360704710B47D
:10150400846824F47F4442EA032319430C4384602F
:1015140010BC704790F83C30012B7DD010B50446C8
:10152400012380F83C30022380F83D300268936840
:1015340023F47F4323F0770393600B68402B57D049
:1015440010D9702B3ED01FD8502B47D0602B32D1EE
:10155400CA6849680068FFF7B7FF60212068FFF791
:10156400C6FF28E0102B4DD008D9202B4FD0302BAC
:1015740021D130210068FFF7BAFF1CE0DBB900215C
:101584000068FFF7B4FF16E0B3F5805F0ED0B3F543
:10159400005F10D1CB684A6889680068FFF7AFFF25
:1015A4002268936843F48043936004E0026893687C
:1015B40023F007039360012384F83D30002084F86E
:1015C4003C0010BDCB684A6889680068FFF797FF44
:1015D4002268936843F077039360ECE7CA6849682C
:1015E4000068FFF75FFF50212068FFF780FFE2E704
:1015F400CA6849680068FFF755FF40212068FFF773
:1016040076FFD8E710210068FFF771FFD3E72021A8
:101614000068FFF76CFFCEE7022070470368254A95
:10162400904212D002F5006290420ED0B0F1804F89
:101634000BD0A2F59832904207D002F58062904216
:1016440003D002F58062904203D123F070034A680C
:101654001343184A904212D002F5006290420ED011
:10166400B0F1804F0BD0A2F59832904207D002F52A
:101674008062904203D002F58062904203D123F449
:101684004073CA68134323F080034A691343036019
:101694008B68C3620B688362064B984206D003F5DD
:1016A4000063984202D00123436170470B690363CE
:1016B400F9E700BF002C0140A8B110B5044690F82A
:1016C4003D305BB1022384F83D30211D2068FFF7D3
:1016D400A5FF012384F83D30002010BD80F83C3084
:1016E40000F084FBEEE701207047A8B110B5044672
:1016F40090F83D305BB1022384F83D30211D206811
:10170400FFF78CFF012384F83D30002010BD80F8E2
:101714003C3000F035FBEEE70120704730B4036A3B
:1017240023F010030362036A4468826922F4E642E8
:101734000D6842EA052223F020038D6843EA05136D
:10174400124DA84211D005F50065A8420DD00F4DE9
:10175400A84212D005F50065A8420ED0446082610B
:101764004A688263036230BC704723F08003CD680B
:1017740043EA051323F04003E9E724F440644D6988
:1017840044EA85048D6944EA8504E7E7002C0140B6
:1017940038B590F83C30012B66D00D460446012341
:1017A40080F83C30022380F83D300C2A1AD8DFE858
:1017B40002F00719191920191919341919194700B0
:1017C4000068FFF7D7FD2268936943F0080393612B
:1017D4002268936923F00403936122689369296959
:1017E4000B439361012384F83D30002084F83C00CE
:1017F40038BD0068FFF792FF2268936943F40063E1
:1018040093612268936923F48063936122689369E6
:10181400296943EA01239361E4E70068FFF7E0FDE7
:101824002268D36943F00803D3612268D36923F0A3
:101834000403D3612268D36929690B43D361D1E7D7
:101844000068FFF707FE2268D36943F40063D3619D
:101854002268D36923F48063D3612268D369296938
:1018640043EA0123D361BDE7022038BD90F83C3040
:10187400012B25D0012380F83C30CB6823F440733E
:101884008A68134323F480634A68134323F4006390
:101894000A68134323F480530A69134323F400535F
:1018A4004A69134323F480438A69134323F40043AE
:1018B400134302685364002380F83C301846704791
:1018C4000220704790F83C30012B22D030B4012222
:1018D40080F83C20022380F83D300468636823F0DC
:1018E40070036360046863680D682B436360046875
:1018F400A36823F08003A3600468A36849680B43CA
:10190400A36080F83D20002380F83C30184630BCAA
:10191400704702207047000000B585B01348144B8F
:10192400036000238360C36043614FF46022C2619B
:10193400436001230361FEF7EFFE68B90A230193B4
:10194400012302930023039301A90848FEF76CFDC9
:1019540038B905B05DF804FB4C21064800F0F0F8F6
:10196400ECE75621034800F0EBF8F2E7A000002072
:1019740000240140C82F000802680E4B9A4200D090
:10198400704700B587B003F56C439A6942F400725E
:101994009A619B6903F400730193019B0F230293E3
:1019A4000323039302A90448FEF7BCFF07B05DF8C4
:1019B40004FB00BF002401400010014010B584B0B6
:1019C400012302930023039304A90A2341F80C3D45
:1019D400194C2046FEF728FD2046FEF701FE4FF481
:1019E4007A711548FEF764FC0028F8D1124C2046A1
:1019F400FEF716FD114B1880022302930023039374
:101A040004A90B2341F80C3D2046FEF70DFD2046AA
:101A1400FEF7E6FD4FF47A710748FEF749FC00280B
:101A2400F8D10548FEF7FCFC044B5880198804489B
:101A340000F052FB04B010BDA000002008000020FC
:101A4400D82F00082DE9F04188B0394B9A6942F04B
:101A540010029A619A6902F010020092009A9A693F
:101A640042F020029A619A6902F020020192019ADE
:101A74009A6942F004029A619A6902F0040202929D
:101A8400029A9A6942F008029A619B6903F008037A
:101A94000393039B274E002246F2C0113046FFF702
:101AA4003FF8254D002213212846FFF739F846F266
:101AB400C01304934FF00108CDF814800024069459
:101AC4000227079704A93046FEF72CFF132304933B
:101AD400CDF814800694079704A92846FEF722FF40
:101AE4004FF40073049305970323079304A928462E
:101AF400FEF718FF4FF4806304930594069404A939
:101B04002846FEF70FFF4FF44063049305940694B0
:101B140004A93046FEF706FF4FF478730493059446
:101B2400069404A90548FEF7FDFE08B0BDE8F0815F
:101B3400001002400010014000080140000C014068
:101B4400FEE7000000B597B002230C930122109227
:101B5400102211921393002314934FF460131593DE
:101B64000CA8FEF7F9FF50BB0F230793022108913D
:101B7400002309934FF480620A920B9307A8FFF79E
:101B840011FA00BB022301934FF44043039301A8CD
:101B9400FFF7DAFAD8B9FFF7C1FA0F4BA3FB00300D
:101BA4008009FEF793FE0420FEF7A6FE00221146EC
:101BB4004FF0FF30FEF758FE17B05DF804FB932199
:101BC4000648FFF7BDFFA1210448FFF7B9FFA8218C
:101BD4000248FFF7B5FF00BFD34D6210DC2F0008A9
:101BE40008B5FEF741FBFFF7ADFFFFF72BFFFFF74B
:101BF40093FE00F055F900F08BF800F08FF900F037
:101C0400CBF9FFF7DBFEFCE700B583B0244B9A6900
:101C140042F001029A619A6902F001020092009A6C
:101C2400DA6942F08052DA61DB6903F08053019390
:101C3400019B0320FEF706FE002211466FF00B0005
:101C4400FEF712FE002211466FF00A00FEF70CFEAA
:101C5400002211466FF00900FEF706FE002211462D
:101C64006FF00400FEF700FE002211466FF003003F
:101C7400FEF7FAFD002211466FF00100FEF7F4FDB5
:101C8400002211464FF0FF30FEF7EEFD054A53687F
:101C940023F0E06343F00073536003B05DF804FB8A
:101CA40000100240000001407047FEE7FEE7FEE737
:101CB400FEE770477047704708B5FEF7E7FAFEF78E
:101CC4002CFE08BD0F4B1A6842F001021A605968D5
:101CD4000D4A0A405A601A6822F0847222F4803253
:101CE4001A601A6822F480221A605A6822F4FE02EA
:101CF4005A604FF41F029A604FF00062034B9A60DF
:101D0400704700BF001002400000FFF800ED00E043
:101D140000B587B01748184B036000234360836005
:101D2400C36003618361FFF7C7FC98B906A94FF448
:101D3400805341F8103D0F48FFF7ECFB78B90023BE
:101D44000093019369460B48FFF7BCFD60B907B0E7
:101D54005DF804FB66210948FFF7F2FEE6E76C2113
:101D64000648FFF7EDFEEAE773210448FFF7E8FEB3
:101D7400EDE700BF1001002000080040EC2F000830
:101D840084B00368B3F1804F07D0154A934210D052
:101D9400144A934218D004B0704703F50433DA6947
:101DA40042F00102DA61DB6903F001030193019B54
:101DB400F1E70D4BDA6942F00802DA61DB6903F0FE
:101DC40008030293029BE6E7074B9A6942F4005228
:101DD4009A619B6903F400530393039BDBE700BF01
:101DE400000C004000340140001002400268094B1E
:101DF4009A4200D0704782B003F50233DA6942F0A8
:101E04000402DA61DB6903F004030193019B02B06D
:101E1400F0E700BF0008004000B585B00368B3F1E7
:101E2400804F08D0184A934219D0184A934220D0C0
:101E340005B05DF804FB4FF4806300930223019323
:101E4400039369461248FEF76DFD124A536823F462
:101E5400407343F0E06343F400735360E8E70823FE
:101E6400009302230193039369460B48FEF75AFD3E
:101E7400DEE74FF400730093022301930393694652
:101E84000648FEF74FFDD3E7000C00400034014044
:101E9400000C014000000140000801400010014016
:101EA40000B58BB01B484FF08043036000234360B0
:101EB40083600C22C26003618361FFF716FCC8B91A
:101EC40000230893099308A91248FFF7FBFCB0B953
:101ED400602301930023029303930593082201A92D
:101EE4000C48FFF755FC78B90A48FFF795FF0BB08B
:101EF4005DF804FB42210848FFF722FEE0E7492190
:101F04000548FFF71DFEE3E752210348FFF718FEDB
:101F1400EAE700BF90010020EC2F000800B58BB069
:101F24001A481B4B0360002343608360C360036152
:101F34008361FFF7DAFBC8B900230893099308A962
:101F44001248FFF7BFFCB0B960230193002302934A
:101F5400039305930C2201A90C48FFF719FC78B9E7
:101F64000A48FFF759FF0BB05DF804FB85210948C7
:101F7400FFF7E6FDE0E78C210648FFF7E1FDE3E724
:101F840095210448FFF7DCFDEAE700BF500100207B
:101F9400000C0040EC2F000800B591B02648274BF8
:101FA40003600023436083600C22C26003614361C9
:101FB4008361FFF79AFB00282AD100230E930F9325
:101FC4000EA91D48FFF77EFC38BB6023079300234E
:101FD400089309930B930C930D930C2207A91648AD
:101FE400FFF7D6FBF0B90023009301930293039308
:101FF40004934FF400520592069369460E48FFF786
:1020040035FCA0B90C48FFF707FF11B05DF804FBDD
:10201400AB210B48FFF794FDCFE7B2210848FFF747
:102024008FFDD2E7BD210648FFF78AFDDBE7C92112
:102034000348FFF785FDE5E7D000002000340140A8
:10204400EC2F0008002103E00B4B5B584350043194
:102054000A480B4B42189A42F6D30A4A02E000237C
:1020640042F8043B084B9A42F9D3FFF72BFE00F0E9
:102074000FF8FFF7B5FD70479C3000080000002002
:102084007400002074000020D4010020FEE700004A
:1020940070B500250C4E0D4CA41BA410A54209D10B
:1020A40000F064FF00250A4E0A4CA41BA410A542AC
:1020B40005D170BD56F8253098470135EEE756F83E
:1020C400253098470135F2E7943000089430000831
:1020D40094300008983000080FB40A4B13B51C68FC
:1020E40024B1A36913B9204600F04EF805AB049A55
:1020F400A1682046019300F05FF902B0BDE81040EA
:1021040004B0704710000020014900F0A9B800BFD6
:10211400952C0008002310B50446036043608360D7
:1021240081814366C2810361436183611946082248
:102134005C3000F0B3F8054B24626362044BA36285
:10214400044BE362044B236310BD00BF392900082C
:102154005B29000893290008B729000870B5682591
:102164004A1E55430E4605F1740100F09FF80446DB
:1021740040B1002180E842000C30A06005F1680203
:1021840000F08CF8204670BD836910B5044633BB5B
:102194008364C3640365124B124A1B6882629842CB
:1021A40004BF0123836100F01FF86060204600F043
:1021B4001BF8A060204600F017F80022E06004211C
:1021C4006068FFF7A7FF01220921A068FFF7A2FFBB
:1021D40002221221E068FFF79DFF0123A36110BDD5
:1021E4005C3000080D210008F8B51C4B07461E683A
:1021F400B36913B93046FFF7C7FF4836B46873684C
:10220400013B03D5336833B13668F7E7B4F90C50B2
:102214006DB16834F4E704213846FFF79FFF30605E
:102224000028F1D10C2304463B602046F8BD4FF64C
:10223400FF73E38101236566A3812560A560656062
:1022440025616561A5610822294604F15C0000F05E
:1022540025F86563A563A564E564E6E75C300008DA
:102264002DE9F84380468946002600F1480414B954
:102274003046BDE8F883A5686768013F01D5246846
:10228400F5E7AB89012B07D9B5F90E30013303D03B
:1022940029464046C84706436835EEE703460244EC
:1022A400934200D1704703F8011BF9E770B5CD1CC8
:1022B40025F0030508350C2D38BF0C25002D0646E6
:1022C40001DBA94203D90C233360002070BD00F068
:1022D4008DFD234A1468214691B9224C23681BB909
:1022E400304600F017FB20602946304600F012FB10
:1022F400431C26D10C233046336000F078FDE4E71C
:102304000B685B1B1AD40B2B0FD90B60CC18CD5068
:10231400304600F06CFD04F10B00231D20F0070093
:10232400C31A1BD05A42E25070BD8C420BBF636883
:102334004B681360636018BF0C46E9E70C464968B4
:10234400CAE7C41C24F00304A04205D0211A304675
:1023540000F0E0FA0130CDD02560D9E770BD00BFB0
:102364009000002094000020936810B4013B002BDF
:10237400936008DA9469A34202DBCBB20A2B02D140
:1023840010BC00F01BBB1368581C10601970C8B255
:1023940010BC7047F8B506460F461446D518AC4233
:1023A40001D1002007E03A4614F8011B3046FFF73C
:1023B400DBFF431CF3D1F8BD2DE9F04F9DB00C4673
:1023C40017460393064618B183690BB9FFF7DCFE81
:1023D4007C4B9C4257D17468A38918075DD5236947
:1023E400002B5AD00023099320238DF82930302361
:1023F4004FF0010B8DF82A30B846454615F8013BDD
:10240400002B55D1B8EB070A0BD053463A46214668
:102414003046FFF7BFFF013000F0C480099B5344EE
:10242400099398F80030002B00F0BC8000234FF093
:10243400FF3204930793059206938DF853301A9351
:1024440005222978604800F0C3FC05F10108049BCB
:10245400002831D1D90644BF20228DF853201A0711
:1024640044BF2B228DF853202A782A2A2CD000210D
:102474000A20079AA84698F800300135303B092B0A
:102484006DD971B326E0514B9C4201D1B468A3E7E6
:102494004F4B9C4208BFF4689EE72146304600F04B
:1024A400F1FA00289ED04FF0FF301DB0BDE8F08F48
:1024B400252BA7D0A846A0E7434A4546801A0BFA25
:1024C40000F018430490BBE7039A111D12680391AE
:1024D400002A01DB079204E0524243F00203079210
:1024E400049398F800302E2B10D198F8013008F19D
:1024F40001012A2B37D1039B08F102081A1D1B681E
:102504000392002BB8BF4FF0FF330593314D0322E4
:1025140098F80010284600F05BFC40B14023401BB3
:1025240003FA00F0049B08F101080343049398F8AC
:1025340000100622284808F101078DF8281000F041
:1025440047FC002834D0254B03BB039B073323F0FF
:10255400070308330393099B4B4409934CE700FB9F
:102564000232012186E700230A251846059388468E
:1025740098F800200131303A092A03D9002BC5D03C
:102584000590C3E705FB00200123F0E703AB0093AC
:102594002246134B04A93046AFF30080B0F1FF3F4D
:1025A4008146D8D1A3895B063FF57DAF09987CE7C6
:1025B40003AB009322460A4B04A9304600F08AF884
:1025C400ECE700BF1C300008603000083C30000815
:1025D400FC2F0008663000086A3000080000000084
:1025E400992300082DE9F04791461F468A680B6934
:1025F40006469342B8BF1346C9F8003091F8432009
:102604000C46DDF8208012B10133C9F8003023688C
:10261400990642BFD9F800300233C9F80030256862
:1026240015F0060507D104F1190AE368D9F800206A
:102634009B1A9D422ADB94F843302268003318BF6A
:10264400012392062FD404F1430239463046C04791
:10265400013022D02368E56803F00603042B18BF79
:102664000025D9F800204FF0000908BFAD1AA3686F
:10267400226908BF25EAE5759342C4BF9B1AED1889
:102684001A344D451BD10020BDE8F0870123524682
:1026940039463046C047013003D14FF0FF30BDE822
:1026A400F0870135C1E73020E11881F843005A1C56
:1026B40094F845102244023382F84310C3E70123FF
:1026C400224639463046C0470130E6D009F10109B7
:1026D400D7E700002DE9F04317460A7E85B06E2A3D
:1026E400984606460C460C9B01F1430E00F0BC8054
:1026F4001AD8632A2ED00AD8002A00F0C880582A93
:1027040000F08A8004F1420584F842202AE0642A19
:1027140001D0692AF6D121681A6811F0800F23D0FC
:10272400111D1960136827E0732A00F0B48008D8DB
:102734006F2A2AD0702AE5D10A6842F020020A6082
:1027440003E0752A21D0782ADCD178226F4984F8F5
:10275400452064E01A6801F14205111D19601368EF
:1027640084F842300123A3E011F0400F02F1040188
:102774001960D7D0B2F90030002B03DA2D225B4266
:1027840084F8432062490A2217E02068196810F08F
:10279400800F03D0081D18600B6806E010F0400F8E
:1027A40001F104001860F7D00B886F2A14BF0A22C5
:1027B40008225749002084F843006568002DA5606D
:1027C400C0F29C80206820F004002060002B3FD1E0
:1027D400002D40F095807546082A0BD12368DA074E
:1027E40008D5236962689A42DEBF302305F8013CAC
:1027F40005F1FF35AEEB05032361CDF800803B46C0
:1028040003AA21463046FFF7EDFE013055D14FF0C3
:10281400FF3005B0BDE8F08381F845203C492268CB
:10282400186812F0800F00F104051D6001D00368E0
:1028340002E05506FBD50388D00744BF42F02002CE
:1028440022601BB9226822F0200222601022B1E724
:102854007546B3FBF2F002FB1033CB5C05F8013D87
:1028640003460028F5D1B7E708681A6810F0800F0E
:10287400496904D0101D18601368196007E010F04E
:10288400400F02F1040018601368F6D01980002389
:1028940075462361B1E71A68111D19601568002196
:1028A4006268284600F094FA08B1401B60606368CF
:1028B4002361002384F843309FE723692A4639467D
:1028C4003046C0470130A2D023689B0707D50025B6
:1028D40004F11909E368039A9B1A9D4205DBE06839
:1028E400039B9842B8BF184693E701234A463946EA
:1028F4003046C04701308AD00135EBE7002BA7D121
:102904000B7804F1420584F8423065E78230000810
:102914007130000838B50023054C0546084623608D
:1029240000F00EFB431C02D1236803B12B6038BDB9
:10293400D001002010B50C46B1F90E1000F0A4FA35
:102944000028ABBF636DA3891B1823F48053ACBF6D
:102954006365A38110BD2DE9F0411F468B890546AF
:10296400DB050C46164605D502230022B1F90E10EC
:1029740000F0B8F9A389324623F48053A381B4F953
:102984000E103B462846BDE8F04100F069B810B58A
:102994000C46B1F90E1000F0A5F9431CA38915BF2C
:1029A400606523F4805343F48053A38118BFA3814B
:1029B40010BDB1F90E1000F0D3B80000F8B50E4602
:1029C4001446054618B183690BB9FFF7DDFB214BAB
:1029D4009C422AD16C68A369A360A3891A072ED5E7
:1029E400236963B323692068F6B2C01A6369374662
:1029F400984204DB2146284600F04AF928BBA36824
:102A04000130013BA36023685A1C22601E70636975
:102A1400984204D0A389DB0719D50A2E17D1214681
:102A2400284600F035F990B10FE00B4B9C4201D1E0
:102A3400AC68D0E7094B9C4208BFEC68CBE7214661
:102A4400284600F01FF80028CCD04FF0FF37384656
:102A5400F8BD00BF1C3000083C300008FC2F000803
:102A640038B50546084611460022054C22601A4630
:102A740000F074FA431C02D1236803B12B6038BD03
:102A8400D0010020324B70B51D6806460C4625B1B6
:102A9400AB6913B92846FFF777FB2E4B9C420FD145
:102AA4006C68B4F90C309AB215072CD4D00611D442
:102AB4000922326043F04003A3814FF0FF3070BD20
:102AC400254B9C4201D1AC68EBE7244B9C4208BFE8
:102AD400EC68E6E7510712D5616B41B104F1440398
:102AE400994202D0304600F083F900236363A3893E
:102AF40023F02403A3810023636023692360A38953
:102B040043F00803A38123694BB9A38903F4207319
:102B1400B3F5007F03D02146304600F019F9A289AD
:102B240012F001030CD00023A36063695B42A3612C
:102B3400236953B9B4F90C3013F08000BAD170BDD5
:102B4400920758BF6369A360F2E70020F7E700BF6C
:102B5400100000201C3000083C300008FC2F000846
:102B640038B50023054C05460846236000F0C0F93B
:102B7400431C02D1236803B12B6038BDD00100206F
:102B84008A892DE9F041054610070C465AD44B6852
:102B9400002B05DC0B6C002B02DC0020BDE8F0816F
:102BA400E66A002EF9D0002312F480522F682B60BD
:102BB40033D0606DA3895A0705D56368C01A636B67
:102BC4000BB1236CC01A00230246E66A216A284628
:102BD400B047431CA38906D129681D294BD82B4A29
:102BE400CA40D60747D5002262602269D904226010
:102BF40004D5421C01D12B6803B96065616B2F6059
:102C04000029CAD004F14403994202D0284600F0B6
:102C1400EFF800206063BDE8F081216A01232846B3
:102C2400B047411CC6D12B68002BC3D01D2B01D04B
:102C3400162B01D12F60B0E7A38943F04003A38191
:102C4400BDE8F0810F69002FA7D0930718BF0023B8
:102C54000E6808BF4B69A6EB07080F608B60B8F1DC
:102C6400000F9ADD43463A46216A2846A66AB047D1
:102C7400002807DCA38943F04003A3814FF0FF3011
:102C8400BDE8F0810744A8EB0008E8E70100402014
:102C940038B50B6905460C46DBB118B183690BB92D
:102CA400FFF772FA0C4B9C4209D16C68B4F90C30F2
:102CB4007BB121462846BDE83840FFF761BF074B8A
:102CC4009C4201D1AC68F1E7054B9C4208BFEC681B
:102CD400ECE7002038BD00BF1C3000083C30000881
:102CE400FC2F000838B50546084611460022054C5D
:102CF40022601A4600F014F9431C02D1236803B180
:102D04002B6038BDD001002070B50E46B1F90E100D
:102D140090B0002914461D4607DA00232B60B389BE
:102D24001A0610D44FF480630EE001AA00F0BEF836
:102D34000028F2DB029A02F47042A2F500535A42D0
:102D44005A412A60EEE740230020236010B070BD92
:102D54008B8973B59D0706460C4607D504F14703D6
:102D6400236023610123636102B070BD01AB6A4635
:102D7400FFF7CAFF009905463046FFF797FA48B9AE
:102D8400B4F90C309A05EFD423F0030343F00203A3
:102D9400A381E3E70D4BB362A389206043F0800372
:102DA400A381009B20616361019B5BB1B4F90E10A8
:102DB400304600F08DF828B1A38923F0030343F0D3
:102DC4000103A381A3891D43A581CDE70D2100083B
:102DD40010B5C9B202449042034601D1002010BD8F
:102DE4001C7801308C42F6D1184610BD70477047EC
:102DF40038B50546002943D051F8043C0C1F002B7C
:102E0400B8BFE418FFF7F2FF1E4A1368104633B93F
:102E1400636014602846BDE83840FFF7E8BFA3426A
:102E24000BD921686218934201BF1A685B68521873
:102E3400226063600460EDE713465A680AB1A24257
:102E4400FAD919685818A0420BD1206801445818BF
:102E540082421960DED110685268014419605A60D8
:102E6400D8E702D90C232B60D4E7206821188A42C2
:102E740001BF116852680918216062605C60C9E78B
:102E840038BD00BF9000002038B5054608461146FD
:102E94000022054C22601A4600F04AF8431C02D175
:102EA400236803B12B6038BDD001002038B500235E
:102EB400064C054608461146236000F021F8431CE1
:102EC40002D1236803B12B6038BD00BFD0010020BC
:102ED40038B50023054C05460846236000F018F871
:102EE400431C02D1236803B12B6038BDD0010020FC
:102EF4005822024B4FF0FF301A607047D001002077
:102F04005822024B4FF0FF301A607047D001002066
:102F14005822024B00201A60704700BFD0010020E5
:102F24005822024B4FF0FF301A607047D001002046
:102F34005822024B4FF0FF301A607047D001002036
:102F4400044B0246196809B9034919601868024418
:102F54001A60704798000020D80100205822024BC4
:102F64004FF0FF301A607047D0010020F8B500BF61
:102F7400F8BC08BC9E467047F8B500BFF8BC08BC56
:042F84009E467047AE
:102F880002030405060708090A0B0C0D0E0F1010A2
:102F98000102000002030405060708090A0B0C0DCC
:102FA8000E0F1010010200000000000000000000D9
:102FB80001020304060708090000000001020304D7
:102FC8002E2E5C5372635C6164632E630000000004
:102FD80025640D002E2E5C5372635C6D61696E2E44
:102FE800630000002E2E5C5372635C74696D2E635F
:102FF80000000000000000000000000000000000C9
:1030080000000000000000000000000000000000B8
:1030180000000000000000000000000000000000A8
:103028000000000000000000000000000000000098
:103038000000000000000000000000000000000088
:103048000000000000000000000000000000000078
:103058000000000014000020232D302B2000686C95
:103068004C006566674546470030313233343536A3
:1030780037383941424344454600303132333435DC
:0C30880036373839616263646566000009
:043094000902000825
:04309800E501000846
:10309C0001000000100000000A000A0000A24A040F
:1030AC0014000020000000001C3000083C30000818
:1030BC00FC2F0008000000000000000000000000D1
:1030CC0000000000000000000000000000000000F4
:1030DC0000000000000000000000000000000000E4
:1030EC0000000000000000000000000000000000D4
:1030FC0000000000000000000000000000000000C4
:04310C0000000000BF
:040000050800204986
:00000001FF
